:020000040800F2
:1000000030540020790B0008D50B0008D50B0008F0
:10001000D50B0008D50B0008D50B00080000000028
:10002000000000000000000000000000D50B0008E8
:10003000D50B000800000000D50B0008D50B000808
:10004000D50B0008D50B0008D50B0008D50B000810
:10005000D50B0008D50B0008D50B0008D50B000800
:10006000D50B0008D50B0008D50B0008D50B0008F0
:10007000D50B0008D50B0008D50B0008C5070008F4
:10008000D50B0008D50B0008D50B0008D50B0008D0
:10009000D50B0008D50B0008D50B0008D50B0008C0
:1000A000D50B0008D50B0008D50B0008D50B0008B0
:1000B000510C0008D50B0008D50B0008D50B000823
:1000C000D50B0008D50B0008D50B0008D50B000890
:1000D000D50B0008D50B0008D50B0008D50B000880
:1000E000D50B0008D50B0008D50B0008D50B000870
:1000F000D50B0008D50B0008D50B0008D50B000860
:10010000D50B0008D50B0008D50B0008D50B00084F
:10011000D50B0008D50B0008D50B0008D50B00083F
:10012000D50B0008D50B0008D50B0008D50B00082F
:10013000D50B0008D50B0008D50B0008D50B00081F
:10014000D50B0008D50B0008D50B0008D50B00080F
:10015000D50B0008D50B0008D50B0008D50B0008FF
:10016000D50B0008D50B0008D50B0008D50B0008EF
:10017000D50B0008D50B0008D50B0008D50B0008DF
:10018000D50B0008D50B000880B582B000AF1D4B21
:1001900000221A6000F096F800237B601AE01A49EA
:1001A0007A6813465B0013440B4400221A70164908
:1001B0007A6813465B0013440B4400225A701249BC
:1001C0007A6813465B0013440B4400229A707B68E4
:1001D00001337B607B68802BE1D900F017F800F0D9
:1001E00039F800F089F800F0A1F800F06BF800BFD2
:1001F000044B1B68002BFBD100F0E2F80837BD462A
:1002000080BD00BF940100201000002080B582B0A6
:1002100000AF0420012100F0E5FD40233B600223F4
:100220003B7103237B710023BB710123FB713B46B0
:100230000748194600F07CFF054B40225A830448CA
:100240000621022201F002F80837BD4680BD00BF3A
:100250000008024080B588B000AF0220012100F004
:10026000DFFD4FF40010012100F0BCFD6823BB61ED
:100270000023BB820023BB830023FB8207F114030E
:100280000F48194601F030FB3B46184601F050FC80
:1002900060233B8001237B800023BB600023BB8164
:1002A0003B460748194601F0C9FB0548082101F003
:1002B00061FC0348012101F081FB2037BD4680BD70
:1002C0000004004080B483B000AF00237B6007E0EF
:1002D000084B7A68002123F812107B6801337B6099
:1002E0007A6840F647439A42F2D90C37BD465DF82A
:1002F000047B70479801002080B582B000AF0A48A7
:100300004FF40071012201F0AFFC0F233B71002379
:100310007B710023BB710123FB713B1D184601F06B
:1003200085FA0837BD4680BD0004004080B590B016
:1003300000AF1948002101F09DF9174801F072F84B
:100340004FF020637B60154BBB60154BFB60402377
:100350003B6140F648437B610023BB614FF48063FF
:10036000FB614FF400633B624FF400537B62002358
:10037000BB624FF44033FB6200233B6301237B638A
:100380000023BB630023FB633B1D0348194601F0B8
:100390001BF94037BD4680BD706002403404004008
:1003A0009801002080B500AF00BF044B1B68002BF4
:1003B000FBD100F01FF800F003F880BD940100208D
:1003C00080B500AF084B01221A60084810210122B5
:1003D00001F06CF90548012101F04CF904480121B4
:1003E00001F00CFB80BD00BF940100207060024052
:1003F0000004004080B485B000AF0023BB60002340
:10040000FB60C3E1AE49FA6813465B001344CA18A7
:100410003B1D1188927819809A70AA4BBA681D21E9
:1004200023F812107B79DBB25BB2002B04DAA54B08
:10043000BA684C2123F81210BB680133BB60A14B92
:10044000BA681D2123F812107B7903F04003002BBA
:1004500004D09C4BBA684C2123F81210BB680133BE
:10046000BB60984BBA681D2123F812107B7903F00A
:100470002003002B04D0934BBA684C2123F81210B0
:10048000BB680133BB608F4BBA681D2123F8121083
:100490007B7903F01003002B04D08A4BBA684C21FF
:1004A00023F81210BB680133BB60864BBA681D216C
:1004B00023F812107B7903F00803002B04D0814B42
:1004C000BA684C2123F81210BB680133BB607D4B26
:1004D000BA681D2123F812107B7903F00403002B66
:1004E00004D0784BBA684C2123F81210BB68013352
:1004F000BB60744BBA681D2123F812107B7903F09E
:100500000203002B04D06F4BBA684C2123F8121061
:10051000BB680133BB606B4BBA681D2123F8121016
:100520007B7903F00103002B04D0664BBA684C21A1
:1005300023F81210BB680133BB60624BBA681D21FF
:1005400023F812103B79DBB25BB2002B04DA5D4B6F
:10055000BA684C2123F81210BB680133BB60594BB9
:10056000BA681D2123F812103B7903F04003002BD9
:1005700004D0544BBA684C2123F81210BB680133E5
:10058000BB60504BBA681D2123F812103B7903F071
:100590002003002B04D04B4BBA684C2123F81210D7
:1005A000BB680133BB60474BBA681D2123F81210AA
:1005B0003B7903F01003002B04D0424BBA684C2166
:1005C00023F81210BB680133BB603E4BBA681D2193
:1005D00023F812103B7903F00803002B04D0394BA9
:1005E000BA684C2123F81210BB680133BB60354B4D
:1005F000BA681D2123F812103B7903F00403002B85
:1006000004D0304BBA684C2123F81210BB68013378
:10061000BB602C4BBA681D2123F812103B7903F004
:100620000203002B04D0274BBA684C2123F8121088
:10063000BB680133BB60234BBA681D2123F812103D
:100640003B7903F00103002B04D01E4BBA684C2108
:1006500023F81210BB680133BB601A4BBA681D2126
:1006600023F81210BB79DBB25BB2002B04DA154B16
:10067000BA684C2123F81210BB680133BB60114BE0
:10068000BA681D2123F81210BB7903F04003002B38
:1006900004D00C4BBA684C2123F81210BB6801330C
:1006A000BB60084BBA681D2123F81210BB7903F018
:1006B0002003002B0AD0034BBA684C2104E000BF92
:1006C000100000209801002023F81210BB680133AD
:1006D000BB603B4BBA681D2123F81210BB7903F0B5
:1006E0001003002B04D0364BBA684C2123F81210AB
:1006F000BB680133BB60324BBA681D2123F812106E
:10070000BB7903F00803002B04D02D4BBA684C21B1
:1007100023F81210BB680133BB60294BBA681D2156
:1007200023F81210BB7903F00403002B04D0244BF0
:10073000BA684C2123F81210BB680133BB60204B10
:10074000BA681D2123F81210BB7903F00203002BB5
:1007500004D01B4BBA684C2123F81210BB6801333C
:10076000BB60174BBA681D2123F81210BB7903F048
:100770000103002B04D0124BBA684C2123F812104D
:10078000BB680133BB60FB680133FB60FB68802BF7
:100790007FF638AE0023FB600AE0094BBA680021FF
:1007A00023F81210BB680133BB60FB680133FB60A8
:1007B000FB682F2BF1D91437BD465DF8047B7047D9
:1007C0009801002080B500AF0B480C4900F0A8FF4D
:1007D0000346002B0ED00848084900F0F9FF0848EE
:1007E000002101F00BF90448002100F043FF054B04
:1007F00000221A6080BD00BF70600240208000208F
:10080000000400409401002080B483B000AF174B77
:100810001B687B607B68DB027A6853407B607B6887
:100820001B0A7A6853407B60114B1A680F4B1A60A1
:10083000104B1A680E4B1A600F4B1A680D4B1A605A
:100840000D4B1B68DA0C0C4B1B685A400A4B1A60A4
:10085000094B1A687B685A40074B1A60064B1B68A5
:1008600018460C37BD465DF8047B70470000002039
:1008700004000020080000200C00002080B483B099
:1008800000AF78607B68002B02DA7B685B4200E097
:100890007B6818460C37BD465DF8047B704700BF87
:1008A00080B596B000AF786000237B6500233B6580
:1008B0001EE03A6D13465B0013441A01D31A7868A0
:1008C000194600F00FF902463B6D9B0007F15801F5
:1008D0000B4443F84C2C3B6D9B0007F1580213442A
:1008E00053F84C3C7A6D13447B653B6D01333B659B
:1008F0003B6D072BDDDD0023BB64B1E0BB6C272B18
:1009000002DC00237B6401E001237B640023FB64A1
:100910009FE05749BA6C13469B001344DB00FA6C06
:10092000134451F82330012B40F0908000233B64A6
:10093000FFF76AFF03467A6DB3FBF2F102FB01F2A7
:100940009B1AFB6300233B6512E03B6D9B0007F1A4
:1009500058010B4453F84C3CFA6BD31AFB63FB6B06
:10096000002B02DA3B6D3B6405E03B6D01333B65D8
:100970003B6D072BE9DD3B6C033B184600F07CF830
:10098000B8633B6C013B184600F076F878633B6C2B
:100990009B0007F15802134453F84C3C354A82FB44
:1009A00003125210DB17D31A3B654CE0BB6B3A6D58
:1009B00002FB03F2FB6C13443B637B6B3A6D02FB5F
:1009C00003F2BB6C1344FB623B6B002B38DB3B6BCD
:1009D000272B35DC7A6C13469B001344DB001A4648
:1009E000FB6A9A422CDC7B6C5A1C13469B00134416
:1009F000DB001A46FB6A9A4222DD1D49FA6A134659
:100A00009B001344DB003A6B134451F82330002B56
:100A100016D11749BA6C13469B001344DB00FA6CDD
:100A20001344002241F823201149FA6A13469B001F
:100A30001344DB003A6B1344012241F8232005E004
:100A40003B6D013B3B653B6D012BAFDCFB6C013328
:100A5000FB64FB6C272B7FF75CAFBB6C0133BB6483
:100A6000BB6C4F2B7FF74AAF5837BD4680BD00BFE8
:100A70002C1A0020398EE33880B483B000AF786040
:100A800002E07B6808337B607B68002BF9DB02E0C7
:100A90007B68083B7B607B68072BF9DC7B68072B56
:100AA00019D801A252F823F0C90A0008C90A00089F
:100AB000CD0A0008D10A0008D10A0008D10A0008AE
:100AC000CD0A0008C90A0008012305E0002303E05D
:100AD0004FF0FF3300E0002318460C37BD465DF8A9
:100AE000047B704780B584B000AF7860396003E064
:100AF0007B6803F5B4737B607B68002BF8DB03E055
:100B00007B68A3F5B4737B607B68B3F5B47FF7DCD7
:100B100003E03B6803F5B4733B603B68002BF8DBF4
:100B200003E03B68A3F5B4733B603B68B3F5B47F67
:100B3000F7DC7A683B68D31A1846FFF79FFEF86027
:100B4000FB68B42B03DDFB68C3F5B473FB60FB6883
:100B5000C3F1B403642202FB03F3064A82FB0312CF
:100B60001A44D211DB17D31AFB60FB681846103702
:100B7000BD4680BDB7600BB680B582B000AF104BEC
:100B80007B60104B3B6007E03B681A1D3A607A6857
:100B9000111D796012681A603A680B4B9A42F3D3C0
:100BA0000A480B494FF000028842B8BF40F8042BB6
:100BB000FFF6FAAF00F012F80837BD4680BD00BF5F
:100BC000B01C0008000000201000002010000020D1
:100BD000304C002080B400AFFEE700BF80B582B08B
:100BE00000AF00F091F900F077FB00F037F900F06A
:100BF00051F900F077F9FFF7C7FA0A23BB70002319
:100C00007B7000233B70104B00229A700E4B1E220B
:100C10005A700D4B28221A7000237B600DE00B499F
:100C20007A6813465B0013440B443A461188927865
:100C300019809A707B6801337B607B68802BEED9CA
:100C4000FFF7B0FBFEE700BF281A002010000020CD
:100C500080B500AF4FF08040012100F0CBFF03468C
:100C6000002B1BD04FF08040012100F0EDFF0C4B1A
:100C70000B4A526982F400425A610A4B1B685A1CA3
:100C8000084B1A60074B1A6813469B00134418461A
:100C9000FFF706FE00F008F8FFF784FB80BD00BFF9
:100CA000000C02402C4C002080B48BB000AF00231D
:100CB000BB6183E0BA69464B1340002B03DA013B6A
:100CC00063F0010301337B600023FB6170E00023CC
:100CD0007B6100233B610023FB6000233B6230E02B
:100CE00000237B6227E0BA6913469B001A443B6AE3
:100CF0001A44F9690B469B0019447B6AC8183549A8
:100D000013469B001344DB00034451F82330012BAE
:100D10000ED1314B1B787A6913447B612E4B5B7883
:100D20003A6913443B612C4B9B78FA681344FB608F
:100D30007B6A01337B627B6A042BD4DD3B6A01331F
:100D40003B623B6A042BCBDD7A69244BA3FB021385
:100D5000DB08DBB23B703A69204BA3FB0213DB08D4
:100D6000DBB27B70FA681D4BA3FB0213DB08DBB21E
:100D7000BB70BB69DB00BB607B68002B06D0FB69E6
:100D8000C3F10703BA681344BB6003E0BA68FB69A8
:100D90001344BB601249BA6813465B0013440B440A
:100DA0003A461188927819809A70FB690133FB6189
:100DB000FB69072B8BDDBB690133BB61BB690F2B63
:100DC0007FF778AF2C37BD465DF8047B704700BFD6
:100DD000010000802C1A0020281A00201F85EB51EA
:100DE0001000002080B483B000AF78600B46FB7029
:100DF000FB78002B06D0094B084A116B7A680A432E
:100E00001A6306E0054B054A116B7A68D2430A4023
:100E10001A630C37BD465DF8047B7047003802400A
:100E200080B483B000AF78600B46FB70FB78002B7A
:100E300006D0094B084A116C7A680A431A6406E026
:100E4000054B054A116C7A68D2430A401A640C3784
:100E5000BD465DF8047B70470038024080B582B023
:100E600000AF08200121FFF7BDFF4FF470433B6046
:100E700001233B710023BB7102237B710023FB71B3
:100E80003B460348194600F053F90837BD4680BD7C
:100E9000000C024080B584B000AF01200121FFF7B3
:100EA000BFFF42F21073BB800023FB804FF4C87376
:100EB000BB600023BB810023BB733B1D4FF0804010
:100EC000194600F011FD4FF08040012100F096FD21
:100ED0004FF080400121012200F068FE1037BD462E
:100EE00080BD00BF80B582B000AF1C233B710023E2
:100EF0007B710123BB710123FB713B1D184600F080
:100F000095FC0837BD4680BD80B487B000AF864BE6
:100F100000221A6000237B6100233B610023FB60F9
:100F20000023BB604FF0FF333B6000237B60002356
:100F30007B6138E000233B612FE07C497A691346EE
:100F40009B001344DB003A691344002241F823203C
:100F50007B6801337B607B68B3F5487F0BDA7349AC
:100F60007A6913469B001344DB003A69134401225B
:100F700041F823200EE07B68B3F5166F0ADD6B495C
:100F80007A6913469B001344DB003A69134401223B
:100F900041F823203B6901333B613B69272BCCDDC2
:100FA0007B6901337B617B694F2BC3DD00237B6150
:100FB000B0E000233B61A6E00023FB609CE000233F
:100FC000BB6091E0FB68C3F1020213469B001A4428
:100FD0007B691A44B9680B469B0019443B69C818E1
:100FE000524913469B001344DB0003443A6841F81E
:100FF0002320FB68C3F1020213469B001A447B695D
:101000001A44BB68C3F107010B469B0019443B69B6
:10101000C818464913469B001344DB0003443A6852
:1010200041F82320FB685A1D13469B001A447B6934
:101030001A44BB68C3F107010B469B0019443B6986
:10104000C8183A4913469B001344DB0003443A682E
:1010500041F82320FB68C3F10A0213469B001A449F
:101060007B691A44B9680B469B0019443B69C81850
:101070002E4913469B001344DB0003443A6841F8B1
:101080002320FB6803F10D0213469B001A447B6981
:101090001A44B9680B469B0019443B69C818234998
:1010A00013469B001344DB0003443A6841F82320B5
:1010B000FB6803F10D0213469B001A447B691A4436
:1010C000BB68C3F107010B469B0019443B69C81874
:1010D000164913469B001344DB0003443A6841F869
:1010E0002320BB680133BB60BA68FB689A427FF774
:1010F00069AFFB680133FB60FB68022B7FF75FAFD2
:101100003B6901333B613B69042B7FF755AF7B693A
:1011100001337B617B69042B7FF74BAF1C37BD46E6
:101120005DF8047B704700BF2C4C00202C1A002077
:1011300080B487B000AF7860396000237B61002302
:101140003B610023FB6000237B6176E07B69012229
:1011500002FA03F33B613B681A683B691340FB608A
:10116000FA683B699A4265D17B681A687B695B00C3
:10117000032101FA03F3DB431A407B681A607B68A2
:101180001A683B681B7919467B695B0001FA03F317
:101190001A437B681A603B681B79012B03D03B68BC
:1011A0001B79022B2ED17B689A687B695B00032137
:1011B00001FA03F3DB431A407B689A607B689A6804
:1011C0003B685B7919467B695B0001FA03F31A43BC
:1011D0007B689A607B685A687B699BB2012101FA3F
:1011E00003F3DB431A407B685A607B685A683B68AC
:1011F0009B7919467B699BB201FA03F39BB21A43B0
:101200007B685A607B68DA687B699BB25B0003216C
:1012100001FA03F3DB431A407B68DA607B68DA6823
:101220003B68DB7919467B695B0001FA03F31A43DB
:101230007B68DA607B6901337B617B690F2B85D921
:101240001C37BD465DF8047B704700BF80B485B095
:1012500000AF786013460A467A807B700023FB60FB
:101260000023BB607A787B8803F007039B0002FAB7
:1012700003F3FB607B88DB089BB21A467B88DB08A4
:101280009BB219467B68083153F821107B8803F024
:1012900007039B000F2000FA03F3DB4319407B6830
:1012A000083243F822107B88DB089BB21A467B6821
:1012B000083253F82220FB681343BB607B88DB08AD
:1012C0009BB21A467B680832B96843F8221014377B
:1012D000BD465DF8047B704780B500AF114B114AE5
:1012E000126842F001021A600E4B00229A600D4A09
:1012F0000C4B1B6823F0847323F480331360094B79
:10130000094A5A60074B074A126822F480221A6081
:10131000044B0022DA6000F00BF8044B4FF000623F
:101320009A6080BD003802401030002400ED00E0DB
:1013300080B483B000AF00237B6000233B60354B5B
:10134000344A126842F480321A60324B1B6803F44C
:1013500000333B607B6801337B603B68002B03D12B
:101360007B68B3F5A06FF0D12A4B1B6803F4003300
:10137000002B02D001233B6001E000233B603B686F
:10138000012B42D1234B234A126C42F080521A6443
:10139000214B214A126842F480421A601D4B1D4ABB
:1013A00092689A601B4B1B4A926842F400429A6012
:1013B000184B184A926842F4A0529A60154B174A8B
:1013C0005A60144B134A126842F080721A6000BFD0
:1013D000104B1B6803F00073002BF9D0104B40F248
:1013E00005621A600B4B0B4A926822F003029A6066
:1013F000084B084A926842F002029A6000BF054B0F
:101400009B6803F00C03082BF9D10C37BD465DF83F
:10141000047B7047003802400070004008544007C9
:10142000003C024080B483B000AF78607B681B68EA
:1014300023F001027B681A607B6800221A607B68D7
:1014400000225A607B6800229A607B680022DA6082
:101450007B6800221A617B6821225A617A68454BB9
:101460009A4203D1444B3D229A607EE07A68434B16
:101470009A4204D1404B4FF474629A6075E07A68E6
:101480003F4B9A4204D13C4B4FF474129A606CE08B
:101490007A683C4B9A4204D1374B4FF074629A60A1
:1014A00063E07A68384B9A4203D1334B374ADA60AB
:1014B0005BE07A68364B9A4203D12F4B354ADA60AB
:1014C00053E07A68344B9A4203D12B4B334ADA60AB
:1014D0004BE07A68324B9A4204D1274B4FF03D5291
:1014E000DA6042E07A682F4B9A4203D12E4B3D22BC
:1014F0009A603AE07A682D4B9A4204D12A4B4FF415
:1015000074629A6031E07A68294B9A4204D1264B82
:101510004FF474129A6028E07A68264B9A4204D1FC
:10152000214B4FF074629A601FE07A68224B9A4216
:1015300003D11D4B154ADA6017E07A681F4B9A42B7
:1015400003D1194B134ADA600FE07A681C4B9A42B8
:1015500003D1154B114ADA6007E07A68194B9A42B9
:1015600003D1114B4FF03D52DA600C37BD465DF8A8
:10157000047B704710600240006002402860024017
:101580004060024058600240706002403D00002010
:1015900088600240400F0020A060024000003D2013
:1015A000B8600240106402400064024028640240B7
:1015B0004064024058640240706402408864024003
:1015C000A0640240B864024080B485B000AF786087
:1015D00039600023FB607B681B68FB60FA68244B62
:1015E0001340FB603B681A683B68DB681A433B6842
:1015F0005B691A433B689B691A433B68DB691A4382
:101600003B681B6A1A433B685B6A1A433B689B6AE8
:101610001A433B685B6B1A433B689B6B1343FA6846
:101620001343FB607B68FA681A607B685B69FB6048
:10163000FB6823F00703FB603B68DA6A3B681B6BBF
:101640001343FA681343FB607B68FA685A613B688E
:101650001A697B685A603B685A687B689A603B6885
:101660009A687B68DA601437BD465DF8047B704782
:101670003F801CF080B483B000AF78600B46FB70F5
:10168000FB78002B06D07B681B6843F001027B6867
:101690001A6005E07B681B6823F001027B681A6012
:1016A0000C37BD465DF8047B704700BF80B485B041
:1016B00000AFF860B9601346FB71BB6803F08003AC
:1016C000002B0FD0FB79002B06D0FB685B6943F041
:1016D0008002FB685A6105E0FB685B6923F08002C9
:1016E000FB685A61BB68802B14D0FB79002B08D0B3
:1016F000FB681A68BB6803F01E031A43FB681A6094
:1017000008E0FB681A68BB6803F01E03DB431A405D
:10171000FB681A601437BD465DF8047B704700BF54
:1017200080B487B000AF786039600023FB75002378
:10173000FB600023BB607A68224B9A4202D8224B9E
:101740003B6101E0214B3B613B6823F0F02323F038
:10175000C313002B0AD03B68DB0A03F01E03FB60B7
:101760007B681A68FB681340BB6004E07B685B69B8
:1017700003F08003BB603B6803F00053002B03D0F1
:101780003B695B68FB6002E03B691B68FB60FB68D0
:1017900023F0F02323F08213FB60FA683B681340C8
:1017A000002B05D0BB68002B02D00123FB7501E0A4
:1017B0000023FB75FB7D18461C37BD465DF8047B96
:1017C000704700BF0F6402400060024000640240A6
:1017D00080B485B000AF786039607A68104B9A4267
:1017E00002D8104BFB6001E00F4BFB603B6803F03D
:1017F0000053002B07D03B6823F0F02323F0821323
:10180000FA68D36006E03B6823F0F02323F08213EC
:10181000FA6893601437BD465DF8047B704700BFDB
:101820000F640240006002400064024080B485B052
:1018300000AF78600023FB730023BB730F237B731F
:101840007B68DB78002B37D0254BDB68DB4303F468
:10185000E0631B0AFB73FB7BC3F10403BB737A7B5E
:10186000FB7B42FA03F37B737B685B781A46BB7B96
:1018700002FA03F3FB737B689A787B7B1340DAB23E
:10188000FB7B1343FB73FB7B1B01FB73154A7B68DC
:101890001B781344FA7B83F80023124B7A68127882
:1018A0005209D2B27968097801F01F01012000FACB
:1018B00001F143F822100EE00A4B7A6812785209BF
:1018C000D2B27968097801F01F01012000FA01F114
:1018D000203243F822101437BD465DF8047B704770
:1018E00000ED00E000E100E080B485B000AF78607A
:1018F00039600023FB817B681B88FB817A68284B59
:101900009A4213D07A68274B9A420FD07B68B3F182
:10191000804F0BD07A68244B9A4207D07A68234BC9
:101920009A4203D07A68224B9A4208D1FB8923F06D
:101930007003FB813B685A88FB891343FB817A68FB
:101940001C4B9A420CD07A681B4B9A4208D0FB89F8
:1019500023F44073FB813B681A89FB891343FB81A5
:101960007B68FA891A803B685A687B68DA623B6850
:101970001A887B681A857A68094B9A4203D07A687C
:10198000084B9A4204D13B689B7A1A467B681A86B8
:101990007B6801229A821437BD465DF8047B70474C
:1019A0000000014000040140000400400008004025
:1019B000000C0040001000400014004080B483B0D0
:1019C00000AF78600B46FB70FB78002B08D07B687B
:1019D0001B889BB243F080039AB27B681A8007E0B1
:1019E0007B681B889BB223F080039AB27B681A80C5
:1019F0000C37BD465DF8047B704700BF80B483B0F0
:101A000000AF78600B46FB70FB78002B08D07B683A
:101A10001B889BB243F001039AB27B681A8007E0EF
:101A20007B681B889BB223F001039AB27B681A8003
:101A30000C37BD465DF8047B704700BF80B485B0AD
:101A400000AF7860396000237B810023FB81002395
:101A5000BB817B681B8C9BB223F001039AB27B682D
:101A60001A847B681B8CFB817B689B88BB817B68AD
:101A70001B8B7B817B8923F070037B817B8923F027
:101A800003037B813B681A887B8913437B81FB8935
:101A900023F00203FB813B689A89FB891343FB8196
:101AA0003B685A88FB891343FB817A681E4B9A4234
:101AB00003D07A681D4B9A4223D1FB8923F0080397
:101AC000FB813B68DA89FB891343FB81FB8923F0A7
:101AD0000403FB813B689A88FB891343FB81BB8924
:101AE00023F48073BB81BB8923F40073BB813B6803
:101AF0001A8ABB891343BB813B685A8ABB8913434B
:101B0000BB817B68BA899A807B687A891A833B6833
:101B10009A687B685A637B68FA891A841437BD46D1
:101B20005DF8047B704700BF0000014000040140E5
:101B300080B483B000AF78607B6800221A807B6835
:101B400000225A807B6800229A807B6800229A607B
:101B50007B6800229A817B680022DA817B68002200
:101B60001A827B6800225A820C37BD465DF8047BDE
:101B7000704700BF80B485B000AF78600B467B80B3
:101B80000023FB817B681B8BFB81FB8923F008030F
:101B9000FB81FA897B881343FB817B68FA891A836E
:101BA0001437BD465DF8047B704700BF80B483B036
:101BB00000AF786013460A467A807B707B78002BF2
:101BC00008D07B689B899AB27B8813439AB27B6862
:101BD0009A8109E07B689B899AB27B88DB439BB240
:101BE00013409AB27B689A810C37BD465DF8047B3E
:101BF000704700BF80B485B000AF78600B467B8033
:101C00000023FB730023BB8100237B817B681B8A3D
:101C10009AB27B881340BB817B689B899AB27B8890
:101C200013407B81BB89002B05D07B89002B02D020
:101C30000123FB7301E00023FB73FB7B1846143781
:101C4000BD465DF8047B704780B483B000AF786018
:101C50000B467B807B88DB439AB27B681A820C3709
:101C6000BD465DF8047B704780B483B000AF7860F8
:101C700013460A467A807B707B78002B08D07B68FD
:101C80009B899AB27B8813439AB27B689A8109E058
:101C90007B689B899AB27B88DB439BB213409AB2E4
:101CA0007B689A810C37BD465DF8047B704700BFA6
:101CB0001700000038000000590000005804000020
:0400000508000000EF
:00000001FF
