:020000040800F2
:10000000B86B0020BD0B0008B90B0008B90B000845
:10001000B90B0008B90B0008B90B0008000000007C
:10002000000000000000000000000000B90B000804
:10003000B90B000800000000B90B0008B90B00085C
:10004000B90B0008B90B0008B90B0008B90B000880
:10005000B90B0008B90B0008B90B0008B90B000870
:10006000B90B0008B90B0008B90B0008B90B000860
:10007000B90B0008B90B0008B90B0008BD04000853
:10008000B90B0008B90B0008B90B0008B90B000840
:10009000B90B0008B90B0008B90B0008B90B000830
:1000A000B90B0008B90B0008B90B0008B90B000820
:1000B000610C0008B90B0008B90B0008B90B000867
:1000C000B90B0008B90B0008B90B0008B90B000800
:1000D000B90B0008B90B0008B90B0008B90B0008F0
:1000E000B90B0008B90B0008B90B0008B90B0008E0
:1000F000B90B0008B90B0008B90B0008B90B0008D0
:10010000B90B0008B90B0008B90B0008B90B0008BF
:10011000B90B0008B90B0008B90B0008B90B0008AF
:10012000B90B0008B90B0008B90B0008B90B00089F
:10013000B90B0008B90B0008B90B0008B90B00088F
:10014000B90B0008B90B0008B90B0008B90B00087F
:10015000B90B0008B90B0008B90B0008B90B00086F
:10016000B90B0008B90B0008B90B0008B90B00085F
:10017000B90B0008B90B0008B90B0008B90B00084F
:10018000B90B0008B90B0008F0B5104C83B004207F
:10019000012100F059FE40260123204602250022BD
:1001A000694603278DF806208DF8073000968DF8F4
:1001B00004508DF8057000F083FF668320462A46C0
:1001C000062100F0DDFF03B0F0BD00BF00080240D3
:1001D00070B5022088B0184D012100F041FE4FF4A7
:1001E0000010012100F030FE0024682369462846F3
:1001F0000193ADF80040ADF80840ADF8024001F0C1
:10020000BFF903A801F062FA0126602303A928467A
:10021000ADF80C300594ADF81840ADF80E6001F063
:1002200019FA2846082101F05BFA2846314601F008
:10023000F5F908B070BD00BF0004004000B50C48DF
:1002400083B04FF40071012201F06CFA00230F21FA
:10025000012201A88DF804108DF805308DF80630C4
:100260008DF8072001F050F903B05DF804FB00BFE2
:10027000000400402DE9F0471B4C90B000212046BF
:1002800001F0D4F8DFF864A02046DFF8649001F0B4
:1002900009F84FF02068002320464FF0400C40F64C
:1002A000484E01224FF480674FF400664FF400552A
:1002B0004FF4403401A9CDF808A0CDF80C90CDF84A
:1002C0000480CDF810C0CDF814E006930A930C9387
:1002D0000E930F930797089609950B940D9201F0D2
:1002E00079F810B0BDE8F087706002403404004037
:1002F0002003002038B5094D0124094B2846224629
:1003000010211C6001F09CF82846214601F08EF86F
:1003100021460448BDE8384001F08EB970600240C3
:100320001C0300200004004070B5154E0022154C3F
:10033000154B326023F8022FA342FBD10023134850
:100340001A4640F28315C254C1180333AB424A70B7
:100350008A70F8D1FFF718FFFFF73AFFFFF76EFF3B
:10036000FFF788FF084B002223F8022F9C42FBD1A5
:1003700033681BB9BDE87040FFF7BCBFFEE700BFA4
:100380001C030020AE1B00201E030020980100204B
:10039000F0B4404B404F00264C211D2240F2831CFC
:1003A000B8194578BC5D15F0800F0CBF1A80198014
:1003B00015F0400F0CBF5A80598015F0200F0CBF6C
:1003C0009A80998015F0100F0CBFDA80D98015F053
:1003D000080F0CBF1A81198115F0040F0CBF5A8148
:1003E000598115F0020F0CBF9A819981ED0754BF16
:1003F000DA81D981250654BF1A821982650654BF55
:100400005A825982A50654BF9A829982E50654BF42
:10041000DA82D982250754BF1A8319836507807849
:1004200054BF5A835983A50754BF9A839983E5071C
:1004300054BFDA83D983040654BF1A84198445064D
:1004400054BF5A845984840654BF9A849984C5063B
:1004500054BFDA84D984040754BF1A851985450727
:1004600054BF5A855985840754BF9A8599850336A8
:10047000C00754BFDA85D985664503F130038FD1B3
:10048000064B002103F1600223F8021F9342FBD1C7
:10049000F0BC704720030020980100204E1B002074
:1004A00008B5054B1B682BB9FFF772FFBDE8084084
:1004B000FFF720BFFEE700BF1C03002008B50A4875
:1004C0000A4900F0DDFF70B10748084901F002F861
:1004D0000748002101F0B0F80348002100F0A6FF12
:1004E000044B00221A6008BD70600240208000208A
:1004F000000400401C030020002807DA10F5B47047
:10050000FCD4B0F5B47F04DDA0F5B470B0F5B47FD1
:10051000FADC002907DA11F5B471FCD4B1F5B47F27
:1005200004DDA1F5B471B1F5B47FFADC411A0029FC
:10053000B8BF4942B429C8BFC1F5B4716423C1F141
:10054000B40103FB01F1044AC81782FB01321144D4
:10055000C0EBE110704700BFB7600BB6094B30B479
:10056000DA68196882EAD24081EAC1215D689C6834
:10057000484080EA11201D605C609A60D86030BC01
:10058000704700BF00000020002804DAC34323F0B6
:100590000703083018440728C8BF00F007000122ED
:1005A00002FA00F313F0830009D113F0440F07D1CE
:1005B00013F0380F0CBF00206FF00000704710469A
:1005C000704700BF2DE9F04F00248FB0054602911F
:1005D000039401942646274604EB4401C1EB011124
:1005E0002846FFF789FF06A9B042C8BF019441F829
:1005F000240004F10104C8BF0646082C0744EBD1CF
:1006000003975A3D00224B4F05950492059B002508
:10061000B32B96BF0499DDF81090C1F15F09B9F1D1
:100620002F0FD4BF0023012303F101085A00134404
:1006300008EB48081E014FEA08184FEA490A02E091
:100640000135302D59D00AEB090305EB031357F898
:1006500023305A1CF4D0DB07F2D5029A002A54D179
:10066000019A0EA901EB820353F820BC019A0BEB0F
:100670004B0BD01EFFF788FF019B0446581EFFF767
:1006800083FF2D494FEA4B0B81FB0B134FEAEB71B4
:10069000C1EBE3010029D3DD01FB045301FB009210
:1006A0006442404203E0013923440244C8D02F2B66
:1006B000F9D8B242F7DB02EB420C424503EB0C1CCB
:1006C000F1DA57F82CB0BBF1FF3FECD01BF0010F73
:1006D000E9D118490AEB090305EB031351F823206C
:1006E000013522F0010241F8232051F82C30302D41
:1006F00043F0010341F82C30A5D1049A0132602A5D
:10070000049283D10FB0BDE8F08FFFF727FF039A63
:10071000B0FBF2F303FB120005AA002302E0013351
:10072000082B9DD052F8041F401A0028F7DC8B4696
:1007300001939BE7B41B0020E1830F3E45F2555324
:1007400010B400EA030403EA60031C4443F23330AC
:1007500004EA000100EA9400014440F60F7201EA45
:10076000020302EA11121344D8B200EB13205DF821
:10077000044B7047012181402DE9F04F4E4A8FB064
:1007800014785578927800EBC00008924B4A002309
:100790008000DFF82CA107930B94099501F1FF3934
:1007A00004900A93059313605360059BDC0003EBF0
:1007B000430B03F001024FEA4B0BE51D00230C94A1
:1007C000CDF808B00D9506920393039B002403EB2C
:1007D000430601947600A3460094019D029A4FF0CF
:1007E0000008154405EB45052D0108EB06072F44CD
:1007F0005AF8274008F10108002C04EA09000EDB32
:10080000FFF79CFF04F0010303EB44042C4AA4B25D
:10081000834442F8274013B1009B01330093B8F1A1
:10082000060FE2D1019C0134062C0194D5D1059B21
:10083000072B3BDC079C009D2C4407940B9D099AD9
:10084000089B05FB0BF40BFB02F00BFB03F1049D73
:10085000069A94FBF5F490FBF5F091FBF5F1E4B208
:10086000C0B2C9B2F2B10D9B039D5A1B039D013268
:1008700001350395134B134D02EB42021344AC5464
:10088000039A5870082A99709FD1059D0135102D43
:1008900005958AD1094B079A0A9C1A605C600FB0D3
:1008A000BDE8F08F039A0C9B1A44DFE70A9A009B7D
:1008B0001A440A92C2E700BFB01B0020800100204A
:1008C000B41B002098010020F0B401EB410102EBC1
:1008D000420200260F4D4C004FEA420C374606EB11
:1008E0000C0101EB41010901002213190B4455F8D9
:1008F00023300132B3F1FF3F18BF03F001039842E8
:1009000008BF0137062AF0D10136062EE7D1384656
:10091000F0BC7047B41B00202DE9F00302EB42024B
:1009200003EB4303DDF818C0174D57004FEA4308A7
:100930004FF0000909EB080606EB460636010022D7
:1009400001E0062A18D0D419331955F823300132A2
:10095000B3F1FF3F18BF03F001039842F1D1BCF19E
:10096000010C0ED4344455F82430062A23F0010338
:100970000B4445F82430E6D109F10109B9F1060F1D
:10098000D8D1BDE8F0037047B41B00202DE9F04F2B
:10099000A0F12D03B3F5877F85B075D9B0F59E7FA3
:1009A000A8BFA0F5B4704FF0FF322D302F23404E7A
:1009B000DFF808A1DFF80891039201904FF07E570D
:1009C0004FF001083022029301991546C1F15A03F4
:1009D00038494FF0000B01EB83031C69584601F0C6
:1009E0006DF9214601F0BEF9514601F0BBF94946C7
:1009F00001F0B0F801F07CFB2F280BF1010B0AD8B5
:100A000005EB45032C4A00EB031052F8203043F06D
:100A1000020342F82030BBF1300F4544DED12549B6
:100A2000019ADFF894A001EB8203D3F81090DDF86F
:100A300008800024039D02E0302CA84421D02046E9
:100A400001F03CF9494601F08DF9394601F08AF987
:100A5000314601F07FF801F04BFB5F2804F10104FF
:100A6000EAD8B8F12F0FE7D800EB400008EB0010F0
:100A70005AF82030302C43F002034AF82030A844C2
:100A8000DDD105B0BDE8F08FA0F18803582BF8D870
:100A90000122873800230392084F094E4FF07E5AF7
:100AA0004FF0000901904FF0FF382F2202938BE79F
:100AB0000000404200000020B41B0020000080BF66
:100AC00000003C4270B53B4B04461D68586882B03C
:100AD0000E46284401F0F2F8314601F043F906468B
:100AE000284601F0EBF80146304601F031F801F0FC
:100AF000FFFA002C054607DA14F5B474FCD4B4F5FB
:100B0000B47F04DBA4F5B474B4F5B47FFADAA4F1CD
:100B10002E03B3F5867F01D9002D2CDBA4F18703CA
:100B20005A2B26D8002D24DD072108220120FFF7AB
:100B3000CBFE0646002001460722FFF7C5FE86428F
:100B4000B8BF3046A842B8BF0546002101200722A1
:100B500008230095FFF7E0FE0020009502460121E2
:100B60000723FFF7D9FE204602B0BDE87040FFF72B
:100B70000DBF02B070BD002107220120FFF7A4FEC7
:100B80000721064608220020FFF79EFE6D4286429E
:100B9000B8BF3046A842B8BF054600210A4601202A
:100BA00007230095FFF7B8FE0095002001210722DA
:100BB0000823D6E780010020FEE700BF0F49104B55
:100BC00010B499420BD2C843184420F003000D4CD6
:100BD00004300023E258CA5004338342FAD10A4851
:100BE0000A494FF000028842B8BF40F8042BFFF6D4
:100BF000FAAF5DF8044B00F00BB800BF0000002016
:100C0000800100203C21000880010020B463002006
:100C100010B500F0CDF900F0C9FA00F02DF900F0A0
:100C200057F900F097F900F0A9F9FFF77DFB0A49A1
:100C30000A4B28201E24002208704C708A7003F290
:100C400083100A2103F8012C1A7059700333834270
:100C5000F8D1FFF725FCFEE7B01B0020990100202A
:100C600070B54FF08040012100F04CFD00B970BD1F
:100C70004FF08040012100F051FD6D4B6D4C5A69E1
:100C800082F400425A612368032B00F2BC80DFE843
:100C900003F0718F26026268664B312A40F3AC8004
:100CA0009E68654D013E182E9E600ADC286800F0A3
:100CB000A7FE5BA3D3E9002300F042FD00F0F4FEA1
:100CC00028606B685C4A013B032BD8BF0423002ECD
:100CD000536021DA0023A360236063601CE0564D5B
:100CE0004FF07E56286800F08BFE4FA3D3E9002317
:100CF00000F028FD00F0D8FE6B6828600133182B47
:100D0000C8BF18236B60314601F0E8F920B1032217
:100D1000002384E80C002E60E368464A0133012B6F
:100D2000E3606DDD0023D360A0684FF0FF31FFF773
:100D300049FCA0682968FFF7C5FEA0680021FFF7FD
:100D400041FC686800EBD0704010FFF713FDFFF71F
:100D5000A7FBA36840F6845202FB03F33749DA1776
:100D600081FB03010B44C2EBE313354A03F24B430F
:100D7000536370BD304D0026286800F041FE2AA361
:100D8000D3E9002300F0DCFC00F08EFE6B682860E5
:100D90000133182BC8BF18236B60314601F080F96E
:100DA0000028B9D0012200232E6084E80C00B3E7AC
:100DB0006268204B312A1FDD9E681F4D01369B2E35
:100DC0009E600ADD286800F01BFE15A3D3E900230E
:100DD00000F0B8FC00F068FE28606B68164A013B22
:100DE000032BD8BF0423B42E536095DD02210022CB
:100DF000B42384E80E008FE701325A600E4D8BE772
:100E0000002B9ED190E70C4D00234FF07E51022223
:100E100029606A60A360236063607DE7AFF30080B0
:100E20007B14AE47E17A543F7B14AE47E17A643FCE
:100E3000000C02408801002078010020B7600BB64A
:100E400000080040AFF30080044B1A6B19B922EA86
:100E50000000186370471043186370470038024061
:100E6000044B1A6C19B922EA000018647047104349
:100E7000186470470038024070B5144C82B00820E6
:100E80000121FFF7E1FF4FF4604600232046694649
:100E9000032201258DF806308DF807308DF80520E6
:100EA00000968DF8045000F00BF920460C21022228
:100EB00000F066F94FF48052022320466946009202
:100EC0008DF8043000F0FCF802B070BD000C024058
:100ED00030B5012085B00146FFF7C2FF002440F283
:100EE0008F1340F69F7201A94FF080400293ADF836
:100EF0000420ADF80640ADF80C408DF80E4000F02F
:100F00003FFB4FF08040012100F096FB01210A4693
:100F10000F4D4FF0804000F0EBFB04200121FFF764
:100F20009FFF292249F63F4301A92846ADF8042036
:100F30000293ADF80640ADF80C408DF80E4000F07D
:100F40001FFB2846012100F077FB05B030BD00BF34
:100F50000008004000B583B001231C21002201A835
:100F60008DF804108DF805208DF806308DF80730C7
:100F700000F0CAFA03B05DF804FB00BF70B50B4C7B
:100F800086B002220023204601A970260125ADF873
:100F900010200393ADF80460ADF8065000F05AFB42
:100FA0002046082100F09CFB06B070BD0008004000
:100FB0002DE9F00F0024DFF804B186B0204604EBE1
:100FC000440109010023CA180133302B4BF82200D9
:100FD000F9D10134602CF2D10C2304934FF0FF358A
:100FE00000230293049B12330593029BDDF81480C7
:100FF0002A33DDF810900026039308EB48031B0109
:1010000009F1300A08F130040AEB4A0A04EB4404FF
:1010100009EB49000193029A039B4FEA0A1A240143
:101020000001002100EB020C4BF82C50DDF804C04D
:10103000C7184BF827509C440AEB020701314BF8C4
:101040002C50B1424BF8275004EB020C04EB030781
:101050004BF82C5002F106024BF82750A3F106037F
:10106000E0DD0136032EA9F1060908F10608C4D116
:10107000029B0133062B0293B7D1049B0133122B41
:101080000493ADD100270D4E3C46012507EB4700E8
:1010900000010023C2185BF82210013329B9B4F50E
:1010A0004F7FBCBF013446F82250302BF2D10137BC
:1010B000302FEBD106B0BDE8F00F7047B41B002015
:1010C00000222DE9F00713460E6801274FF00308B0
:1010D00004E00133102B02F102022DD007FA03F4D1
:1010E00004EA0605A542F4D108FA02F491F804C016
:1010F000D0F800900CFA02FAE44304EA0909C0F8B7
:101100000090D0F800900CF1FF3C4AEA0909BCF1CC
:10111000010FC0F8009012D991F807C0C5680CFA09
:1011200002FC2C40C460C56801334CEA0504102B56
:10113000C46002F10202D1D1BDE8F007704791F816
:10114000059091F806C009FA02F90CFA03FCD0F8F0
:1011500008A01FFA8CFC04EA0A0AC0F808A0D0F81C
:1011600008A049EA0A09C0F80890D0F8049029EAD2
:101170000505456045684CEA05054560CCE700BFBC
:1011800001F0070310B49B000F249C4002FA03F304
:10119000C90800EB8100026A22EA04040462026AC0
:1011A0005DF8044B13430362704700BF374B0021C7
:1011B0001A6810B442F001021A6099601868344C41
:1011C00020F0847020F4803018605C60186883B070
:1011D00020F480201860D9600091019119681A46A6
:1011E00041F48031196003E0009BB3F5A06F09D092
:1011F000136803F400330193009B01330093019BB8
:10120000002BF1D0214B1B6813F4003318BF0123CE
:101210000193019B012B07D01E4B4FF000629A6097
:1012200003B05DF8044B7047184B1B4A196C1B4800
:1012300041F0805119641468194644F480441460E4
:101240009A689A609A6842F400429A609A6842F4F6
:10125000A0529A6058601A6842F080721A600B6857
:101260000A4A9B01FBD50E4B40F205611960936859
:10127000114623F003039360936843F002039360E5
:101280008B6803F00C03082BFAD1C5E70038024045
:101290001030002400ED00E00070004008544007CA
:1012A000003C024010B4374A0468002324F00104D3
:1012B000212190420460036043608360C360036146
:1012C00041614DD0304B984235D0304B984239D0A7
:1012D0002F4B98423DD02F4B984247D02E4B9842EF
:1012E00048D02E4B98421DD02D4B98421ED02D4BEE
:1012F000984243D02C4B98421DD02C4B984221D081
:101300002B4B984225D02B4B98422FD02A4B9842FA
:1013100030D02A4B984205D0294B984206D05DF830
:10132000044B7047274A43F8942CF8E74FF03D529E
:1013300043F8AC2CF3E74FF4746243F8202C5DF8CB
:10134000044B70474FF4741243F8382C5DF8044B8B
:1013500070474FF0746243F8502C5DF8044B7047AF
:10136000194B3D229A605DF8044B7047174A43F8C9
:10137000642CD4E7164A43F87C2CD0E73D2243F88E
:10138000082CCCE710600240286002404060024018
:10139000586002407060024088600240A0600240D5
:1013A000B860024010640240286402404064024079
:1013B000586402407064024088640240A0640240A5
:1013C000B864024000003D20006002403D00002063
:1013D000400F00200A6870B4CC684B6944EA0205EB
:1013E0008A691D43CB6915430A6A1D434B6A15433D
:1013F0008A6A2B434D6B8C6B06681A430A4B154364
:101400002C433340234303600A6BCB6A46690D6962
:101410004C6826F0070689681343334343614560EF
:101420008460C16070BC70473F801CF0036819B9CC
:1014300023F001030360704743F00103036070472A
:101440000B060CD54369AAB143F0800380294361A0
:101450000FD0036801F01E01194301607047802915
:1014600007D0002AF5D1036801F01E0123EA01012B
:101470000160704723F0800380294361F3D17047F6
:1014800070B4114A114D124C21F0F02323F0C31611
:10149000A84288BF224696B1046804F01E0404EAFC
:1014A000D12489004CBF5268126823F0821313EADA
:1014B000020002D0201C18BF012070BC7047446994
:1014C00004F08004EDE700BF006002400F640240BA
:1014D0000064024010B4094A094C0A4BA0428CBF78
:1014E0001046184611F0005F21F0F02121F0821122
:1014F00014BFC16081605DF8044B70470064024016
:101500000F64024000600240C37810B463B90378EE
:10151000012103F01F0291405B09174A203342F872
:1015200023105DF8044B7047144B4478DB680F229E
:10153000DB43C3F30223C3F10401C9B204FA01F18E
:1015400042FA03F38478C9B203EA040203780A4337
:10155000120103F16043D2B203F5614383F8002323
:101560000378012103F01F029140034A5B0942F80E
:1015700023105DF8044B704700E100E000ED00E04F
:10158000234A0388904270B49BB212D002F5806265
:1015900090420ED0B0F1804F0BD0A2F58032904235
:1015A00007D002F58062904203D002F5806290423B
:1015B00003D14A8823F070031343164A90421ED089
:1015C00002F5806290421AD00E8923F440734D6870
:1015D0000C889BB202F56C42334390420380C56293
:1015E000048506D00C4B984203D070BC0123838243
:1015F00070478B7A70BC0386012383827047038017
:101600000B884A6870BCC2620385012383827047DD
:10161000000001400010004000040140038829B987
:1016200023F080031B041B0C038070479BB243F024
:1016300080030380704700BF038829B923F00103AA
:101640001B041B0C038070479BB243F00103038013
:10165000704700BF038CF0B423F001031B041B0C84
:101660000384028C8D8984884F88038B2F4322F05A
:10167000020223F07303144D12041B040E88120C93
:10168000BFB21B0CA84247EA0202A4B243EA060317
:101690000AD005F58065A84206D089688480038356
:1016A000F0BC416302847047CE894F8A0D8A22F0D4
:1016B000080232433D438E8824F4407422F0040231
:1016C000ADB232432C43E8E7000001400023038021
:1016D0004380838083608381C38103824382704718
:1016E000038B23F008031B041B0C19430183704771
:1016F00083899BB21AB923EA01018181704719439A
:1017000081817047038A828911EA030092B203D073
:1017100011420CBF00200120704700BFC94389B2AD
:101720000182704783899BB21AB923EA0101818142
:10173000704719438181704781F0004102E000BF8A
:1017400083F0004330B54FEA41044FEA430594EA81
:10175000050F08BF90EA020F1FBF54EA000C55EABC
:10176000020C7FEA645C7FEA655C00F0E2804FEA8D
:101770005454D4EB5555B8BF6D420CDD2C4480EA6F
:10178000020281EA030382EA000083EA010180EA9F
:10179000020281EA0303362D88BF30BD11F0004FED
:1017A0004FEA01314FF4801C4CEA113102D0404223
:1017B00061EB410113F0004F4FEA03334CEA13335E
:1017C00002D0524263EB430394EA050F00F0A78076
:1017D000A4F10104D5F1200E0DDB02FA0EFC22FA71
:1017E00005F2801841F1000103FA0EF2801843FA65
:1017F00005F359410EE0A5F120050EF1200E012A56
:1018000003FA0EFC28BF4CF0020C43FA05F3C01893
:1018100051EBE37101F0004507D54FF0000EDCF10C
:10182000000C7EEB00006EEB0101B1F5801F1BD3B5
:10183000B1F5001F0CD349085FEA30004FEA3C0CB9
:1018400004F101044FEA445212F5800F80F09A80AF
:10185000BCF1004F08BF5FEA500C50F1000041EBB3
:10186000045141EA050130BD5FEA4C0C404141EBB7
:10187000010111F4801FA4F10104E9D191F0000FDE
:1018800004BF01460020B1FA81F308BF2033A3F161
:101890000B03B3F120020CDA0C3208DD02F1140C58
:1018A000C2F10C0201FA0CF021FA02F10CE002F193
:1018B0001402D8BFC2F1200C01FA02F120FA0CFC8C
:1018C000DCBF41EA0C019040E41AA2BF01EB0451D5
:1018D000294330BD6FEA04041F3C1CDA0C340EDCD3
:1018E00004F11404C4F1200220FA04F001FA02F316
:1018F00040EA030021FA04F345EA030130BDC4F1D4
:101900000C04C4F1200220FA02F001FA04F340EAC8
:101910000300294630BD21FA04F0294630BD94F079
:10192000000F83F4801306BF81F480110134013D60
:101930004EE77FEA645C18BF7FEA655C29D094EAD1
:10194000050F08BF90EA020F05D054EA000C04BF4F
:101950001946104630BD91EA030F1EBF002100203A
:1019600030BD5FEA545C05D14000494128BF41F0D9
:10197000004130BD14F580043CBF01F5801130BD3D
:1019800001F0004545F0FE4141F470014FF00000C8
:1019900030BD7FEA645C1ABF194610467FEA655C79
:1019A0001CBF0B46024650EA013406BF52EA03351B
:1019B00091EA030F41F4002130BD00BF90F0000F09
:1019C00004BF0021704730B54FF4806404F1320445
:1019D0004FF000054FF0000150E700BF90F0000FFE
:1019E00004BF0021704730B54FF4806404F1320425
:1019F00010F0004548BF40424FF000013EE700BFF5
:101A000042004FEAE2014FEA31014FEA02701FBF84
:101A100012F07F4393F07F4F81F06051704792F056
:101A2000000F14BF93F07F4F704730B54FF46074D0
:101A300001F0004521F0004120E700BF50EA01021B
:101A400008BF704730B54FF000050AE050EA0102C8
:101A500008BF704730B511F0004502D5404261EB38
:101A600041014FF4806404F132045FEA915C3FF479
:101A7000DCAE4FF003025FEADC0C18BF03325FEA12
:101A8000DC0C18BF033202EBDC02C2F1200300FAC7
:101A900003FC20FA02F001FA03FE40EA0E0021FAEC
:101AA00002F11444C1E600BF4FEA4102B2F1E04343
:101AB00024BFB3F5001CDCF1FE5C0DD901F0004C35
:101AC0004FEAC0024CEA5070B2F1004F40EB830085
:101AD00008BF20F00100704711F0804F21D113F1B1
:101AE0003872BCBF01F00040704741F480114FEAEA
:101AF0005252C2F11802C2F1200C10FA0CF320FA73
:101B000002F018BF40F001004FEAC1234FEAD3238F
:101B100003FA0CFC40EA0C0023FA02F34FEA4303F9
:101B2000CCE77FEA625307D150EA01331EBF4FF082
:101B3000FE4040F44000704701F0004040F0FE409D
:101B400040F40000704700BF80F0004002E000BF9A
:101B500081F0004142001FBF5FEA410392EA030F98
:101B60007FEA226C7FEA236C6AD04FEA1262D2EBE2
:101B70001363C1BFD218414048404140B8BF5B42E7
:101B8000192B88BF704710F0004F40F4000020F080
:101B90007F4018BF404211F0004F41F4000121F096
:101BA0007F4118BF494292EA030F3FD0A2F10102E0
:101BB00041FA03FC10EB0C00C3F1200301FA03F11E
:101BC00000F0004302D5494260EB4000B0F5000F41
:101BD00013D3B0F1807F06D340084FEA310102F100
:101BE0000102FE2A51D2B1F1004F40EBC25008BFB2
:101BF00020F0010040EA03007047490040EB00007C
:101C000010F4000FA2F10102EDD1B0FA80FCACF1AA
:101C1000080CB2EB0C0200FA0CF0AABF00EBC250A9
:101C200052421843BCBFD0401843704792F0000F97
:101C300081F4000106BF80F400000132013BB5E7EA
:101C40004FEA41037FEA226C18BF7FEA236C21D060
:101C500092EA030F04D092F0000F08BF08467047C5
:101C600090EA010F1CBF0020704712F07F4F04D193
:101C7000400028BF40F00040704712F100723CBFA6
:101C800000F50000704700F0004343F0FE4040F4D0
:101C9000000070477FEA226216BF08467FEA23638E
:101CA0000146420206BF5FEA412390EA010F40F479
:101CB000800070474FF0000304E000BF10F00043C5
:101CC00048BF40425FEA000C08BF704743F09643AC
:101CD00001464FF000001CE050EA010208BF7047C7
:101CE0004FF000030AE000BF50EA010208BF70474E
:101CF00011F0004302D5404261EB41015FEA010C63
:101D000002BF84460146002043F0B64308BFA3F15A
:101D10008053A3F50003BCFA8CF2083AA3EBC2533C
:101D200010DB01FA02FC634400FA02FCC2F120025B
:101D3000BCF1004F20FA02F243EB020008BF20F092
:101D40000100704702F1200201FA02FCC2F12002F8
:101D500050EA4C0021FA02F243EB020008BF20EAED
:101D6000DC7070474FF0FF0C1CEAD0521EBF1CEA1B
:101D7000D15392EA0C0F93EA0C0F6FD01A4480EA09
:101D8000010C400218BF5FEA41211ED04FF00063F2
:101D900043EA501043EA5111A0FB01310CF000401E
:101DA000B1F5000F3EBF490041EAD3715B0040EA44
:101DB000010062F17F02FD2A1DD8B3F1004F40EB14
:101DC000C25008BF20F00100704790F0000F0CF0E7
:101DD000004C08BF49024CEA502040EA51207F3AAB
:101DE000C2BFD2F1FF0340EAC250704740F4000086
:101DF0004FF00003013A5DDC12F1190FDCBF00F077
:101E000000407047C2F10002410021FA02F1C2F124
:101E1000200200FA02FC5FEA310040F1000053EAC0
:101E20004C0308BF20EADC70704792F0000F00F00E
:101E3000004C02BF400010F4000F013AF9D040EA14
:101E40000C0093F0000F01F0004C02BF490011F4A8
:101E5000000F013BF9D041EA0C018FE70CEAD153A6
:101E600092EA0C0F18BF93EA0C0F0AD030F0004C26
:101E700018BF31F0004CD8D180EA010000F00040DA
:101E8000704790F0000F17BF90F0004F084691F098
:101E9000000F91F0004F14D092EA0C0F01D14202D2
:101EA0000FD193EA0C0F03D14B0218BF084608D19B
:101EB00080EA010000F0004040F0FE4040F40000E5
:101EC000704740F0FE4040F4400070474FF0FF0C78
:101ED0001CEAD0521EBF1CEAD15392EA0C0F93EABF
:101EE0000C0F69D0A2EB030280EA010C49024FEA11
:101EF000402037D04FF0805343EA111143EA1013CA
:101F00000CF000408B4238BF5B0042F17D024FF481
:101F1000000C8B4224BF5B1A40EA0C00B3EB510F5C
:101F200024BFA3EB510340EA5C00B3EB910F24BF45
:101F3000A3EB910340EA9C00B3EBD10F24BFA3EBCA
:101F4000D10340EADC001B0118BF5FEA1C1CE0D192
:101F5000FD2A3FF650AF8B4240EBC25008BF20F045
:101F6000010070470CF0004C4CEA50207F32C2BF99
:101F7000D2F1FF0340EAC250704740F400004FF036
:101F80000003013A37E792F0000F00F0004C02BF67
:101F9000400010F4000F013AF9D040EA0C0093F031
:101FA000000F01F0004C02BF490011F4000F013B8B
:101FB000F9D041EA0C0195E70CEAD15392EA0C0FF3
:101FC00008D142027FF47DAF93EA0C0F7FF470AF2B
:101FD000084676E793EA0C0F04D14B023FF44CAF6E
:101FE00008466EE730F0004C18BF31F0004CCAD103
:101FF00030F000427FF45CAF31F000437FF43CAF3F
:102000005FE700BF4FF0FF3C06E000BF4FF0010C60
:1020100002E000BF4FF0010C4DF804CD4FEA400242
:102020004FEA41037FEA226C18BF7FEA236C11D08C
:1020300001B052EA530C18BF90EA010F58BFB2EB3F
:10204000030088BFC81738BF6FEAE17018BF40F0BF
:10205000010070477FEA226C02D15FEA402C05D173
:102060007FEA236CE4D15FEA412CE1D05DF8040BF8
:10207000704700BF844608466146FFE70FB5FFF78B
:10208000C9FF002848BF10F1000F0FBD4DF808ED43
:10209000FFF7F4FF0CBF012000205DF808FB00BF34
:1020A0004DF808EDFFF7EAFF34BF012000205DF88E
:1020B00008FB00BF4DF808EDFFF7E0FF94BF0120DB
:1020C00000205DF808FB00BF4DF808EDFFF7D2FFD8
:1020D00094BF012000205DF808FB00BF4DF808ED1B
:1020E000FFF7C8FF34BF012000205DF808FB00BFE8
:1020F0004FEA4002B2F1FE4F0FD34FF09E03B3EB15
:1021000012620DD94FEA002343F0004310F0004F54
:1021100023FA02F018BF404270474FF000007047AA
:1021200012F1610F01D1420205D110F0004008BF49
:0C2130006FF0004070474FF00000704757
:10213C00170000003800000059000000580400008F
:10214C0000000000295C8F3C4DF30E3D62A1563D12
:10215C00BB278F3D3333B33DAB3ED73D917EFB3D2B
:10216C003BDF0F3E9C33223EFD87343ECB10473E77
:10217C00D0B3593E0D716C3E80487F3E302A893E6B
:10218C0058CA923EB6849C3E4B59A63E1748B03E68
:10219C00355EBA3E8A8EC43E17D9CE3E1058D93E13
:1021AC0041F1E33EE0BEEE3ED0B3F93E986E023F05
:1021BC007E1D083F9BE60D3F7DD0133F95D4193F04
:1021CC0072F91F3F143F263F08AC2C3F4F40333F62
:1021DC00E7FB393FEEEB403F4703483F0E4F4F3F85
:1021EC0042CF563F728A5E3F9D80663F52B86E3F2B
:1021FC001D38773F0000803F448B843F6744893F04
:10220C0024288E3F4F40933FE78C983F34119E3FDC
:10221C00C3D3A33F23DBA93FE02DB03FFBCBB63F9D
:10222C00D6C5BD3F711BC53FA1D6CC3FC807D53F16
:10223C0074B5DD3F79E9E63FC7BAF03F7A36FB3F2C
:10224C001D3803407D3F094077BE0F4011C7164033
:10225C000A681E40F5B926400AD72F406ADE39407D
:10226C0009F944406D56514090315F40BADA6E40E6
:10227C0079588040A69B8A40158C964090A0A4402B
:10228C004A7BB540A60ACA405BB1E3400E4F0241FF
:10229C00FB3A1841B1E13641ABCF644118A69841E5
:1022AC002417E541F62865420000803F020000003B
:0400000508000000EF
:00000001FF
