:020000040800F2
:10000000706D0020F5030008F1030008F1030008FB
:10001000F1030008F1030008F103000800000000EC
:10002000000000000000000000000000F1030008D4
:10003000F103000800000000F1030008F1030008CC
:10004000F1030008F1030008F1030008F1030008C0
:10005000F1030008F1030008E92E00082D2F000825
:10006000712F0008B52F0008F1030008F103000804
:10007000F1030008F1030008F10300088D0F0008E8
:10008000F1030008F1030008F1030008F103000880
:10009000F1030008F1030008F1030008F103000870
:1000A000F1030008F1030008F1030008F103000860
:1000B000992D0008F1030008F1030008F10300087E
:1000C000F1030008F1030008F1030008F103000840
:1000D000F1030008F1030008F1030008F103000830
:1000E000F1030008F1030008F1030008F103000820
:1000F000F1030008F1030008F1030008F103000810
:10010000F1030008F1030008F1030008F1030008FF
:10011000F1030008F1030008F1030008F1030008EF
:10012000F1030008F1030008F1030008F1030008DF
:10013000F1030008F1030008F1030008F1030008CF
:10014000F1030008F1030008F1030008F1030008BF
:10015000F1030008F1030008F1030008F1030008AF
:10016000F1030008F1030008F1030008F10300089F
:10017000F1030008F1030008F1030008F10300088F
:10018000F1030008F103000808B53C4B984224D065
:100190003B4B98422BD03B4B984232D03A4B984243
:1001A00039D03A4B984240D0394B984247D0394BDE
:1001B00098424ED0384B984255D0384B984200D098
:1001C00008BD01214FF4807000F076FC00214FF44F
:1001D0008070BDE8084000F06FBC0121084600F0C7
:1001E0006BFC00210120BDE8084000F065BC012146
:1001F000022000F061FC00210220BDE8084000F070
:100200005BBC0121042000F057FC00210420BDE864
:10021000084000F051BC0121082000F04DFC0021F5
:100220000820BDE8084000F047BC0121102000F084
:1002300043FC00211020BDE8084000F03DBC012136
:10024000202000F039FC00212020BDE8084000F00B
:1002500033BC0121402000F02FFC00214020BDE8EC
:10026000084000F029BC0121802000F025FC00217D
:100270008020BDE8084000F01FBC00BF0000024025
:100280000004024000080240000C0240001002403E
:100290000014024000180240001C024000200240EE
:1002A00000222DE9F0471346D1F800E001274FF076
:1002B000030C04E00133102B02F1020229D007FAEB
:1002C00003F434EA0E05F5D1D0F800800E790CFA6B
:1002D00002F5ED4308EA0508C0F80080D0F8009068
:1002E00006FA02FA013E4AEA0909012E0CFA02F85E
:1002F000C0F800900FD9C568CC7925EA0805C5601B
:10030000C568944001332C43102BC46002F10202F3
:10031000D5D1BDE8F087866891F8059035408560B5
:1003200086688D7909FA02F949EA06068660466808
:1003300026EA04044460466805FA03F4A4B2344390
:100340004460D8E700234FF6FF72026003714371E7
:100350008371C371704700BF82B04FF48033019343
:10036000019B0B430193019BC361C161019BC3616D
:10037000C3690193C369019302B0704703691942CD
:1003800014BF012000207047006980B2704700BF91
:100390004369194214BF012000207047406980B2B0
:1003A000704700BF01837047418370470AB941839A
:1003B00070470183704700BF4161704743695940EE
:1003C00041617047CB0800EB830001F0070110B4D6
:1003D0008900046A0F238B4024EA03030362036A43
:1003E0005DF8044B8A4042EA03010162704700BF96
:1003F000FEE700BF104A114B9A420CD2D04318447A
:1004000020F003000E4B0430184453F8041B42F84C
:10041000041B8342F9D10B480B494FF0000288427C
:10042000B8BF40F8042BFADBDFF82000016841F484
:100430007001016002F006BE00000020AC01002047
:1004400024350008AC0100206C65002088ED00E038
:1004500002683749002310B422F0010221248842A7
:100460000260036043608360C360036144614DD0F8
:10047000304B984235D0304B984239D02F4B984270
:100480003DD02F4B984247D02E4B984248D02E4B10
:1004900098421DD02D4B98421ED02D4B984243D0F0
:1004A0002C4B98421DD02C4B984221D02B4B98427C
:1004B00025D02B4B98422FD02A4B984230D02A4B34
:1004C000984205D0294B984206D05DF8044B7047FE
:1004D000274A43F8942CF8E74FF03D5243F8AC2CF0
:1004E000F3E74FF4746243F8202C5DF8044B704737
:1004F0004FF4741243F8382C5DF8044B70474FF0FA
:10050000746243F8502C5DF8044B7047194B5DF84A
:10051000044B3D229A607047174A43F8642CD4E795
:10052000164A43F87C2CD0E73D2243F8082CCCE750
:100530001060024028600240406002405860024063
:100540007060024088600240A0600240B8600240D3
:100550001064024028640240406402405864024033
:100560007064024088640240A0640240B8640240A3
:1005700000003D20006002403D000020400F0020B0
:1005800001F11802F0B48CCACD680E684C692E4394
:10059000264316431E434A6A8B6A4D6B8C6B3E435F
:1005A00016431E430B4A0368CF6A35432C431A4057
:1005B000224302600B6B42690D694C6889683B43BA
:1005C00022F007021343436145608460C160F0BCC0
:1005D000704700BF3F801CF00023036043608360CE
:1005E000C360036143618361C361036243628362E9
:1005F000C362036343638363704700BF036819B931
:1006000023F001030360704743F001030360704768
:10061000036819B923F400430360704743F40043AF
:1006200003607047036819B923F020030360704723
:1006300043F020030360704741607047406880B218
:10064000704700BF036822B923F4002303600161EF
:10065000704743F40023036001617047036819B9D0
:1006600023F480230360704743F4802303607047C2
:100670000AB9C16070470161704700BF0068C0F3EC
:10068000C0407047006800F001007047406900F00A
:10069000380070470B4B0C4A10B40C4CA04294BF6E
:1006A000184610468B004CBF436803685DF8044B46
:1006B00021F0F02121F08211194214BF0120002005
:1006C000704700BF00600240006402400F640240B7
:1006D0000B060CD54369AAB143F08003802943611E
:1006E0000FD0036801F01E01194301607047802993
:1006F00007D0002AF5D1036801F01E0123EA0101A9
:100700000160704723F0800380294361F3D1704773
:1007100070B4104A104E114C21F0F02323F0C31591
:10072000B04298BF14468DB1006800F01E0000EA88
:10073000D12289004CBF6068206823F082131840E2
:1007400002D0101C18BF012070BC7047406900F037
:100750008002EEE7006002400F6402400064024045
:1007600010B4094B094C0A4AA04294BF18461046DF
:1007700011F0005F21F0F02121F0821114BFC1605F
:1007800081605DF8044B7047006002400F640240D6
:1007900000640240FFF7E4BF0A4B0B481A680021CF
:1007A00042F001021A6099601A6822F0847222F401
:1007B00080321A6058601A6822F480221A60D96068
:1007C000704700BF0038024010300024024B002266
:1007D0001A701870704700BF0238024082B00023C0
:1007E0000A4A019302E0B3F5A06F08D0136813F42E
:1007F000003F019B03F101030193019BF3D0034BE5
:100800001868C0F3404002B0704700BF0038024093
:10081000034A136823F0F80343EAC00010607047EE
:1008200000380240014B1860704700BF000047428B
:10083000064B002201281A701A7005D0042802D134
:1008400005221A7070477047187070477038024060
:10085000014B1860704700BF800E474230B4029CC5
:10086000064D40EA046001435B08013B41EA821205
:1008700042EA0340686030BC704700BF0038024065
:10088000014B1860704700BF600047420907034BE7
:1008900041EA8010C3F88400704700BF003802406E
:1008A000014B1860704700BF68004742014B186059
:1008B000704700BF4C004742034A936823F0EC6343
:1008C000194308439060704700380240034A936818
:1008D00023F0784319430843906070470038024082
:1008E000034A936823F0030318439060704700BFE6
:1008F00000380240024B986800F00C00704700BFBF
:1009000000380240034A936823F0F00318439060D4
:10091000704700BF00380240034A936823F4E05355
:1009200018439060704700BF00380240034A936844
:1009300023F4604343EAC0009060704700380240EF
:1009400010B4214CA36803F00C03042B1BD0082B1C
:100950001CD01E4B03601C4A1D499468C4F3031449
:100960000C5DE34043609468C4F382240C5D23FA79
:1009700004F4846092685DF8044BC2F342328A5CEE
:10098000D340C3607047134B0360E4E7636861685A
:1009900013F4800F636818BF0E4C01F03F020CBFC8
:1009A0000A49B4FBF2F1C3F3881308BFB1FBF2F1BB
:1009B00001FB03F2044B5B68C3F3014301335B00AB
:1009C000B2FBF3F30360C6E7003802400024F400F2
:1009D0000000002040787D0100F44073B3F5407FB3
:1009E00009D108498B6820F0704223F4F81322F4EF
:1009F000407213438B60034A136FC0F30B0018431C
:100A00001067704700380240014B1860704700BF04
:100A10003C0E4742014B1860704700BF400E4742F2
:100A2000014B1860704700BF5C01474229B9054A75
:100A3000136B23EA000010637047024B1A6B1043DC
:100A4000186370470038024029B9054A536B23EAFE
:100A5000000050637047024B5A6B10435863704755
:100A60000038024029B9054A936B23EA00009063DD
:100A70007047024B9A6B10439863704700380240EE
:100A800029B9054A136C23EA000010647047024B31
:100A90001A6C1043186470470038024029B9054A9F
:100AA000536C23EA000050647047024B5A6C1043A9
:100AB000586470470038024029B9054A136923EA8F
:100AC000000010617047024B1A69104318617047AB
:100AD0000038024029B9054A536923EA00005061F1
:100AE0007047024B5A691043586170470038024002
:100AF00029B9054A936923EA000090617047024BC7
:100B00009A691043986170470038024029B9054A34
:100B1000136A23EA000010627047024B1A6A1043FE
:100B2000186270470038024029B9054A536A23EA1F
:100B3000000050627047024B5A6A10435862704777
:100B40000038024029B9054A136D23EA00001065F8
:100B50007047024B1A6D1043186570470038024009
:100B600029B9054A536D23EA000050657047024BCE
:100B70005A6D1043586570470038024029B9054A3C
:100B8000936D23EA000090657047024B9A6D104305
:100B9000986570470038024029B9054A136E23EA68
:100BA000000010667047024B1A6E104318667047BB
:100BB0000038024029B9054A536E23EA0000506606
:100BC0007047024B5A6E1043586670470038024017
:100BD00029B9054A137823EA000010707047024BC8
:100BE0001A781043187070470D3802404309012BE2
:100BF0000BD0022B094B0CBF1B6F5B6F00F01F006B
:100C000023FA00F000F001007047044B1B6800F06D
:100C10001F0023FA00F000F0010070470038024086
:100C2000024A536F43F080735367704700380240A5
:100C3000034BDB68184214BF01200020704700BF3F
:100C400000380240014B1870704700BF0E38024058
:100C5000F0B5104C83B001210420FFF7E7FE4026D9
:100C60000123204602250022694603278DF806202D
:100C70008DF8073000968DF804508DF80570FFF759
:100C80000FFB66832A4620460621FFF79BFB03B035
:100C9000F0BD00BF0008024070B5012188B0184DBA
:100CA0000220FFF7EDFE01214FF40010FFF7BEFE1A
:100CB00000246823694628460193ADF80040ADF84A
:100CC0000840ADF8024000F09DFD03A800F05EFF73
:100CD0000126602303A92846ADF80C300594ADF831
:100CE0001840ADF80E6000F049FE2846082100F0DB
:100CF000ABFF3146284600F00DFE08B070BD00BFC6
:100D000000040040034B0449002223F8022F8B42C9
:100D1000FBD17047D2040020621D002000B50122E3
:100D200083B04FF400710A4801F066FA00230F21E6
:100D3000012201A88DF804108DF805308DF80630D9
:100D40008DF8072000F084FA03B05DF804FB00BFC3
:100D500000040040F0B5174C174D91B0002120461B
:100D6000FFF74CFC2046FFF773FB20464FF0206353
:100D7000124C0193402240F648410023029503940F
:100D80000492059101224FF480674FF400664FF4FE
:100D900000554FF4403401A906930A930C930E9327
:100DA0000F930797089609950B940D92FFF7E8FBB0
:100DB00011B0F0BD7060024034040040D404002043
:100DC00038B5094D094B01242846224610211C60E4
:100DD000FFF77EFC21462846FFF710FC2146044819
:100DE000BDE8384000F0BCBD70600240D004002077
:100DF0000004004070B5144E144C154D00223260B2
:100E0000234623F8022FAB42FBD1124B002203F200
:100E100083111A705A709A7003338B42F9D1FFF71D
:100E200017FFFFF739FFFFF779FFFFF793FF002365
:100E300024F8023FAC42FBD13368002BFDD1BDE862
:100E40007040FFF7BDBF00BFD0040020D2040020D7
:100E5000621D00204C030020F0B5DFF810E1414E88
:100E6000734600274C211D2240F6184C75783478C3
:100E7000B07815F0800F0CBF2EF817202EF8171041
:100E800015F0400F0CBF5A80598015F0200F0CBF91
:100E90009A80998015F0100F0CBFDA80D98015F078
:100EA000080F0CBF1A81198115F0040F0CBF5A816D
:100EB000598115F0020F0CBF9A819981ED0754BF3B
:100EC000DA81D981250654BF1A821982650654BF7A
:100ED0005A825982A50654BF9A829982E50654BF68
:100EE000DA82D982250754BF1A831983650754BF54
:100EF0005A835983A50754BF9A839983E50754BF42
:100F0000DA83D983040654BF1A841984450654BF72
:100F10005A845984840654BF9A849984C50654BF60
:100F2000DA84D984040754BF1A851985450754BF4C
:100F30005A855985840754BF9A8599851837C00703
:100F400054BFDA85D985674506F1030603F13003FE
:100F50008CD1054B002103F1600223F8021F93425C
:100F6000FBD1F0BD4C030020021D0020D404002062
:100F700008B5054B1B68002BFDD1FFF76DFFBDE8E1
:100F80000840FFF71DBF00BFD004002008B50A4984
:100F90000A48FFF7BDFB70B107490848FFF7E0FBBF
:100FA0000021074800F0DCFC00210448FFF726FB85
:100FB000044B00221A6008BD2080002070600240AF
:100FC00000040040D0040020044B054900221A60B0
:100FD0005A609A60DA605961704700BF003C014076
:100FE000FFFF7F00837933B31C4B02794179F0B462
:100FF00007681E68FC4326401E605D6802F180425F
:10100000254002F59E325D6014683C43146004681C
:101010009868E54328409860DA68102902EA0502DA
:10102000DA6013D001F1804303F59E331A6814434C
:101030001C60F0BC70470379016803F1804303F53D
:101040009E331A6822EA01021A6070479A682243A6
:101050009A60DA681443DC60F0BC7047003C0140E1
:1010600000230C224271036003718371704700BF3B
:10107000024A136918431061704700BF003C0140E9
:10108000034B5B69034214BF01200020704700BF7F
:10109000003C0140014B5861704700BF003C0140DB
:1010A000054B1A685B69034004D0024214BF01205B
:1010B0000020704718467047003C0140014B5861C2
:1010C000704700BF003C014039493A4BD1F88820B5
:1010D000394842F47002C1F888201A68002142F0B1
:1010E00001021A6099601A6822F0847222F4803238
:1010F0001A6058601A6882B022F480221A60D9609F
:10110000009101911A6842F480321A601A4603E095
:10111000009BB3F5A06F09D0136803F4003301936B
:10112000009B01330093019B002BF1D0214B1B68E6
:1011300013F4003318BF01230193019B012B05D049
:101140001B4B4FF000629A6002B07047194B1B496D
:101150001A6C1B4842F080521A640A6842F48042BA
:101160000A609A689A609A6842F400429A609A68A3
:1011700042F4A0529A6058601A6842F080721A6075
:101180001A4611680B4B8901FBD50E4A40F20561E6
:1011900011609A6822F003029A609A6842F0020293
:1011A0009A601A46936803F00C03082BFAD1C7E73C
:1011B00000ED00E0003802401030002400700040D4
:1011C00008544007003C02401848836803F00C03B1
:1011D000042B28D0082B09D0154B144A15499268C6
:1011E000C2F303128A5CD3400B61704743684168C5
:1011F00013F4800F436818BF0F4801F03F020CBF83
:101200000B49B0FBF2F1C3F3881308BFB1FBF2F155
:1012100001FB03F2054B5B68C3F3014301335B0041
:10122000B2FBF3F3D9E7044BD7E700BF0038024025
:101230000024F4001000002040787D0140F0BF60E1
:10124000024B40F40030D860704700BF00ED00E072
:10125000C3785BB9037818485A09203203F01F039A
:10126000012101FA03F340F822307047134BF0B428
:10127000D9684778827804780F4EC943C1F30221B8
:10128000C1F10405EDB20F2307FA05F50B41EDB2EC
:1012900013402B4304F1604202F561421B01DBB2B3
:1012A00082F800330378012203F01F015B098A40B2
:1012B00046F82320F0BC704700E100E000ED00E0BC
:1012C00021F0604121F07F01014B08439860704795
:1012D00000ED00E0044A136919B923EA0000106127
:1012E000704718431061704700ED00E0044A13682E
:1012F00004280CBF43F0040323F004031360704779
:1013000010E000E02DE9F047504FDFF8489186B03B
:10131000012108200124FFF789FB002503264FF453
:101320006043384602A902938DF80D608DF80C4099
:101330008DF80E508DF80F50FEF7B2FF022238469E
:101340000C21FFF73FF84FF0020802A938464FF48E
:10135000805302938DF80C80FEF7A2FF3C4B214690
:101360004FF480401D60FFF799FB0F23384602A918
:1013700002938DF80C508DF80F40FEF791FF29462F
:10138000304601F087FC2146304606AF01F082FC72
:101390004146304601F07EFC3146304601F07AFC91
:1013A00047F8084D0C2338468DF815308DF8164057
:1013B0008DF81450FFF716FE3846CDF81080FFF771
:1013C00011FE0423384606AE04934FF0080AFFF7D7
:1013D00009FE3846CDF810A0FFF704FE062306F8F4
:1013E000143D30468DF805508DF806508DF80740B5
:1013F000FFF72EFF072330468DF80430FFF728FF54
:1014000030468DF804A0FFF723FF092330468DF8FE
:101410000430FFF71DFF21462046FFF707FBB023EE
:101420000DEB0A01484602938DF80D808DF80C40B3
:101430008DF80F408DF80E50FEF732FF4846102110
:10144000FEF7B0FF06B0BDE8F08700BF000C024019
:10145000646500200000024030B5012185B00846D7
:10146000FFF70EFB002440F28F1340F69F7201A994
:101470004FF080400293ADF80420ADF80640ADF87F
:101480000C408DF80E4000F0BDF901214FF0804076
:1014900000F066FA012211460F4D4FF0804000F037
:1014A000B5FE01210420FFF7EBFA292249F63F435C
:1014B00001A92846ADF804200293ADF80640ADF826
:1014C0000C408DF80E4000F09DF92846012100F0F7
:1014D00047FA05B030BD00BF0008004000B583B03A
:1014E00001231C21002201A88DF804108DF805208D
:1014F0008DF806308DF80730FFF7AAFE03B05DF8CF
:1015000004FB00BF70B50B4C86B0022200232046BE
:1015100001A970260125ADF810200393ADF80460F1
:10152000ADF8065000F02AFA2046082100F08CFBA6
:1015300006B070BD000800402DE9F04F424B002579
:1015400085B02C4605EB45000001002281180132D0
:10155000302A43F82140F9D10135602DF2D11E2205
:1015600002924FF0FF3B029A1E324FF0000A0392A4
:101570000AF112020092DDF80C90DDF808800AF101
:101580002A020AF124070192A9F1300408F130007F
:1015900004EB440400EB400008EB480609EB490566
:1015A000019A2401000136012D01514604EB010C82
:1015B00004EB020E43F82CB043F82EB006EB020CFD
:1015C00005EB010E43F82CB043F82EB000EB010CF4
:1015D00000EB020E063A974243F82CB001F10601E7
:1015E00043F82EB0E2D1009A063F974208F1060870
:1015F000A9F10609C8D10AF1010ABAF1060FB7D15B
:10160000029A0132242A0292ADD10F4F00254FF0E9
:10161000300E01260EEB4E0424010022A1180132E7
:1016200053F8210028B9B5F54F7FBCBF47F82160BA
:101630000135302AF2D10EF1010EBEF1600FE9D171
:1016400005B0BDE8F08F00BF641D002008B5604BF9
:10165000984235D0B0F1804F3CD05E4B984243D099
:101660005D4B98424AD05D4B984251D05C4B9842BA
:1016700058D05C4B98425FD05B4B984266D05B4B36
:1016800098426DD05A4B984276D05A4B98427FD0B0
:10169000594B984200F08880584B984200F08E8059
:1016A000574B984200D008BD01214FF48070FFF7DE
:1016B0002DFA00214FF48070BDE80840FFF726BAEC
:1016C00001210846FFF730FA00210120BDE808405B
:1016D000FFF72ABA01210846FFF718FA0021012076
:1016E000BDE80840FFF712BA01210220FFF70EFA09
:1016F00000210220BDE80840FFF708BA01210420BC
:10170000FFF704FA00210420BDE80840FFF7FEB906
:1017100001210820FFF7FAF900210820BDE8084060
:10172000FFF7F4B901211020FFF7F0F90021102094
:10173000BDE80840FFF7EAB901212020FFF7E6F9EC
:1017400000212020BDE80840FFF7E0B90121022078
:10175000FFF7EAF900210220BDE80840FFF7E4B9ED
:1017600001214FF48030FFF7DFF900214FF4803082
:10177000BDE80840FFF7D8B901214FF40030FFF76A
:10178000D3F900214FF40030BDE80840FFF7CCB991
:1017900001214FF48020FFF7C7F900214FF480208A
:1017A000BDE80840FFF7C0B901214020FFF7AEF9BE
:1017B00000214020BDE80840FFF7A8B901218020A2
:1017C000FFF7A4F900218020BDE80840FFF79EB98B
:1017D000000001400004004000080040000C0040F0
:1017E000001000400014004000040140004001408F
:1017F000004401400048014000180040001C004027
:1018000000200040224A038890429BB212D002F589
:10181000806290420ED0B0F1804F0BD0A2F58032A2
:10182000904207D002F58062904203D002F58062B8
:10183000904203D14A8823F070031343154A904223
:101840001ED002F5806290421AD00A8970B423F447
:1018500040730F4C4E680D889BB21343A042038027
:10186000C662058506D00C4B984203D001238382C3
:1018700070BC70478B7A03860123838270BC7047EB
:1018800003800B884A68C262038501238382704704
:1018900000000140001000400004014000234FF010
:1018A000FF3242600380038143808372704700BF30
:1018B00001858282704700BF038823F070031B04F8
:1018C0001B0C19430180704741627047C162704729
:1018D000406A7047008D80B2704700BF038829B905
:1018E00023F002031B041B0C038070479BB243F0E0
:1018F00002030380704700BF038829B923F0040363
:101900001B041B0C038070479BB243F0040303804D
:10191000704700BF038829B923F080031B041B0C08
:10192000038070479BB243F080030380704700BF81
:10193000038823F008031B041B0C038003889BB25D
:1019400019430180704700BF038823F440731B04D0
:101950001B0C038003889BB219430180704700BFB2
:10196000038829B923F001031B041B0C0380704773
:101970009BB243F001030380704700BFF0B5048CB5
:10198000B1F80CC04B880F881A4E24F001042404CF
:10199000240C0484058CB0F804E0048B25F00205C7
:1019A00024F073022D042D0C4CEA030312042B4384
:1019B000120CB0429BB21FFA8EF442EA070208D022
:1019C0000D4DA84205D08968848002834163038459
:1019D000F0BDCE890F8A4D8A23F00803334324F4E7
:1019E00040748E883D4323F004032C433343A4B258
:1019F000E9E700BF0000014000040140F0B5058C9C
:101A00000C88B1F80CC0B1F802E01E4E25F01005AC
:101A10002D042D0C0584028C8788058B22F0200371
:101A20001B0425F4E6421B0C120443EA0C13120CAF
:101A300043EA0E1342EA0422B0429BB2BDB294B212
:101A400008D0114A904205D08A6885800483826359
:101A50000384F0BD23F08002CB890F8A8E8892B276
:101A600042EA03124FF6BF73134025F440654A8AD9
:101A700045EA870543EA061345EA82059BB2ADB203
:101A8000E2E700BF0000014000040140F0B5058C12
:101A9000B1F80CC0B1F802E00C881D4F25F4807538
:101AA0002D042D0C0584028C8688858B22F400730E
:101AB0001B0425F073021B0C43EA0C23120443EAB7
:101AC0000E23120CB8429BB2B5B244EA020408D00D
:101AD000104A904205D08A6885808483C26303845B
:101AE000F0BD23F40062CB890F8A8E8892B242EA5D
:101AF00003224FF6FF33134025F440554A8A45EA46
:101B0000071543EA062345EA02159BB2ADB2E2E7A8
:101B10000000014000040140028CB1F802C022F430
:101B200080521204120C2DE9F041B1F80C80B1F88A
:101B300000E00284058C8788828B124E25F40054C5
:101B400022F4E6432404240C1B0444EA08341B0C4E
:101B500044EA0C3443EA0E23B042A4B2BAB29BB2B8
:101B600009D0094DA84206D0896882808383016428
:101B70000484BDE8F0810D8A22F4804242EA851295
:101B800092B2F1E70000014000040140002303800D
:101B90004380838083608381C38103824382704753
:101BA00010B4048C0123A4B28B4024EA030321F077
:101BB0000804038418307CB10439C1F34E0148F69F
:101BC000FF730C5823400B5012020B585DF8044B66
:101BD00092B21A430A50704749084FF68F730C5857
:101BE00023400B500B585DF8044B1A430A507047C2
:101BF0004163704781637047C163704701647047F8
:101C0000038B23F070031B041B0C194301837047E3
:101C1000038B23F4E0431B041B0C43EA012189B22C
:101C200001837047838B23F070031B041B0C194343
:101C300081837047838B23F4E0431B041B0C43EA2E
:101C4000012189B281837047038B23F008031B04B1
:101C50001B0C194301837047038B23F400631B049F
:101C60001B0C43EA012189B201837047838B23F067
:101C700008031B041B0C194381837047838B23F4D7
:101C800000631B041B0C43EA012189B28183704766
:101C9000038B23F004031B041B0C194301837047BF
:101CA000038B23F480631B041B0C43EA012189B2DC
:101CB00001837047838B23F004031B041B0C19431F
:101CC00081837047838B23F480631B041B0C43EADE
:101CD000012189B281837047038B23F080031B04A9
:101CE0001B0C194301837047038BC3F30E0343EAB4
:101CF000012189B201837047838B23F080031B0489
:101D00001B0C194381837047838BC3F30E0343EA93
:101D1000012189B281837047038C23F002031B04E5
:101D20001B0C194301847047038C23F008031B0428
:101D30001B0C194301847047038C23F020031B0400
:101D40001B0C43EA011189B201847047038C23F014
:101D500080031B041B0C43EA011189B20184704704
:101D6000038C23F400731B041B0C43EA012189B28A
:101D700001847047038C23F400631B041B0C43EAAB
:101D8000012189B201847047038C23F400531B04A2
:101D90001B0C43EA013189B20184704710B4048CF2
:101DA00001238B40A4B224EA03040484038C5DF86D
:101DB000044B8A4013439BB20384704710B4048CD5
:101DC00004238B40A4B224EA03040484038C5DF84A
:101DD000044B8A4013439BB2038470470B88F0B5D1
:101DE000002B32D0042B57D0082B00F08380028CBC
:101DF0004F88B1F804E00E89CD8822F48052120495
:101E0000120C0284848B028C24F4407122F400535F
:101E100009055B04090D5B0C41EA0E2143EA073317
:101E200041EA06319BB243F4805389B28183038433
:101E3000828B22F440621204120C8283838B9BB249
:101E400043EA05239BB28383F0BD028C4E888D88C4
:101E50000B89CC8822F001021204120C0284028B3E
:101E6000018C92B222F0F30221F00A0142EA03133C
:101E7000090446F001029BB2090C2B431143038372
:101E80000184038B23F00C031B041B0C0383038BC3
:101E90009BB223430383F0BD058C4F888E88B1F835
:101EA00008E0CC8825F010010904090C0184028B9C
:101EB000018C22F440731B051B0D8AB243EA0E33DA
:101EC00022F0A0029BB242EA071243EA062392B232
:101ED0009BB242F0100203830284038B23F440631D
:101EE0001B041B0C0383038B9BB243EA04239BB2AA
:101EF0000383F0BD068C4F888D880A89CC8826F430
:101F000080710904090C0184818B038C89B29BB216
:101F100021F0F30123F4206341EA021243EA07238C
:101F200092B29BB243F480732A4382830384838BEF
:101F300023F00C031B041B0C8383838B9BB21C4379
:101F40008483F0BD00230122828003804380C3800C
:101F500003817047B1F802C00B88F0B5B1F804E016
:101F6000BCF1000F0CBF02240024BEF1010F0CBF16
:101F700002250125002B4BD0038C0E89C98823F044
:101F800010031B041B0C0384028B078C22F4407388
:101F90001B05BAB21B0D43EA063322F0A0029BB226
:101FA00042EA0C1243EA0E2392B29BB242F01002B4
:101FB00003830284038B23F440631B041B0C038301
:101FC000038B9BB243EA01239BB20383038C23F070
:101FD00001031B041B0C0384028B078C92B222F0BA
:101FE000F302BFB242EA061327F00A029BB242F0A4
:101FF00001022B43144303830484038B23F00C035B
:102000001B041B0C0383038B9BB219430183F0BD9C
:10201000038C0F89CE8823F001031B041B0C03845F
:10202000018B038C89B221F0F30123F00A0341EA0A
:1020300007111B044CF0010289B21B0C13434EEA3A
:10204000010EA0F818E00384038B23F00C031B049B
:102050001B0C0383038B9BB233430383038C23F05A
:1020600010031B041B0C0384028B018C22F44073AD
:102070001B051B0D8AB243EA073322F0A0029BB274
:1020800042F0100243EA052342EA04140383048465
:10209000038B23F440631B041B0C0383038B9BB251
:1020A00043EA0626B6B20683F0BD00BF406B704718
:1020B000806B7047C06B7047006C7047038B23F0D8
:1020C0000C031B041B0C0383038B9BB2194301837A
:1020D000704700BF038B23F440631B041B0C038376
:1020E000038B9BB243EA012189B20183704700BF91
:1020F000838B23F00C031B041B0C8383838B9BB209
:1021000019438183704700BF838B23F440631B0412
:102110001B0C8383838B9BB243EA012189B28183A9
:10212000704700BFF0B54B88B1F800E08F88CE88CB
:102130000D894C898A894EEA03033B4333432B4381
:10214000234313439BB2A0F84430F0BD0023038027
:1021500043808380C380038143818381704700BFB4
:10216000B0F8443021B9C3F30E03A0F844307047EF
:102170006FEA43436FEA53439BB2A0F84430704781
:10218000838829B923F004031B041B0C8380704748
:102190009BB243F004038380704700BF838829B952
:1021A00023F001031B041B0C838070479BB243F098
:1021B00001038380704700BF81827047038A194200
:1021C00014BF012000207047C94389B201827047C3
:1021D000038A828911EA030092B203D0114214BF2C
:1021E00001200020704700BFC94389B201827047B7
:1021F0000A43A0F84820704783899BB21AB923EAA2
:10220000010181817047194381817047FFF7F4BF55
:10221000838829B923F008031B041B0C83807047B3
:102220009BB243F008038380704700BF038923F00B
:1022300007031B041B0C0381704700BF038923F0B5
:1022400070031B041B0C1943018103899BB243F0EB
:1022500007030381704700BF602930B4048C24D089
:1022600024F001042404240C0484048B058CA4B2FF
:1022700024F0F304ADB244F0010425F00A0544EA69
:10228000031345F001049BB22243038302840389B4
:1022900023F070031B041B0C0B43038103899BB2C7
:1022A00043F00703038130BC704724F0100424047A
:1022B000240C0484048B058C24F440742405ADB2F2
:1022C000240D25F0A00544F4807445F0100544EA7F
:1022D000033345EA02129BB292B203830284D6E72B
:1022E00010B4048942EA0323E4B223439BB21943A6
:1022F000018103895DF8044B23F077031B041B0C59
:1023000043F077030381704710B4048942EA032342
:10231000E4B223439BB21943018103895DF8044B66
:102320009BB243F480430381704700BF038923F0CD
:1023300070031B041B0C194301817047838823F031
:1023400070031B041B0C838083889BB2194381801C
:10235000704700BF038923F007031B041B0C038194
:1023600003899BB219430181704700BF038923F0A1
:1023700080031B041B0C038103899BB21943018159
:10238000704700BF10B40489E4B221430A4342EA13
:10239000032399B201815DF8044B704770B406893C
:1023A000048B058C24F4407424F00304ADB225F0B2
:1023B000220526F0070624042A433604240C360C92
:1023C00044F4807442EA0313314344F001049AB2A6
:1023D00001810483028470BC704700BF838829B9DF
:1023E00023F080031B041B0C838070479BB243F0D7
:1023F00080038380704700BFA0F85010704700BF73
:102400002DE9F04F674B95B01A780F925A780E92DB
:1024100001228240511E9B78634A0C93002300EBFB
:10242000C00011930B9312930D93089313605360A4
:102430000723019113938100062310910593089AB5
:1024400002F001030993D3000693139B0793059BA6
:10245000063B4FF0060B0A930A9B03934FF00009CB
:10246000ABF10603CDF808900493039B049F03EBA4
:10247000430A4FEA0A1A0AEB070C4C48019B50F832
:102480002C0045F2555603EA000E31464FEA6E081D
:1024900008EA06060EEA0101314443F233352A46C2
:1024A0008E100D4032402A44111140F60F7440F650
:1024B0000F730B4000941440234400F001011C12E0
:1024C00001EB4002002807F1010754FA83F392B2AE
:1024D00007DB9944354B43F82C2011B1029B0133A3
:1024E0000293BB45C7D1039B059A01339A420393DC
:1024F000BBD1089B072B43DC0D9B029A13440D9321
:1025000001231293069A0798099C29491346002C27
:1025100018BF034601320138013303EB4303079030
:10252000069223480F9A109C194402FB09F20BF102
:10253000060B92FBF4F2C2540E9B0C9ABBF1360FC1
:1025400003FB09F302FB09F993FBF4F399FBF4F99C
:102550004B7081F802907FF47FAF059A089B06329A
:102560000592139A01330832102B089313927FF4CB
:1025700066AF129B5BB9119B6BB915B0BDE8F08FCC
:102580000B9B029A13440B9301231193BAE7064B5A
:102590000D9A1A60EFE7044B0B9A5A6015B0BDE82C
:1025A000F08F00BF68650020AC010020641D002092
:1025B0004C03002000281EDA10F5B470FCD400296A
:1025C0001FDA11F5B471FCD4401A0028B8BF40429C
:1025D000B428C8BFC0F5B47064230C4AC0F1B4007D
:1025E00003FB00F082FB00230344C017C0EBE310A1
:1025F0007047A0F5B470B0F5B47FFADCDFE7A1F561
:10260000B471B1F5B47FFADCDEE700BFB7600BB69A
:10261000094BD96818685A6810B480EAC0201A605B
:1026200081EAD14242409C685C6082EA1020996055
:10263000D8605DF8044B7047240000200028B8BF24
:1026400040427047031E16DADA4322F007020833CD
:102650001344012000FA03F313F083020AD113F0AC
:10266000440F06D113F0380F14BF4FF0FF30002095
:10267000704710467047072BC8BF03F00703E8E711
:102680002DE9F04F95B00025044603912F46A8464A
:102690002E4605EB4501C1EB01112046FFF78AFFED
:1026A0000CABB042C8BFA84643F8250005F10105B0
:1026B000C8BF0646082D0744EBD16F4B09971B682E
:1026C00002936D4B6D4F5B6804936B4B9B68059356
:1026D000694BDB6800934FF00009A4F15A030B9398
:1026E000CDF82090CDF81890CDF81C90CDF828901A
:1026F0000B9BB32B0A9B98BFC3F15F030193019A15
:102700002F2A1346D4BF002301235E0003F1010AE0
:102710000AEB4A0A334402EB420B1E014FEA0A1A43
:102720004FEA0B1B002502E00135302D54D00BEB96
:10273000050357F823305A1CF6D0DB07F4D5039B6A
:10274000002B66D114AB03EB880353F8201CA8F1CF
:102750000300FFF777FF044608F1FF30FFF772FF31
:10276000474B01EB4101490083FB0132CB17C3EB1F
:10277000E203002BD8DD019903FB045203FB001197
:1027800005E0013BA2EB0402A1EB0001CCD02F2A13
:10279000F7D8B142F5DB01EB410E514502EB0E1EBD
:1027A000EFDA57F82EC0BCF1FF3FEAD01CF0010F62
:1027B000E7D10BEB0502314B304953F8223023F0BF
:1027C000010341F8223051F82E30013543F0010366
:1027D000302D41F82E30AAD10A9B0133602B0A9389
:1027E00086D1079B13B1244B029A1A60069B13B142
:1027F000214B049A5A60089B13B11F4B059A9A60AB
:10280000B9F1000F02D01C4B009ADA6015B0BDE898
:10281000F08F029B099983EAC320009B83EAD3438C
:10282000434083EA10200BACB0FBF1F3002201FB24
:10283000130354F8041F5B1A002B17DD0132082A1A
:10284000F7D1049B029314AB03EB88034FF001090B
:1028500053F8201C059B0493009BCDF82090059312
:10286000CDF818900090CDF81C9070E7049B02936F
:102870004FF001099046EDE724000020641D002080
:10288000E1830F3E8842A8BF0846704710B445F266
:10289000555400EA040104EA60040B1943F2333191
:1028A00003EA010201EAA301531840F60F7203EA9A
:1028B000020002EA23128318181250FA83F05DF81E
:1028C000044B704701EB410102EB4202F0B54900B5
:1028D00052000F4E02F1060C8F1D4FF0000E02EB5E
:1028E00042052D010C462B19013456F82330B3F163
:1028F000FF3F18BF03F00103984208BF0EF1010E1D
:10290000BC42F0D101326245E9D17046F0BD00BF52
:10291000641D00202DE9F04302EB420203EB430368
:102920004FEA420C5B00079A144F03F106080CF1C2
:10293000060E03EB43063601654602E00135754598
:1029400017D0741957F82440B4F1FF3F18BF04F0B2
:102950000104A042F2D1013A06EB05090CD457F864
:102960002940013524F001040C44754547F82940FD
:10297000E7D101334345DCD1BDE8F083641D00207D
:10298000431C18BF00F00100704700BF012303FA89
:1029900000F00138704700BFA0F12D03B3F5877F29
:1029A000F0B567D9B0F59E7FA8BFA0F5B470DFED94
:1029B0003B6ADFED3B5A00F12D0EB7EE006ABFEE29
:1029C000005A01274FF0FF3630222F25DFF8DCC0F8
:1029D0003448CEF15A030CEB830393ED047A0021C3
:1029E00007EE901AF8EEE77AF0EE654A67EE877A1E
:1029F00002EB4204E7EE854A01313A44FDEEE47A07
:102A000017EE903A2F2B03EB041405D850F824301E
:102A100043F0020340F824303029E1D10CEB8E0062
:102A200090ED047A1F4C2946002202E0302A3144FE
:102A30001FD007EE902AF8EEE77AF0EE665A67EEBE
:102A4000877A0132E7EE865AFDEEE57A17EE903A84
:102A50005F2BEBD803EB43032F2901EB0313E5D8DE
:102A600054F82300302A40F0020044F82300314497
:102A7000DFD1F0BDA0F18803582BFAD8DFED086A4A
:102A8000DFED095AA0F1870EBFEE006AB7EE005ADB
:102A90004FF0FF3701262F22002597E70000404224
:102AA00000003C42641D00200000000024000020C3
:102AB000624A136852681A4407EE902AB8EEE77A21
:102AC00007EE903AF8EEE77AF0B5D7EE007A041EFA
:102AD00083B0FDEEE77A17EE905A69DA14F5B47414
:102AE000FCD4A4F12E03B3F5867F01D9002D63DB5E
:102AF000A4F187035A2B43D8002D46DD50493027D7
:102B0000002607EB470000012A23C218013351F8C1
:102B10002220B2F1FF3F02D0D20748BF0136302B4E
:102B2000F3D10137362FECD14FF02A0E00270EEBF0
:102B30004E0000010023C218013351F82220B2F1E7
:102B4000FF3F02D0D20758BF0137062BF3D10EF159
:102B5000010EBEF1300FEAD1B542A8BF3546BD42E5
:102B6000A8BF3D4608230722002101200095FFF75A
:102B7000D1FE00220095104607230121FFF7CAFE6F
:102B8000002D02DD2046FFF707FF2E4A84FB0223BB
:102B9000E218E317C3EBE213B42202FB1344002C48
:102BA0000CBF28464FF0FF3003B0F0BDA4F5B4745D
:102BB000B4F5B47FFADA94E72149C5F1000E2A2072
:102BC000002700EB40052D010023EA18013351F8DE
:102BD0002220561C02D0D60748BF0137062BF4D15D
:102BE00001303028EDD14FF0000C00EB40063601EB
:102BF0002A23F218013351F82220551C03D0D207A2
:102C000058BF0CF1010C302BF3D101303628ECD138
:102C1000BE457546A8BF3D466545A8BF654600222E
:102C20001146009507230120FFF774FE0095082345
:102C3000072201210020FFF76DFEA1E7AC01002073
:102C4000641D0020B7600BB65F290CD82F280AD866
:102C500001EB410100EB0111034A52F8213043F02E
:102C6000020342F821307047641D002008B501219D
:102C70004FF48040FDF758FF00214FF48040BDE83D
:102C80000840FDF751BF00BF014B1860704700BFFF
:102C90000038014001F0FC0303F1804303F59C334D
:102CA00001F0030110B489009C680F228A4024EAD5
:102CB00002029A609A685DF8044B8840104398605D
:102CC000704700BF014B1860704700BFDC0027420F
:102CD000014B1860704700BF00042742024B186A7E
:102CE000C0F30020704700BF003801400000000022
:102CF0002DE9F04180460E46642410212548FDF759
:102D000053FB013CF9D12546802747FA05F313EA26
:102D1000080F4FF080011F4839D0FDF743FB6424B2
:102D200020211C48FDF73EFB013CF9D16424202101
:102D30001848FDF739FB013CF9D10135082DE4D1E4
:102D4000802747FA04F333424FF0800111481BD02B
:102D5000FDF728FB642520210E48FDF723FB013DEC
:102D6000F9D1642520210B48FDF71EFB013DF9D167
:102D70000134082CE5D1642410210648FDF712FB2C
:102D8000013CF9D1BDE8F081FDF70EFBE2E7FDF76C
:102D90000BFBC4E70000024070B501214FF08040FA
:102DA000FFF716FA00B970BD01214FF08040FFF720
:102DB0001BFA4749474A4B6983F400434B61136848
:102DC000002B02DD1368013B1360434B19681C465E
:102DD00003F5C67243F8041F9342FBD1D4F88C610B
:102DE0003E4D782E4ADC3B2E12DCD5ED017AF5EE15
:102DF000C07AF1EE10FA0BDD17EE900A00F0EEFA51
:102E000031A3D3E9002300F089F900F03BFB6860AF
:102E1000AB68324A002B4DD0012B45D123682E4A96
:102E2000B32B01DC0233136030464FF0FF31FFF764
:102E300027FC0021D4F88C01FFF722FC95ED010A54
:102E4000D4F88C01FFF734FEEB68286003EBD370F5
:102E50004010FFF7D5FAFEF78BF82068204A214989
:102E600040F6741303FB00F382FB03021A44DB17E2
:102E7000C3EBE21303F22F734B6370BDD5ED017A00
:102E8000B7EE007AF4EEC77AF1EE10FAC0D517EE7D
:102E9000900A00F0A3FA0CA3D3E9002300F040F954
:102EA00000F0F0FA6860B3E700230021516023606E
:102EB0009360B9E72368084A002BB5DD023B136035
:102EC000B2E700BFAFF30080158C4AEA0434613FDB
:102ED000000C024064650020B40100209C01002029
:102EE000B7600BB60008004008B50120FEF7D8F81F
:102EF00000B908BD0120FEF7E1F8094B1A68002A65
:102F0000F7D10A2207491A604B69074A83F48043C4
:102F10004B61936803F0010383F00103936008BDE4
:102F200064650020000C02409C01002008B50220CE
:102F3000FEF7B6F800B908BD0220FEF7BFF8094B4E
:102F40001A68002AF7D10A2207491A604B69074A12
:102F500083F480434B61936803F0010383F0010322
:102F6000936008BD64650020000C02409C010020B5
:102F700008B50420FEF794F800B908BD0420FEF758
:102F80009DF8094B1A68002AF7D10A2207491A60EE
:102F90004B69074A83F480434B61936803F0010354
:102FA00083F00103936008BD64650020000C0240BB
:102FB0009C01002008B50820FEF772F800B908BD92
:102FC0000820FEF77BF8094B1A68002AF7D10A227D
:102FD00007491A604B69074A83F480434B61936841
:102FE00003F0010383F00103936008BD64650020D2
:102FF000000C02409C0100200649074A4B6983F4FB
:1030000080434B61936803F0010383F001039360F5
:10301000704700BF000C02409C01002040F6741372
:10302000064A074903FB00F082FB00320244C01746
:10303000C0EBE21000F22F7048637047B7600BB628
:103040000008004038B5FEF73FF8FEF775FA142483
:103050004FF0FF310020FFF713FB013CF8D1FEF7E2
:1030600051F9FEF7F9F9FEF739FAFEF74BFAFDF7D9
:10307000C1FE2549254B8C701E20282548700D70F7
:10308000224603F283100A211A705A709970033392
:103090008342F9D100210C20FFF72AFE00210920EC
:1030A000FFF726FE05210A20FFF722FE07210B204D
:1030B000FFF71EFE01210C20FFF71AFE00210D2054
:1030C000FFF716FE124D2C680021012074B1FFF7A6
:1030D0000FFE00210220FFF70BFEF0210320FFF777
:1030E00007FE2C6800210120002CF0D1F0210120E6
:1030F000FFF7FEFD21460220FFF7FAFD21460320DF
:10310000FFF7F6FDDFE700BF686500204C030020F5
:103110009C01002081F0004102E000BF83F00043E9
:1031200030B54FEA41044FEA430594EA050F08BF62
:1031300090EA020F1FBF54EA000C55EA020C7FEA26
:10314000645C7FEA655C00F0E2804FEA5454D4EBA3
:103150005555B8BF6D420CDD2C4480EA020281EA6D
:10316000030382EA000083EA010180EA020281EAA5
:103170000303362D88BF30BD11F0004F4FEA0131F7
:103180004FF4801C4CEA113102D0404261EB410106
:1031900013F0004F4FEA03334CEA133302D052428C
:1031A00063EB430394EA050F00F0A780A4F1010448
:1031B000D5F1200E0DDB02FA0EFC22FA05F2801882
:1031C00041F1000103FA0EF2801843FA05F3594168
:1031D0000EE0A5F120050EF1200E012A03FA0EFCE7
:1031E00028BF4CF0020C43FA05F3C01851EBE37111
:1031F00001F0004507D54FF0000EDCF1000C7EEB2E
:1032000000006EEB0101B1F5801F1BD3B1F5001F6B
:103210000CD349085FEA30004FEA3C0C04F101048A
:103220004FEA445212F5800F80F09A80BCF1004FB3
:1032300008BF5FEA500C50F1000041EB045141EA35
:10324000050130BD5FEA4C0C404141EB010111F436
:10325000801FA4F10104E9D191F0000F04BF0146E1
:103260000020B1FA81F308BF2033A3F10B03B3F1BF
:1032700020020CDA0C3208DD02F1140CC2F10C024F
:1032800001FA0CF021FA02F10CE002F11402D8BFAD
:10329000C2F1200C01FA02F120FA0CFCDCBF41EA79
:1032A0000C019040E41AA2BF01EB0451294330BD48
:1032B0006FEA04041F3C1CDA0C340EDC04F1140425
:1032C000C4F1200220FA04F001FA02F340EA0300FC
:1032D00021FA04F345EA030130BDC4F10C04C4F142
:1032E000200220FA02F001FA04F340EA0300294622
:1032F00030BD21FA04F0294630BD94F0000F83F46C
:10330000801306BF81F480110134013D4EE77FEA4E
:10331000645C18BF7FEA655C29D094EA050F08BF9A
:1033200090EA020F05D054EA000C04BF194610467B
:1033300030BD91EA030F1EBF0021002030BD5FEABF
:10334000545C05D14000494128BF41F0004130BDE7
:1033500014F580043CBF01F5801130BD01F000453B
:1033600045F0FE4141F470014FF0000030BD7FEAAE
:10337000645C1ABF194610467FEA655C1CBF0B46A9
:10338000024650EA013406BF52EA033591EA030FC0
:1033900041F4002130BD00BF90F0000F04BF0021B8
:1033A000704730B54FF4806404F132044FF00005EB
:1033B0004FF0000150E700BF90F0000F04BF002164
:1033C000704730B54FF4806404F1320410F00045CA
:1033D00048BF40424FF000013EE700BF42004FEAC5
:1033E000E2014FEA31014FEA02701FBF12F07F4342
:1033F00093F07F4F81F06051704792F0000F14BF3F
:1034000093F07F4F704730B54FF4607401F0004582
:1034100021F0004120E700BF50EA010208BF7047D9
:1034200030B54FF000050AE050EA010208BF7047CE
:1034300030B511F0004502D5404261EB41014FF437
:10344000806404F132045FEA915C3FF4DCAE4FF03B
:1034500003025FEADC0C18BF03325FEADC0C18BF22
:10346000033202EBDC02C2F1200300FA03FC20FA73
:1034700002F001FA03FE40EA0E0021FA02F11444C0
:10348000C1E600BF4FEA4102B2F1E04324BFB3F509
:10349000001CDCF1FE5C0DD901F0004C4FEAC002CB
:1034A0004CEA5070B2F1004F40EB830008BF20F0AF
:1034B0000100704711F0804F21D113F13872BCBF69
:1034C00001F00040704741F480114FEA5252C2F1BE
:1034D0001802C2F1200C10FA0CF320FA02F018BF07
:1034E00040F001004FEAC1234FEAD32303FA0CFC5A
:1034F00040EA0C0023FA02F34FEA4303CCE77FEAE9
:10350000625307D150EA01331EBF4FF0FE4040F432
:103510004000704701F0004040F0FE4040F40000E1
:04352000704700BF31
:103524000000000001020304010203040607080965
:10353400000000000000000001020304060708095F
:10354400007A030A17000000380000005900000048
:103554005804000000000000295C8F3C4DF30E3D30
:1035640062A1563DBB278F3D3333B33DAB3ED73DC0
:10357400917EFB3D3BDF0F3E9C33223EFD87343E74
:10358400CB10473ED0B3593E0D716C3E80487F3E10
:10359400302A893E58CA923EB6849C3E4B59A63E78
:1035A4001748B03E355EBA3E8A8EC43E17D9CE3E29
:1035B4001058D93E41F1E33EE0BEEE3ED0B3F93EB1
:1035C400986E023F7E1D083F9BE60D3F7DD0133F62
:1035D40095D4193F72F91F3F143F263F08AC2C3F86
:1035E4004F40333FE7FB393FEEEB403F4703483F53
:1035F4000E4F4F3F42CF563F728A5E3F9D80663FDB
:1036040052B86E3F1D38773F0000803F448B843FA3
:103614006744893F24288E3F4F40933FE78C983F6F
:1036240034119E3FC3D3A33F23DBA93FE02DB03F1A
:10363400FBCBB63FD6C5BD3F711BC53FA1D6CC3F22
:10364400C807D53F74B5DD3F79E9E63FC7BAF03F17
:103654007A36FB3F1D3803407D3F094077BE0F405B
:1036640011C716400A681E40F5B926400AD72F40F4
:103674006ADE394009F944406D56514090315F404B
:10368400BADA6E4079588040A69B8A40158C9640E1
:1036940090A0A4404A7BB540A60ACA405BB1E3406F
:1036A4000E4F0241FB3A1841B1E13641ABCF6441C0
:1036B40018A698412417E541F6286542FFFFFFFF4D
:0C36C4000000803FFFFFFFFF040000003B
:0400000508000000EF
:00000001FF
