:020000040800F2
:100000008022002005020008610200086102000849
:10001000610200086102000861020008000000009F
:100020000000000000000000000000006102000865
:10003000610200080000000061020008610200087F
:100040006102000861020008610200086102000804
:1000500061020008610200089513000861020008AF
:1000600061020008610200086102000861020008E4
:1000700061020008411200086102000875110008C1
:10008000B91100086102000861020008610200085D
:1000900061020008610200086102000861020008B4
:1000A00061020008610200086102000861020008A4
:1000B0006102000861020008610200086102000894
:1000C0006102000861020008610200086102000884
:1000D0006102000861020008610200086102000874
:1000E0006102000861020008610200086102000864
:1000F000610200086102000861020008FD110008A9
:100100006102000861020008610200086102000843
:100110006102000861020008610200086102000833
:100120006102000885120008C91200086102000877
:100130005113000861020008610200086102000812
:100140006102000861020008610200086102000803
:10015000610200080D130008610200086102000836
:1001600061020008610200086102000861020008E3
:1001700061020008610200086102000861020008D3
:10018000610200086102000890B484B000AF02462A
:100190000B46FA71BB710023FB60BB7903F00303CC
:1001A0009B000F2202FA03F3FB60154BBA79920809
:1001B000D2B21349B8798008C0B2023051F8200099
:1001C000F968C9430140023243F822100C4BBA7956
:1001D0009208D2B20A49B8798008C0B2023051F808
:1001E0002000FC79B97901F00301890004FA01F1DA
:1001F0000143023243F822101037BD4690BC7047CD
:100200000038014080B582B000AF104B7B60104BCE
:100210003B6007E03B681A1D3A607A68111D7960FF
:1002200012681A603A680B4B9A42F3D30A480B499A
:100230004FF000028842B8BF40F8042BFFF6FAAF37
:1002400001F01CF90837BD4680BD00BF64220008DC
:10025000000000200000002000000020801A002084
:1002600080B400AFFEE700BF80B582B000AF0123CD
:10027000FB700023BB70344B00221A60334B00220A
:100280001A70334B00221A60324B00221A60324B34
:1002900000221A70314B82221A60304B82225A603F
:1002A0002E4B82229A602D4B8222DA602B4B8222C7
:1002B0001A612A4B82225A61284B82229A61274B6B
:1002C0008222DA6100F0A2F90023BB7000237B6078
:1002D0001AE023497A6813465B0013440B4400225A
:1002E0001A701F497A6813465B0013440B440022BE
:1002F0005A701B497A6813465B0013440B44002272
:100300009A707B6801337B607B68812BE1D9BB7875
:1003100043F00103BB70BB78002B01D100230EE03A
:1003200000F046FC00F082FC00F012FF00F0EAFE54
:1003300000F0E2FC00F046F900F056F9FB781846B0
:100340000837BD4680BD00BF140000200800002013
:10035000040000200C0000200000002018000020F5
:10036000F818002080B582B000AF03463960FB71F9
:10037000FB7903F00103002B03D00120396800F062
:10038000E1F8FB7903F00203002B03D00220396867
:1003900000F0D8F8FB7903F00403002B03D003200E
:1003A000396800F0CFF8FB7903F00803002B03D085
:1003B0000420396800F0C6F8FB7903F01003002B25
:1003C00003D00520396800F0BDF8FB7903F0200365
:1003D000002B03D00620396800F0B4F8FB7903F055
:1003E0004003002B03D00720396800F0ABF8FB79FD
:1003F0005BB2002B03DA0820396800F0A3F8083755
:10040000BD4680BD80B500AF304B1B78002B00D1BE
:100410005AE02E4B1B7803F00103002B04D001207F
:1004200000F056F800F078F8284B1B7803F0020330
:10043000002B04D0022000F04BF800F06DF8234BA5
:100440001B7803F00403002B04D0032000F040F8D5
:1004500000F062F81D4B1B7803F00803002B04D05A
:10046000042000F035F800F057F8184B1B7803F023
:100470001003002B04D0052000F02AF800F04CF8FF
:10048000124B1B7803F02003002B04D0062000F051
:100490001FF800F041F80D4B1B7803F04003002BD0
:1004A00004D0072000F014F800F036F8074B1B7852
:1004B000DBB25BB2002B04DA082000F009F800F090
:1004C0002BF8024B00221A7080BD00BF00000020F4
:1004D00080B483B000AF0346FB710A4B00221A7050
:1004E000FB79012B09D1074B01221A70064B074AF1
:1004F0001A60074B1A68074B1A600C37BD465DF847
:10050000047B70470800002010000020F81800202D
:10051000180000200400002080B500AF074B1B78B6
:10052000002B00D109E000BF054B1B68002BFBD15D
:10053000002000F085F800F08FFA80BD0800002050
:100540001400002080B584B000AF03463960FB7111
:10055000FB791846FFF7BCFF164B1B78002B00D128
:1005600025E00023FB600EE0134B1968FA68134680
:100570005B0013440B443A461188927819809A70B4
:10058000FB680133FB600D4B1B68FA689A42EBD3A2
:10059000084B1B78013B012202FA03F3DAB2084B45
:1005A0001B78DBB21343DBB2DAB2054B1A7010379B
:1005B000BD4680BD0800002010000020040000207F
:1005C0000000002080B500AF00F020F80120FFF708
:1005D0007FFF00BF034B1B68002BFBD100F03CFAF0
:1005E00080BD00BF1400002080B582B000AF0023A2
:1005F0003B7100237B710023BB71FF207968FFF7FB
:10060000B1FEFFF7FFFE0837BD4680BD80B483B062
:1006100000AF00237B6007E0084B7A68002123F8D5
:1006200012107B6801337B607B68B3F5466FF3D3B0
:100630000C37BD465DF8047B704700BF38000020D2
:1006400080B487B000AF0346FB71054B1B78002BCD
:1006500000F0F98100233B6100237B61C7E100BF0B
:1006600008000020AD4B19687A6913465B001344FB
:10067000CA1807F10C031188927819809A70A84B58
:100680003A691D2123F812107B7BDBB25BB2002B91
:1006900004DAA34B3A694C2123F812103B69013369
:1006A0003B619F4B3A691D2123F812107B7B03F0BD
:1006B0004003002B04D09A4B3A694C2123F81210C6
:1006C0003B6901333B61964B3A691D2123F81210B7
:1006D0007B7B03F02003002B04D0914B3A694C2123
:1006E00023F812103B6901333B618D4B3A691D21A0
:1006F00023F812107B7B03F01003002B04D0884BEF
:100700003A694C2123F812103B6901333B61844B59
:100710003A691D2123F812107B7B03F00803002B9C
:1007200004D07F4B3A694C2123F812103B69013306
:100730003B617B4B3A691D2123F812107B7B03F050
:100740000403002B04D0764B3A694C2123F8121095
:100750003B6901333B61724B3A691D2123F812104A
:100760007B7B03F00203002B04D06D4B3A694C21D4
:1007700023F812103B6901333B61694B3A691D2133
:1007800023F812107B7B03F00103002B04D0644B91
:100790003A694C2123F812103B6901333B61604BED
:1007A0003A691D2123F812103B7BDBB25BB2002BB0
:1007B00004DA5B4B3A694C2123F812103B69013390
:1007C0003B61574B3A691D2123F812103B7B03F024
:1007D0004003002B04D0524B3A694C2123F81210ED
:1007E0003B6901333B614E4B3A691D2123F81210DE
:1007F0003B7B03F02003002B04D0494B3A694C218A
:1008000023F812103B6901333B61454B3A691D21C6
:1008100023F812103B7B03F01003002B04D0404B55
:100820003A694C2123F812103B6901333B613C4B80
:100830003A691D2123F812103B7B03F00803002BBB
:1008400004D0374B3A694C2123F812103B6901332D
:100850003B61334B3A691D2123F812103B7B03F0B7
:100860000403002B04D02E4B3A694C2123F81210BC
:100870003B6901333B612A4B3A691D2123F8121071
:100880003B7B03F00203002B04D0254B3A694C213B
:1008900023F812103B6901333B61214B3A691D215A
:1008A00023F812103B7B03F00103002B04D01C4BF8
:1008B0003A694C2123F812103B6901333B61184B14
:1008C0003A691D2123F81210BB7BDBB25BB2002B0F
:1008D00004DA134B3A694C2123F812103B690133B7
:1008E0003B610F4B3A691D2123F81210BB7B03F0CB
:1008F0004003002B04D00A4B3A694C2123F8121014
:100900003B6901333B61064B3A691D2123F8121004
:10091000BB7B03F02003002B09D003E01000002074
:10092000380000204A4B3A694C2123F812103B69E9
:1009300001333B61464B3A691D2123F81210BB7B02
:1009400003F01003002B04D0414B3A694C2123F8EB
:1009500012103B6901333B613D4B3A691D2123F87D
:100960001210BB7B03F00803002B04D0384B3A690C
:100970004C2123F812103B6901333B61344B3A6937
:100980001D2123F81210BB7B03F00403002B04D0BD
:100990002F4B3A694C2123F812103B6901333B611C
:1009A0002B4B3A691D2123F81210BB7B03F0020385
:1009B000002B04D0264B3A694C2123F812103B69D6
:1009C00001333B61224B3A691D2123F81210BB7B96
:1009D00003F00103002B04D01D4B3A694C2123F88E
:1009E00012103B6901333B617B6901337B61194B19
:1009F0001B687A699A42FFF435AEFB79002B11D15E
:100A000000237B610AE0124B3A69002123F812109F
:100A10003B6901333B617B6901337B617B692F2B30
:100A2000F1D910E000237B610AE0094B3A691D21EE
:100A300023F812103B6901333B617B6901337B6111
:100A40007B692F2BF1D91C37BD465DF8047B7047BD
:100A5000380000200400002080B500AF484B1B7810
:100A6000002B00D18BE0474B01221A6000F044F9C3
:100A7000434B1B78012B09D143481021012201F07F
:100A800087F84148012101F067F860E03C4B1B7892
:100A9000022B09D13D481021012201F079F83B4891
:100AA000012101F059F852E0354B1B78032B09D195
:100AB00037481021012201F06BF83548012101F07F
:100AC0004BF844E02E4B1B78042B09D13148102100
:100AD000012201F05DF82F48012101F03DF836E0D8
:100AE000274B1B78052B09D12B481021012201F03F
:100AF0004FF82948012101F02FF828E0204B1B78FE
:100B0000062B09D125481021012201F041F8234884
:100B1000012101F021F81AE0194B1B78072B09D1AC
:100B20001F481021012201F033F81D48012101F076
:100B300013F80CE0124B1B78082B08D11948102130
:100B4000012201F025F81748012101F005F80C4BAE
:100B50001B78002B07D00A4B1B78042B03D81248B4
:100B6000012101F05DFA064B1B78042B07D9044BD9
:100B70001B78082B03D80D48012101F051FA80BDE4
:100B800008000020140000207060024088600240CD
:100B9000B860024040600240286402404064024065
:100BA000A064024070640240000400400000014064
:100BB00080B582B000AF0420012100F0D1FC4023B9
:100BC0003B6002233B7103237B710023BB71012334
:100BD000FB713B461348194600F01CFD114B4022A7
:100BE0005A8310480621022200F0A2FD08200121AC
:100BF00000F0B6FC00233B710223FB7101233B6034
:100C00003B460948194600F005FD4FF4804001219C
:100C100000F0E2FC03200021FFF7B6FA0837BD46DA
:100C200080BD00BF00080240000C024080B588B0C3
:100C300000AF0220012100F0B1FC0120012100F0F1
:100C4000CBFC4FF40010012100F08AFC4FF480002F
:100C5000012100F085FC6823BB610023BB820023D7
:100C6000BB830023FB8207F114032148194601F0DE
:100C70004DF93B46184601F06DFA60233B80012395
:100C80007B800023BB600023BB813B46184819468C
:100C900001F0E6F91648082101F07EFA1448012116
:100CA00001F09EF96823BB610123BB820023BB8353
:100CB0000023FB8207F114030E48194601F026F9C0
:100CC0003B46184601F046FA60233B8001237B80B7
:100CD0000023BB600023BB810648012101F080F99D
:100CE0000448012101F074FA2037BD4680BD00BFE1
:100CF000000400400000014080B590B000AF934B6D
:100D00001B78002B00F0E981904B1B78012B35D12B
:100D10008F48002100F020FF8D4800F0F5FD4FF0D6
:100D200020637B608B4BBB608B4BFB6040233B6144
:100D30008A4B1A6813465B001344DB0030337B6137
:100D40000023BB614FF48063FB614FF400633B629F
:100D50004FF400537B620023BB624FF44033FB62CD
:100D600000233B6301237B630023BB630023FB63FE
:100D70003B1D7748194600F099FEACE0734B1B7899
:100D8000022B35D17648002100F0E6FE744800F0D1
:100D9000BBFD4FF020637B60724BBB606E4BFB6012
:100DA00040233B616D4B5A6813465B001344DB00E4
:100DB00030337B610023BB614FF48063FB614FF4F0
:100DC00000633B624FF400537B620023BB624FF42D
:100DD0004033FB6200233B6301237B630023BB633F
:100DE0000023FB633B1D5E48194600F05FFE72E086
:100DF000564B1B78032B35D15B48002100F0ACFE2D
:100E0000594800F081FD4FF020637B60574BBB6079
:100E1000514BFB6040233B61504B9A6813465B008B
:100E20001344DB0030337B610023BB614FF48063EC
:100E3000FB614FF400633B624FF400537B6200237D
:100E4000BB624FF44033FB6200233B6301237B63AF
:100E50000023BB630023FB633B1D4348194600F09E
:100E600025FE38E0394B1B78042B34D14048002153
:100E700000F072FE3E4800F047FD4FF020637B60BB
:100E80003C4BBB60344BFB6040233B61334BDA6827
:100E900013465B001344DB0030337B610023BB61EE
:100EA0004FF48063FB614FF400633B624FF40053E7
:100EB0007B620023BB624FF44033FB6200233B6341
:100EC00001237B630023BB630023FB633B1D284896
:100ED000194600F0EBFD1D4B1B78052B50D1264821
:100EE000002100F039FE244800F00EFD4FF0406371
:100EF0007B60224BBB60184BFB6040233B61174B70
:100F00001A6913465B001344DB0030337B61002316
:100F1000BB614FF48063FB614FF400633B624FF4AD
:100F200000537B620023BB624FF44033FB6200231B
:100F30003B6301237B630023BB630023FB633B1DF7
:100F40000D48194600F0B2FDC7E000BF08000020C0
:100F50007060024034040040380000201800002077
:100F60008860024038040040B86002403C04004001
:100F700040600240400400402864024034000140C8
:100F8000574B1B78062B35D15648002100F0E4FD65
:100F9000544800F0B9FC4FF040637B60524BBB609B
:100FA000524BFB6040233B61514B5A6913465B0037
:100FB0001344DB0030337B610023BB614FF480635B
:100FC000FB614FF400633B624FF400537B620023EC
:100FD000BB624FF44033FB6200233B6301237B631E
:100FE0000023BB630023FB633B1D3E48194600F012
:100FF0005DFD72E03A4B1B78072B35D13D4800214F
:1010000000F0AAFD3B4800F07FFC4FF040637B609E
:10101000394BBB60354BFB6040233B61344B9A69D5
:1010200013465B001344DB0030337B610023BB615C
:101030004FF48063FB614FF400633B624FF4005355
:101040007B620023BB624FF44033FB6200233B63AF
:1010500001237B630023BB630023FB633B1D254807
:10106000194600F023FD38E01D4B1B78082B34D1C6
:101070002248002100F070FD204800F045FC4FF0B0
:1010800040637B601E4BBB60184BFB6040233B61A1
:10109000174BDA6913465B001344DB0030337B6186
:1010A0000023BB614FF48063FB614FF400633B623C
:1010B0004FF400537B620023BB624FF44033FB626A
:1010C00000233B6301237B630023BB630023FB639B
:1010D0003B1D0A48194600F0E9FC4037BD4680BD7B
:1010E0000800002040640240380001403800002021
:1010F00018000020A06402403C00014070640240DF
:101100004000014080B582B000AF10484FF400713C
:10111000012201F083F80F233B7100237B71002330
:10112000BB710123FB713B1D184600F091FE0623A5
:101130003B7101237B710123BB710123FB713B1DBB
:10114000184600F085FE0837BD4680BD000400400B
:1011500080B582B000AF01233B6000233B710823C0
:101160007B710123BB713B46184600F0D1FD083767
:10117000BD4680BD80B500AF0B480C4900F042FD74
:101180000346002B0ED00848084900F093FD08489C
:10119000002100F045FF0448002100F0DDFC054B74
:1011A00000221A6080BD00BF7060024020800020D5
:1011B000000400401400002080B500AF0B480C492B
:1011C00000F020FD0346002B0ED00848084900F02F
:1011D00071FD0848002100F023FF0448002100F0C1
:1011E000BBFC054B00221A6080BD00BF8860024036
:1011F00000880020000400401400002080B500AFEB
:101200000B480C4900F0FEFC0346002B0ED00848AA
:10121000084900F04FFD0848002100F001FF044894
:10122000002100F099FC054B00221A6080BD00BF30
:10123000B860024000800028000400401400002034
:1012400080B500AF0B480C4900F0DCFC0346002BD6
:101250000ED00848084900F02DFD0848002100F094
:10126000DFFE0448002100F077FC054B00221A60E5
:1012700080BD00BF4060024000802010000400409C
:101280001400002080B500AF0B480C4900F0BAFCF8
:101290000346002B0ED00848084900F00BFD084813
:1012A000002100F0BDFE0448002100F055FC054B74
:1012B00000221A6080BD00BF286402400088001030
:1012C000000001401400002080B500AF0B480C491D
:1012D00000F098FC0346002B0ED00848084900F0A7
:1012E000E9FC0848002100F09BFE0448002100F0C2
:1012F00033FC054B00221A6080BD00BF40640240F1
:1013000000802010000001401400002080B500AFD4
:101310000B480C4900F076FC0346002B0ED0084821
:10132000084900F0C7FC0848002100F079FE044895
:10133000002100F011FC054B00221A6080BD00BFA7
:10134000A064024000802020000001401400002022
:1013500080B500AF0B480C4900F054FC0346002B4D
:101360000ED00848084900F0A5FC0848002100F00C
:1013700057FE0448002100F0EFFB054B00221A60E5
:1013800080BD00BF7064024020800020000001404A
:101390001400002080B500AF012000F027FD0346B7
:1013A000002B56D0012000F045FD2A4B1B68002B76
:1013B0004FD1294B1B78012B05D1284B5B68C3F516
:1013C0004662244B1A60244B1B78022B05D1244B18
:1013D0005B68C3F546621F4B1A601F4B1B78032BDB
:1013E00005D1204B5B68C3F546621A4B1A601A4B55
:1013F0001B78042B05D11C4B5B68C3F54662154B6B
:101400001A60154B1B78052B05D1184B5B68C3F58B
:101410004662104B1A60104B1B78062B05D1144BFB
:101420005B68C3F546620B4B1A600B4B1B78072BAE
:1014300005D1104B5B68C3F54662064B1A60064B3C
:101440001B78082B05D10C4B5B68C3F54662014B3A
:101450001A6080BD0C00002008000020706002406F
:1014600088600240B8600240406002402864024048
:1014700040640240A06402407064024080B584B0C1
:1014800000AF00F09BF90820012100F069F84FF44B
:1014900070437B6001233B720023BB7202237B728B
:1014A0000023FB723B1D2B48194600F0B3F8FEF7F2
:1014B000DBFE294B40221A600023BB700A237B709D
:1014C00000233B70FF203968FEF74CFFFEF79AFFC0
:1014D000204B204A526982F480525A610023FB60FB
:1014E00002E0FB680133FB60FA681C4B9A42F8DDAE
:1014F000184B184A526982F400525A610023FB606B
:1015000002E0FB680133FB60FA68144B9A42F8DD95
:10151000104B104A526982F480425A610023FB60EA
:1015200002E0FB680133FB60FA680C4B9A42F8DD7D
:10153000084B084A526982F400425A610023FB605A
:1015400002E0FB680133FB60FA68044B9A42F8DD65
:10155000BEE700BF000C0240180000203F4B4C00CB
:1015600080B483B000AF78600B46FB70FB78002B33
:1015700006D0094B084A116B7A680A431A6306E0E1
:10158000054B054A116B7A68D2430A401A630C373F
:10159000BD465DF8047B70470038024080B483B0DC
:1015A00000AF78600B46FB70FB78002B06D0094B30
:1015B000084A116C7A680A431A6406E0054B054A2A
:1015C000116C7A68D2430A401A640C37BD465DF844
:1015D000047B70470038024080B483B000AF78606D
:1015E0000B46FB70FB78002B06D0094B084A516C68
:1015F0007A680A435A6406E0054B054A516C7A68DA
:10160000D2430A405A640C37BD465DF8047B7047EC
:101610000038024080B487B000AF786039600023A2
:101620007B6100233B610023FB6000237B6176E04C
:101630007B69012202FA03F33B613B681A683B694C
:101640001340FB60FA683B699A4265D17B681A686F
:101650007B695B00032101FA03F3DB431A407B68DB
:101660001A607B681A683B681B7919467B695B00C6
:1016700001FA03F31A437B681A603B681B79012B5C
:1016800003D03B681B79022B2ED17B689A687B695B
:101690005B00032101FA03F3DB431A407B689A6085
:1016A0007B689A683B685B7919467B695B0001FA45
:1016B00003F31A437B689A607B685A687B699BB224
:1016C000012101FA03F3DB431A407B685A607B680F
:1016D0005A683B689B7919467B699BB201FA03F310
:1016E0009BB21A437B685A607B68DA687B699BB25D
:1016F0005B00032101FA03F3DB431A407B68DA60E5
:101700007B68DA683B68DB7919467B695B0001FA24
:1017100003F31A437B68DA607B6901337B617B6981
:101720000F2B85D91C37BD465DF8047B704700BF81
:1017300080B485B000AF786013460A467A807B702B
:101740000023FB600023BB607A787B8803F00703EB
:101750009B0002FA03F3FB607B88DB089BB21A460E
:101760007B88DB089BB219467B68083153F821104F
:101770007B8803F007039B000F2000FA03F3DB4391
:1017800019407B68083243F822107B88DB089BB243
:101790001A467B68083253F82220FB681343BB606B
:1017A0007B88DB089BB21A467B680832B96843F82D
:1017B00022101437BD465DF8047B704780B500AF3A
:1017C000114B114A126842F001021A600E4B0022BE
:1017D0009A600D4A0C4B1B6823F0847323F480330A
:1017E0001360094B094A5A60074B074A126822F4F2
:1017F00080221A60044B0022DA6000F00BF8044BE0
:101800004FF000629A6080BD003802401030002422
:1018100000ED00E080B483B000AF00237B600023C4
:101820003B60354B344A126842F480321A60324BC6
:101830001B6803F400333B607B6801337B603B68CB
:10184000002B03D17B68B3F5A06FF0D12A4B1B6846
:1018500003F40033002B02D001233B6001E000239E
:101860003B603B68012B42D1234B234A126C42F070
:1018700080521A64214B214A126842F480421A6055
:101880001D4B1D4A92689A601B4B1B4A926842F49A
:1018900000429A60184B184A926842F4A0529A602B
:1018A000154B174A5A60144B134A126842F0807263
:1018B0001A6000BF104B1B6803F00073002BF9D0B7
:1018C000104B40F205621A600B4B0B4A926822F0F3
:1018D00003029A60084B084A926842F002029A603A
:1018E00000BF054B9B6803F00C03082BF9D10C37A4
:1018F000BD465DF8047B7047003802400070004030
:1019000008544007003C024080B483B000AF7860C8
:101910007B681B6823F001027B681A607B680022E9
:101920001A607B6800225A607B6800229A607B689C
:101930000022DA607B6800221A617B6821225A61EA
:101940007A68454B9A4203D1444B3D229A607EE02F
:101950007A68434B9A4204D1404B4FF474629A60C8
:1019600075E07A683F4B9A4204D13C4B4FF47412B5
:101970009A606CE07A683C4B9A4204D1374B4FF046
:1019800074629A6063E07A68384B9A4203D1334BB1
:10199000374ADA605BE07A68364B9A4203D12F4BC4
:1019A000354ADA6053E07A68344B9A4203D12B4BC4
:1019B000334ADA604BE07A68324B9A4204D1274BC3
:1019C0004FF03D52DA6042E07A682F4B9A4203D1E1
:1019D0002E4B3D229A603AE07A682D4B9A4204D110
:1019E0002A4B4FF474629A6031E07A68294B9A422C
:1019F00004D1264B4FF474129A6028E07A68264B83
:101A00009A4204D1214B4FF074629A601FE07A68C9
:101A1000224B9A4203D11D4B154ADA6017E07A68CF
:101A20001F4B9A4203D1194B134ADA600FE07A68D0
:101A30001C4B9A4203D1154B114ADA6007E07A68D1
:101A4000194B9A4203D1114B4FF03D52DA600C37DB
:101A5000BD465DF8047B70471060024000600240A4
:101A600028600240406002405860024070600240BE
:101A70003D00002088600240400F0020A06002402E
:101A800000003D20B8600240106402400064024043
:101A9000286402404064024058640240706402407E
:101AA00088640240A0640240B864024080B485B0FB
:101AB00000AF786039600023FB607B681B68FB60C7
:101AC000FA68244B1340FB603B681A683B68DB688C
:101AD0001A433B685B691A433B689B691A433B683E
:101AE000DB691A433B681B6A1A433B685B6A1A430B
:101AF0003B689B6A1A433B685B6B1A433B689B6B72
:101B00001343FA681343FB607B68FA681A607B68CA
:101B10005B69FB60FB6823F00703FB603B68DA6AE4
:101B20003B681B6B1343FA681343FB607B68FA68DE
:101B30005A613B681A697B685A603B685A687B68DF
:101B40009A603B689A687B68DA601437BD465DF836
:101B5000047B70473F801CF080B483B000AF786096
:101B60000B46FB70FB78002B06D07B681B6843F0AC
:101B700001027B681A6005E07B681B6823F00102A4
:101B80007B681A600C37BD465DF8047B704700BF68
:101B900080B485B000AFF860B9601346FB71BB68D4
:101BA00003F08003002B0FD0FB79002B06D0FB68DD
:101BB0005B6943F08002FB685A6105E0FB685B6982
:101BC00023F08002FB685A61BB68802B14D0FB793C
:101BD000002B08D0FB681A68BB6803F01E031A4389
:101BE000FB681A6008E0FB681A68BB6803F01E0314
:101BF000DB431A40FB681A601437BD465DF8047B6E
:101C0000704700BF80B487B000AF786039600023B0
:101C1000FB750023FB600023BB607A68224B9A426D
:101C200002D8224B3B6101E0214B3B613B6823F032
:101C3000F02323F0C313002B0AD03B68DB0A03F028
:101C40001E03FB607B681A68FB681340BB6004E0FE
:101C50007B685B6903F08003BB603B6803F0005363
:101C6000002B03D03B695B68FB6002E03B691B68AB
:101C7000FB60FB6823F0F02323F08213FB60FA681B
:101C80003B681340002B05D0BB68002B02D001231A
:101C9000FB7501E00023FB75FB7D18461C37BD4634
:101CA0005DF8047B704700BF0F6402400060024093
:101CB0000064024080B485B000AF786039607A6813
:101CC000104B9A4202D8104BFB6001E00F4BFB60B7
:101CD0003B6803F00053002B07D03B6823F0F02350
:101CE00023F08213FA68D36006E03B6823F0F02308
:101CF00023F08213FA6893601437BD465DF8047BC5
:101D0000704700BF0F640240006002400064024060
:101D100080B485B000AF78600023FB60324BFB607D
:101D20007B689B79002B4DD02F4B2F4A11687A6826
:101D30001268D2430A401A602B4B2B4A51687A68CA
:101D40001268D2430A405A607B681B79FA681344D0
:101D5000FB60FB68FA6811687A6812680A431A60C7
:101D6000214B214A91687A681268D2430A409A60EE
:101D70001D4B1D4AD1687A681268D2430A40DA6066
:101D80007B685B79102B0ED1174B174A91687A68E4
:101D900012680A439A60144B134AD1687A68126831
:101DA0000A43DA601BE0104BFB607B685B79FA68E2
:101DB0001344FB60FB68FA6811687A6812680A438A
:101DC0001A600CE07B681B79FA681344FB60FB68BF
:101DD000FA6811687A681268D2430A401A601437A8
:101DE000BD465DF8047B7047003C014080B485B07F
:101DF00000AF78600023FB730023BB600C4B1A68B4
:101E00007B681340BB600A4B5A697B681340002B08
:101E100005D0BB68002B02D00123FB7301E0002337
:101E2000FB73FB7B18461437BD465DF8047B704797
:101E3000003C014080B483B000AF7860034B7A6807
:101E40005A610C37BD465DF8047B7047003C014089
:101E500080B485B000AF78600023FB730023BB73B0
:101E60000F237B737B68DB78002B37D0254BDB6837
:101E7000DB4303F4E0631B0AFB73FB7BC3F1040346
:101E8000BB737A7BFB7B42FA03F37B737B685B78E3
:101E90001A46BB7B02FA03F3FB737B689A787B7B61
:101EA0001340DAB2FB7B1343FB73FB7B1B01FB7319
:101EB000154A7B681B781344FA7B83F80023124B86
:101EC0007A6812785209D2B27968097801F01F0154
:101ED000012000FA01F143F822100EE00A4B7A6863
:101EE00012785209D2B27968097801F01F010120F5
:101EF00000FA01F1203243F822101437BD465DF894
:101F0000047B704700ED00E000E100E080B485B0A4
:101F100000AF786039600023FB817B681B88FB8100
:101F20007A68284B9A4213D07A68274B9A420FD08E
:101F30007B68B3F1804F0BD07A68244B9A4207D06C
:101F40007A68234B9A4203D07A68224B9A4208D18E
:101F5000FB8923F07003FB813B685A88FB8913439C
:101F6000FB817A681C4B9A420CD07A681B4B9A42D0
:101F700008D0FB8923F44073FB813B681A89FB89F5
:101F80001343FB817B68FA891A803B685A687B6837
:101F9000DA623B681A887B681A857A68094B9A422C
:101FA00003D07A68084B9A4204D13B689B7A1A4660
:101FB0007B681A867B6801229A821437BD465DF8D9
:101FC000047B704700000140000401400004004011
:101FD00000080040000C00400010004000140040C9
:101FE00080B483B000AF78600B46FB70FB78002BA9
:101FF00008D07B681B889BB243F080039AB27B6851
:102000001A8007E07B681B889BB223F080039AB29A
:102010007B681A800C37BD465DF8047B704700BFB3
:1020200080B483B000AF78600B46FB70FB78002B68
:1020300008D07B681B889BB243F001039AB27B688F
:102040001A8007E07B681B889BB223F001039AB2D9
:102050007B681A800C37BD465DF8047B704700BF73
:1020600080B485B000AF7860396000237B810023A5
:10207000FB810023BB817B681B8C9BB223F0010397
:102080009AB27B681A847B681B8CFB817B689B8877
:10209000BB817B681B8B7B817B8923F070037B81F9
:1020A0007B8923F003037B813B681A887B89134378
:1020B0007B81FB8923F00203FB813B689A89FB89C2
:1020C0001343FB813B685A88FB891343FB817A6881
:1020D0001E4B9A4203D07A681D4B9A4223D1FB894A
:1020E00023F00803FB813B68DA89FB891343FB81FA
:1020F000FB8923F00403FB813B689A88FB89134327
:10210000FB81BB8923F48073BB81BB8923F40073FB
:10211000BB813B681A8ABB891343BB813B685A8ADF
:10212000BB891343BB817B68BA899A807B687A89B3
:102130001A833B689A687B685A637B68FA891A84B9
:102140001437BD465DF8047B704700BF00000140B6
:102150000004014080B483B000AF78607B68002247
:102160001A807B6800225A807B6800229A807B68F4
:1021700000229A607B6800229A817B680022DA81C3
:102180007B6800221A827B6800225A820C37BD4687
:102190005DF8047B704700BF80B485B000AF786005
:1021A0000B467B800023FB817B681B8BFB81FB89BB
:1021B00023F00803FB81FA897B881343FB817B684A
:1021C000FA891A831437BD465DF8047B704700BF57
:1021D00080B483B000AF78600B46FB70FB78002BB7
:1021E0000CD07B68B3F844309BB26FEA43436FEA8C
:1021F00053439AB27B68A3F8442009E07B68B3F8A4
:1022000044309BB2C3F30E039AB27B68A3F8442018
:102210000C37BD465DF8047B704700BF80B483B0C7
:1022200000AF786013460A467A807B707B78002B7B
:1022300008D07B689B899AB27B8813439AB27B68EB
:102240009A8109E07B689B899AB27B88DB439BB2C9
:1022500013409AB27B689A810C37BD465DF8047BC7
:04226000704700BF04
:0400000508000000EF
:00000001FF
