:020000040800F2
:10000000706A0020F5030008F1030008F1030008FE
:10001000F1030008F1030008F103000800000000EC
:10002000000000000000000000000000F1030008D4
:10003000F103000800000000F1030008F1030008CC
:10004000F1030008F1030008F1030008F1030008C0
:10005000F1030008F1030008F1030008F1030008B0
:10006000F1030008F1030008F1030008F1030008A0
:10007000F1030008F1030008F10300088D0F0008E8
:10008000F1030008F1030008F1030008F103000880
:10009000F1030008F1030008F1030008F103000870
:1000A000F1030008F1030008F1030008F103000860
:1000B00071280008F1030008F1030008F1030008AB
:1000C000F1030008F1030008F1030008F103000840
:1000D000F1030008F1030008F1030008F103000830
:1000E000F1030008F1030008F1030008F103000820
:1000F000F1030008F1030008F1030008F103000810
:10010000F1030008F1030008F1030008F1030008FF
:10011000F1030008F1030008F1030008F1030008EF
:10012000F1030008F1030008F1030008F1030008DF
:10013000F1030008F1030008F1030008F1030008CF
:10014000F1030008F1030008F1030008F1030008BF
:10015000F1030008F1030008F1030008F1030008AF
:10016000F1030008F1030008F1030008F10300089F
:10017000F1030008F1030008F1030008F10300088F
:10018000F1030008F103000808B53C4B984224D065
:100190003B4B98422BD03B4B984232D03A4B984243
:1001A00039D03A4B984240D0394B984247D0394BDE
:1001B00098424ED0384B984255D0384B984200D098
:1001C00008BD01214FF4807000F076FC00214FF44F
:1001D0008070BDE8084000F06FBC0121084600F0C7
:1001E0006BFC00210120BDE8084000F065BC012146
:1001F000022000F061FC00210220BDE8084000F070
:100200005BBC0121042000F057FC00210420BDE864
:10021000084000F051BC0121082000F04DFC0021F5
:100220000820BDE8084000F047BC0121102000F084
:1002300043FC00211020BDE8084000F03DBC012136
:10024000202000F039FC00212020BDE8084000F00B
:1002500033BC0121402000F02FFC00214020BDE8EC
:10026000084000F029BC0121802000F025FC00217D
:100270008020BDE8084000F01FBC00BF0000024025
:100280000004024000080240000C0240001002403E
:100290000014024000180240001C024000200240EE
:1002A00000222DE9F0471346D1F800E001274FF076
:1002B000030C04E00133102B02F1020229D007FAEB
:1002C00003F434EA0E05F5D1D0F800800E790CFA6B
:1002D00002F5ED4308EA0508C0F80080D0F8009068
:1002E00006FA02FA013E4AEA0909012E0CFA02F85E
:1002F000C0F800900FD9C568CC7925EA0805C5601B
:10030000C568944001332C43102BC46002F10202F3
:10031000D5D1BDE8F087866891F8059035408560B5
:1003200086688D7909FA02F949EA06068660466808
:1003300026EA04044460466805FA03F4A4B2344390
:100340004460D8E700234FF6FF72026003714371E7
:100350008371C371704700BF82B04FF48033019343
:10036000019B0B430193019BC361C161019BC3616D
:10037000C3690193C369019302B0704703691942CD
:1003800014BF012000207047006980B2704700BF91
:100390004369194214BF012000207047406980B2B0
:1003A000704700BF01837047418370470AB941839A
:1003B00070470183704700BF4161704743695940EE
:1003C00041617047CB0800EB830001F0070110B4D6
:1003D0008900046A0F238B4024EA03030362036A43
:1003E0005DF8044B8A4042EA03010162704700BF96
:1003F000FEE700BF104A114B9A420CD2D04318447A
:1004000020F003000E4B0430184453F8041B42F84C
:10041000041B8342F9D10B480B494FF0000288427C
:10042000B8BF40F8042BFADBDFF82000016841F484
:100430007001016002F0DABA000000203C000020E8
:10044000482E00083C0000206C62002088ED00E08F
:1004500002683749002310B422F0010221248842A7
:100460000260036043608360C360036144614DD0F8
:10047000304B984235D0304B984239D02F4B984270
:100480003DD02F4B984247D02E4B984248D02E4B10
:1004900098421DD02D4B98421ED02D4B984243D0F0
:1004A0002C4B98421DD02C4B984221D02B4B98427C
:1004B00025D02B4B98422FD02A4B984230D02A4B34
:1004C000984205D0294B984206D05DF8044B7047FE
:1004D000274A43F8942CF8E74FF03D5243F8AC2CF0
:1004E000F3E74FF4746243F8202C5DF8044B704737
:1004F0004FF4741243F8382C5DF8044B70474FF0FA
:10050000746243F8502C5DF8044B7047194B5DF84A
:10051000044B3D229A607047174A43F8642CD4E795
:10052000164A43F87C2CD0E73D2243F8082CCCE750
:100530001060024028600240406002405860024063
:100540007060024088600240A0600240B8600240D3
:100550001064024028640240406402405864024033
:100560007064024088640240A0640240B8640240A3
:1005700000003D20006002403D000020400F0020B0
:1005800001F11802F0B48CCACD680E684C692E4394
:10059000264316431E434A6A8B6A4D6B8C6B3E435F
:1005A00016431E430B4A0368CF6A35432C431A4057
:1005B000224302600B6B42690D694C6889683B43BA
:1005C00022F007021343436145608460C160F0BCC0
:1005D000704700BF3F801CF00023036043608360CE
:1005E000C360036143618361C361036243628362E9
:1005F000C362036343638363704700BF036819B931
:1006000023F001030360704743F001030360704768
:10061000036819B923F400430360704743F40043AF
:1006200003607047036819B923F020030360704723
:1006300043F020030360704741607047406880B218
:10064000704700BF036822B923F4002303600161EF
:10065000704743F40023036001617047036819B9D0
:1006600023F480230360704743F4802303607047C2
:100670000AB9C16070470161704700BF0068C0F3EC
:10068000C0407047006800F001007047406900F00A
:10069000380070470B4B0C4A10B40C4CA04294BF6E
:1006A000184610468B004CBF436803685DF8044B46
:1006B00021F0F02121F08211194214BF0120002005
:1006C000704700BF00600240006402400F640240B7
:1006D0000B060CD54369AAB143F08003802943611E
:1006E0000FD0036801F01E01194301607047802993
:1006F00007D0002AF5D1036801F01E0123EA0101A9
:100700000160704723F0800380294361F3D1704773
:1007100070B4104A104E114C21F0F02323F0C31591
:10072000B04298BF14468DB1006800F01E0000EA88
:10073000D12289004CBF6068206823F082131840E2
:1007400002D0101C18BF012070BC7047406900F037
:100750008002EEE7006002400F6402400064024045
:1007600010B4094B094C0A4AA04294BF18461046DF
:1007700011F0005F21F0F02121F0821114BFC1605F
:1007800081605DF8044B7047006002400F640240D6
:1007900000640240FFF7E4BF0A4B0B481A680021CF
:1007A00042F001021A6099601A6822F0847222F401
:1007B00080321A6058601A6822F480221A60D96068
:1007C000704700BF0038024010300024024B002266
:1007D0001A701870704700BF0238024082B00023C0
:1007E0000A4A019302E0B3F5A06F08D0136813F42E
:1007F000003F019B03F101030193019BF3D0034BE5
:100800001868C0F3404002B0704700BF0038024093
:10081000034A136823F0F80343EAC00010607047EE
:1008200000380240014B1860704700BF000047428B
:10083000064B002201281A701A7005D0042802D134
:1008400005221A7070477047187070477038024060
:10085000014B1860704700BF800E474230B4029CC5
:10086000064D40EA046001435B08013B41EA821205
:1008700042EA0340686030BC704700BF0038024065
:10088000014B1860704700BF600047420907034BE7
:1008900041EA8010C3F88400704700BF003802406E
:1008A000014B1860704700BF68004742014B186059
:1008B000704700BF4C004742034A936823F0EC6343
:1008C000194308439060704700380240034A936818
:1008D00023F0784319430843906070470038024082
:1008E000034A936823F0030318439060704700BFE6
:1008F00000380240024B986800F00C00704700BFBF
:1009000000380240034A936823F0F00318439060D4
:10091000704700BF00380240034A936823F4E05355
:1009200018439060704700BF00380240034A936844
:1009300023F4604343EAC0009060704700380240EF
:1009400010B4214CA36803F00C03042B1BD0082B1C
:100950001CD01E4B03601C4A1D499468C4F3031449
:100960000C5DE34043609468C4F382240C5D23FA79
:1009700004F4846092685DF8044BC2F342328A5CEE
:10098000D340C3607047134B0360E4E7636861685A
:1009900013F4800F636818BF0E4C01F03F020CBFC8
:1009A0000A49B4FBF2F1C3F3881308BFB1FBF2F1BB
:1009B00001FB03F2044B5B68C3F3014301335B00AB
:1009C000B2FBF3F30360C6E7003802400024F400F2
:1009D0000000002040787D0100F44073B3F5407FB3
:1009E00009D108498B6820F0704223F4F81322F4EF
:1009F000407213438B60034A136FC0F30B0018431C
:100A00001067704700380240014B1860704700BF04
:100A10003C0E4742014B1860704700BF400E4742F2
:100A2000014B1860704700BF5C01474229B9054A75
:100A3000136B23EA000010637047024B1A6B1043DC
:100A4000186370470038024029B9054A536B23EAFE
:100A5000000050637047024B5A6B10435863704755
:100A60000038024029B9054A936B23EA00009063DD
:100A70007047024B9A6B10439863704700380240EE
:100A800029B9054A136C23EA000010647047024B31
:100A90001A6C1043186470470038024029B9054A9F
:100AA000536C23EA000050647047024B5A6C1043A9
:100AB000586470470038024029B9054A136923EA8F
:100AC000000010617047024B1A69104318617047AB
:100AD0000038024029B9054A536923EA00005061F1
:100AE0007047024B5A691043586170470038024002
:100AF00029B9054A936923EA000090617047024BC7
:100B00009A691043986170470038024029B9054A34
:100B1000136A23EA000010627047024B1A6A1043FE
:100B2000186270470038024029B9054A536A23EA1F
:100B3000000050627047024B5A6A10435862704777
:100B40000038024029B9054A136D23EA00001065F8
:100B50007047024B1A6D1043186570470038024009
:100B600029B9054A536D23EA000050657047024BCE
:100B70005A6D1043586570470038024029B9054A3C
:100B8000936D23EA000090657047024B9A6D104305
:100B9000986570470038024029B9054A136E23EA68
:100BA000000010667047024B1A6E104318667047BB
:100BB0000038024029B9054A536E23EA0000506606
:100BC0007047024B5A6E1043586670470038024017
:100BD00029B9054A137823EA000010707047024BC8
:100BE0001A781043187070470D3802404309012BE2
:100BF0000BD0022B094B0CBF1B6F5B6F00F01F006B
:100C000023FA00F000F001007047044B1B6800F06D
:100C10001F0023FA00F000F0010070470038024086
:100C2000024A536F43F080735367704700380240A5
:100C3000034BDB68184214BF01200020704700BF3F
:100C400000380240014B1870704700BF0E38024058
:100C5000F0B5104C83B001210420FFF7E7FE4026D9
:100C60000123204602250022694603278DF806202D
:100C70008DF8073000968DF804508DF80570FFF759
:100C80000FFB66832A4620460621FFF79BFB03B035
:100C9000F0BD00BF0008024070B5012188B0184DBA
:100CA0000220FFF7EDFE01214FF40010FFF7BEFE1A
:100CB00000246823694628460193ADF80040ADF84A
:100CC0000840ADF8024000F057FC03A800F018FE01
:100CD0000126602303A92846ADF80C300594ADF831
:100CE0001840ADF80E6000F003FD2846082100F022
:100CF00065FE3146284600F0C7FC08B070BD00BF55
:100D000000040040034B0449002223F8022F8B42C9
:100D1000FBD17047D6010020661A002000B50122E1
:100D200083B04FF400710A4801F020F900230F212D
:100D3000012201A88DF804108DF805308DF80630D9
:100D40008DF8072000F004FA03B05DF804FB00BF43
:100D500000040040F0B5174C174D91B0002120461B
:100D6000FFF74CFC2046FFF773FB20464FF0206353
:100D7000124C0193402240F648410023029503940F
:100D80000492059101224FF480674FF400664FF4FE
:100D900000554FF4403401A906930A930C930E9327
:100DA0000F930797089609950B940D92FFF7E8FBB0
:100DB00011B0F0BD7060024034040040D801002042
:100DC00038B5094D094B01242846224610211C60E4
:100DD000FFF77EFC21462846FFF710FC2146044819
:100DE000BDE8384000F076BC70600240D4010020BD
:100DF0000004004070B5144E144C154D00223260B2
:100E0000234623F8022FAB42FBD1124B002203F200
:100E100083111A705A709A7003338B42F9D1FFF71D
:100E200017FFFFF739FFFFF779FFFFF793FF002365
:100E300024F8023FAC42FBD13368002BFDD1BDE862
:100E40007040FFF7BDBF00BFD4010020D6010020D5
:100E5000661A002050000020F0B5DFF810E1414E86
:100E6000734600274C211D2240F6184C75783478C3
:100E7000B07815F0800F0CBF2EF817202EF8171041
:100E800015F0400F0CBF5A80598015F0200F0CBF91
:100E90009A80998015F0100F0CBFDA80D98015F078
:100EA000080F0CBF1A81198115F0040F0CBF5A816D
:100EB000598115F0020F0CBF9A819981ED0754BF3B
:100EC000DA81D981250654BF1A821982650654BF7A
:100ED0005A825982A50654BF9A829982E50654BF68
:100EE000DA82D982250754BF1A831983650754BF54
:100EF0005A835983A50754BF9A839983E50754BF42
:100F0000DA83D983040654BF1A841984450654BF72
:100F10005A845984840654BF9A849984C50654BF60
:100F2000DA84D984040754BF1A851985450754BF4C
:100F30005A855985840754BF9A8599851837C00703
:100F400054BFDA85D985674506F1030603F13003FE
:100F50008CD1054B002103F1600223F8021F93425C
:100F6000FBD1F0BD50000020061A0020D80100205F
:100F700008B5054B1B68002BFDD1FFF76DFFBDE8E1
:100F80000840FFF71DBF00BFD401002008B50A4983
:100F90000A48FFF7BDFB70B107490848FFF7E0FBBF
:100FA0000021074800F096FB00210448FFF726FBCC
:100FB000044B00221A6008BD2080002070600240AF
:100FC00000040040D401002039493A4BD1F8882070
:100FD000394842F47002C1F888201A68002142F0B2
:100FE00001021A6099601A6822F0847222F4803239
:100FF0001A6058601A6882B022F480221A60D960A0
:10100000009101911A6842F480321A601A4603E096
:10101000009BB3F5A06F09D0136803F4003301936C
:10102000009B01330093019B002BF1D0214B1B68E7
:1010300013F4003318BF01230193019B012B05D04A
:101040001B4B4FF000629A6002B07047194B1B496E
:101050001A6C1B4842F080521A640A6842F48042BB
:101060000A609A689A609A6842F400429A609A68A4
:1010700042F4A0529A6058601A6842F080721A6076
:101080001A4611680B4B8901FBD50E4A40F20561E7
:1010900011609A6822F003029A609A6842F0020294
:1010A0009A601A46936803F00C03082BFAD1C7E73D
:1010B00000ED00E0003802401030002400700040D5
:1010C00008544007003C02401848836803F00C03B2
:1010D000042B28D0082B09D0154B144A15499268C7
:1010E000C2F303128A5CD3400B61704743684168C6
:1010F00013F4800F436818BF0F4801F03F020CBF84
:101100000B49B0FBF2F1C3F3881308BFB1FBF2F156
:1011100001FB03F2054B5B68C3F3014301335B0042
:10112000B2FBF3F3D9E7044BD7E700BF0038024026
:101130000024F4001000002040787D0140F0BF60E2
:10114000024B40F40030D860704700BF00ED00E073
:10115000C3785BB9037818485A09203203F01F039B
:10116000012101FA03F340F822307047134BF0B429
:10117000D9684778827804780F4EC943C1F30221B9
:10118000C1F10405EDB20F2307FA05F50B41EDB2ED
:1011900013402B4304F1604202F561421B01DBB2B4
:1011A00082F800330378012203F01F015B098A40B3
:1011B00046F82320F0BC704700E100E000ED00E0BD
:1011C00021F0604121F07F01014B08439860704796
:1011D00000ED00E0044A136919B923EA0000106128
:1011E000704718431061704700ED00E0044A13682F
:1011F00004280CBF43F0040323F00403136070477A
:1012000010E000E030B5012183B00820FFF70EFCAC
:101210004FF47045002302220124694606480095D8
:101220008DF804408DF806308DF807308DF80520D4
:10123000FFF736F803B030BD000C024010B50121B5
:1012400084B00846FFF71CFC4FF47A6400234FF487
:10125000C87201A94FF08040ADF80630ADF80C30EF
:101260008DF80E300292ADF8044000F085F90121AE
:101270004FF0804000F02EFA012211464FF08040DE
:1012800000F07EFE04B010BD00B583B001231C2128
:10129000002201A88DF804108DF805208DF8063085
:1012A0008DF80730FFF754FF03B05DF804FB00BF73
:1012B0002DE9F04F414B002585B02C4605EB45004C
:1012C0000001002281180132302A43F82140F9D16F
:1012D0000135602DF2D11E2202924FF0FF3B029A9F
:1012E0001E324FF0000A03920AF112020092DDF85A
:1012F0000C90DDF808800AF12A020AF12407019215
:10130000A9F1300408F1300004EB440400EB400084
:1013100008EB480609EB4905019A24010001360152
:101320002D01514604EB010C04EB020E43F82CB0E6
:1013300043F82EB006EB020C05EB010E43F82CB07F
:1013400043F82EB000EB010C00EB020E063A974278
:1013500043F82CB001F1060143F82EB0E2D1009A17
:10136000063F974208F10608A9F10609C8D10AF11B
:10137000010ABAF1060FB7D1029A0132242A029269
:10138000ADD100250D4FAE4601260EEB4E042401D3
:101390000022A118013253F8210028B9B5F54F7F7A
:1013A000BCBF47F821600135302AF2D10EF1010EA1
:1013B000BEF1300FE9D105B0BDE8F08F681A00200A
:1013C00008B5604B984235D0B0F1804F3CD05E4BB1
:1013D000984243D05D4B98424AD05D4B984251D0E1
:1013E0005C4B984258D05C4B98425FD05B4B984224
:1013F00066D05B4B98426DD05A4B984276D05A4B90
:1014000098427FD0594B984200F08880584B9842C0
:1014100000F08E80574B984200D008BD01214FF458
:101420008070FFF773FB00214FF48070BDE8084027
:10143000FFF76CBB01210846FFF776FB0021012076
:10144000BDE80840FFF770BB01210846FFF75EFBCF
:1014500000210120BDE80840FFF758BB0121022010
:10146000FFF754FB00210220BDE80840FFF74EBB08
:1014700001210420FFF74AFB00210420BDE80840B9
:10148000FFF744BB01210820FFF740FB00210820A3
:10149000BDE80840FFF73ABB01211020FFF736FBFB
:1014A00000211020BDE80840FFF730BB01212020BB
:1014B000FFF72CFB00212020BDE80840FFF726BBEA
:1014C00001210220FFF730FB00210220BDE8084087
:1014D000FFF72ABB01214FF48030FFF725FB0021E5
:1014E0004FF48030BDE80840FFF71EBB01214FF4E8
:1014F0000030FFF719FB00214FF40030BDE8084031
:10150000FFF712BB01214FF48020FFF70DFB0021F4
:101510004FF48020BDE80840FFF706BB01214020C2
:10152000FFF7F4FA00214020BDE80840FFF7EEBACB
:1015300001218020FFF7EAFA00218020BDE8084061
:10154000FFF7E4BA0000014000040040000800403A
:10155000000C004000100040001400400004014056
:101560000040014000440140004801400018004094
:10157000001C004000200040224A038890429BB299
:1015800012D002F5806290420ED0B0F1804F0BD0A5
:10159000A2F58032904207D002F58062904203D0DB
:1015A00002F58062904203D14A8823F0700313430E
:1015B000154A90421ED002F5806290421AD00A89E4
:1015C00070B423F440730F4C4E680D889BB21343E4
:1015D000A0420380C662058506D00C4B984203D01A
:1015E0000123838270BC70478B7A03860123838238
:1015F00070BC704703800B884A68C2620385012370
:101600008382704700000140001000400004014048
:1016100000234FF0FF3242600380038143808372D6
:10162000704700BF01858282704700BF038823F0A6
:1016300070031B041B0C1943018070474162704703
:10164000C1627047406A7047008D80B2704700BF2A
:10165000038829B923F002031B041B0C0380704785
:101660009BB243F002030380704700BF038829B98F
:1016700023F004031B041B0C038070479BB243F050
:1016800004030380704700BF038829B923F0800357
:101690001B041B0C038070479BB243F08003038044
:1016A000704700BF038823F008031B041B0C038052
:1016B00003889BB219430180704700BF038823F45D
:1016C00040731B041B0C038003889BB219430180E9
:1016D000704700BF038829B923F001031B041B0CCA
:1016E000038070479BB243F001030380704700BF43
:1016F000F0B5048CB1F80CC04B880F881A4E24F05A
:1017000001042404240C0484058CB0F804E0048B48
:1017100025F0020524F073022D042D0C4CEA03037E
:1017200012042B43120CB0429BB21FFA8EF442EA11
:10173000070208D00D4DA84205D089688480028335
:1017400041630384F0BDCE890F8A4D8A23F00803DC
:10175000334324F440748E883D4323F004032C4328
:101760003343A4B2E9E700BF000001400004014098
:10177000F0B5058C0C88B1F80CC0B1F802E01E4E33
:1017800025F010052D042D0C0584028C8788058B0F
:1017900022F020031B0425F4E6421B0C120443EA4A
:1017A0000C13120C43EA0E1342EA0422B0429BB21D
:1017B000BDB294B208D0114A904205D08A688580A3
:1017C000048382630384F0BD23F08002CB890F8AF7
:1017D0008E8892B242EA03124FF6BF73134025F48B
:1017E00040654A8A45EA870543EA061345EA8205C9
:1017F0009BB2ADB2E2E700BF00000140000401402F
:10180000F0B5058CB1F80CC0B1F802E00C881D4FA2
:1018100025F480752D042D0C0584028C8688858B1B
:1018200022F400731B0425F073021B0C43EA0C2303
:10183000120443EA0E23120CB8429BB2B5B244EA3A
:10184000020408D0104A904205D08A6885808483BB
:10185000C2630384F0BD23F40062CB890F8A8E88B3
:1018600092B242EA03224FF6FF33134025F440556B
:101870004A8A45EA071543EA062345EA02159BB260
:10188000ADB2E2E70000014000040140028CB1F873
:1018900002C022F480521204120C2DE9F041B1F87A
:1018A0000C80B1F800E00284058C8788828B124E90
:1018B00025F4005422F4E6432404240C1B0444EAD7
:1018C00008341B0C44EA0C3443EA0E23B042A4B2A1
:1018D000BAB29BB209D0094DA84206D0896882806D
:1018E000838301640484BDE8F0810D8A22F4804280
:1018F00042EA851292B2F1E7000001400004014083
:10190000002303804380838083608381C3810382BB
:101910004382704710B4048C0123A4B28B4024EAA4
:10192000030321F00804038418307CB10439C1F3A7
:101930004E0148F6FF730C5823400B5012020B580F
:101940005DF8044B92B21A430A50704749084FF6AB
:101950008F730C5823400B500B585DF8044B1A43FF
:101960000A5070474163704781637047C163704795
:1019700001647047038B23F070031B041B0C194395
:1019800001837047038B23F4E0431B041B0C43EAE1
:10199000012189B201837047838B23F070031B04FC
:1019A0001B0C194381837047838B23F4E0431B0492
:1019B0001B0C43EA012189B281837047038B23F01A
:1019C00008031B041B0C194301837047038B23F48A
:1019D00000631B041B0C43EA012189B20183704799
:1019E000838B23F008031B041B0C1943818370476E
:1019F000838B23F400631B041B0C43EA012189B28F
:101A000081837047038B23F004031B041B0C1943D1
:101A100001837047038B23F480631B041B0C43EA90
:101A2000012189B201837047838B23F004031B04D7
:101A30001B0C194381837047838B23F480631B0441
:101A40001B0C43EA012189B281837047038B23F089
:101A500080031B041B0C194301837047038BC3F3E2
:101A60000E0343EA012189B201837047838B23F07F
:101A700080031B041B0C194381837047838BC3F3C2
:101A80000E0343EA012189B281837047038C23F05E
:101A900002031B041B0C194301847047038C23F0C1
:101AA00008031B041B0C194301847047038C23F0AB
:101AB00020031B041B0C43EA011189B20184704707
:101AC000038C23F080031B041B0C43EA011189B231
:101AD00001847047038C23F400731B041B0C43EA3E
:101AE000012189B201847047038C23F400631B0435
:101AF0001B0C43EA012189B201847047038C23F453
:101B000000531B041B0C43EA013189B20184704766
:101B100010B4048C01238B40A4B224EA030404848F
:101B2000038C5DF8044B8A4013439BB203847047D7
:101B300010B4048C04238B40A4B224EA030404846C
:101B4000038C5DF8044B8A4013439BB203847047B7
:101B50000B88F0B5002B32D0042B57D0082B00F0A7
:101B60008380028C4F88B1F804E00E89CD8822F47E
:101B700080521204120C0284848B028C24F4407173
:101B800022F4005309055B04090D5B0C41EA0E21A8
:101B900043EA073341EA06319BB243F4805389B2EA
:101BA00081830384828B22F440621204120C8283AC
:101BB000838B9BB243EA05239BB28383F0BD028CE7
:101BC0004E888D880B89CC8822F001021204120CF9
:101BD0000284028B018C92B222F0F30221F00A01FE
:101BE00042EA0313090446F001029BB2090C2B439D
:101BF000114303830184038B23F00C031B041B0C90
:101C00000383038B9BB223430383F0BD058C4F8872
:101C10008E88B1F808E0CC8825F010010904090C81
:101C20000184028B018C22F440731B051B0D8AB2C8
:101C300043EA0E3322F0A0029BB242EA071243EAC3
:101C4000062392B29BB242F0100203830284038BFC
:101C500023F440631B041B0C0383038B9BB243EAF6
:101C600004239BB20383F0BD068C4F888D880A89BC
:101C7000CC8826F480710904090C0184818B038CC3
:101C800089B29BB221F0F30123F4206341EA0212EE
:101C900043EA072392B29BB243F480732A438283C0
:101CA0000384838B23F00C031B041B0C8383838B23
:101CB0009BB21C438483F0BD0023012282800380F9
:101CC0004380C38003817047B1F802C00B88F0B530
:101CD000B1F804E0BCF1000F0CBF02240024BEF1F7
:101CE000010F0CBF02250125002B4BD0038C0E8960
:101CF000C98823F010031B041B0C0384028B078C80
:101D000022F440731B05BAB21B0D43EA063322F0DE
:101D1000A0029BB242EA0C1243EA0E2392B29BB29B
:101D200042F0100203830284038B23F440631B04FC
:101D30001B0C0383038B9BB243EA01239BB20383F7
:101D4000038C23F001031B041B0C0384028B078C00
:101D500092B222F0F302BFB242EA061327F00A025F
:101D60009BB242F001022B43144303830484038B90
:101D700023F00C031B041B0C0383038B9BB219433E
:101D80000183F0BD038C0F89CE8823F001031B046F
:101D90001B0C0384018B038C89B221F0F30123F027
:101DA0000A0341EA07111B044CF0010289B21B0C23
:101DB00013434EEA010EA0F818E00384038B23F0CE
:101DC0000C031B041B0C0383038B9BB23343038361
:101DD000038C23F010031B041B0C0384028B018C67
:101DE00022F440731B051B0D8AB243EA073322F02D
:101DF000A0029BB242F0100243EA052342EA041417
:101E000003830484038B23F440631B041B0C0383B0
:101E1000038B9BB243EA0626B6B20683F0BD00BF31
:101E2000406B7047806B7047C06B7047006C7047A9
:101E3000038B23F00C031B041B0C0383038B9BB24B
:101E400019430183704700BF038B23F440631B04D5
:101E50001B0C0383038B9BB243EA012189B20183EC
:101E6000704700BF838B23F00C031B041B0C838380
:101E7000838B9BB219438183704700BF838B23F40C
:101E800040631B041B0C8383838B9BB243EA0121B9
:101E900089B28183704700BFF0B54B88B1F800E08C
:101EA0008F88CE880D894C898A894EEA03033B438B
:101EB00033432B43234313439BB2A0F84430F0BD7C
:101EC0000023038043808380C38003814381838117
:101ED000704700BFB0F8443021B9C3F30E03A0F837
:101EE000443070476FEA43436FEA53439BB2A0F814
:101EF00044307047838829B923F004031B041B0C6A
:101F0000838070479BB243F004038380704700BF17
:101F1000838829B923F001031B041B0C83807047BD
:101F20009BB243F001038380704700BF81827047FA
:101F3000038A194214BF012000207047C94389B2A7
:101F400001827047038A828911EA030092B203D0AA
:101F5000114214BF01200020704700BFC94389B25D
:101F6000018270470A43A0F84820704783899BB2DA
:101F70001AB923EA010181817047194381817047B1
:101F8000FFF7F4BF838829B923F008031B041B0C57
:101F9000838070479BB243F008038380704700BF83
:101FA000038923F007031B041B0C0381704700BF48
:101FB000038923F070031B041B0C1943018103895F
:101FC0009BB243F007030381704700BF602930B420
:101FD000048C24D024F001042404240C0484048BF5
:101FE000058CA4B224F0F304ADB244F0010425F052
:101FF0000A0544EA031345F001049BB2224303831C
:102000000284038923F070031B041B0C0B43038120
:1020100003899BB243F00703038130BC704724F06F
:1020200010042404240C0484048B058C24F44074D0
:102030002405ADB2240D25F0A00544F4807445F0CC
:10204000100544EA033345EA02129BB292B20383BD
:102050000284D6E710B4048942EA0323E4B223439E
:102060009BB21943018103895DF8044B23F0770388
:102070001B041B0C43F077030381704710B40489E1
:1020800042EA0323E4B223439BB21943018103894B
:102090005DF8044B9BB243F480430381704700BF5B
:1020A000038923F070031B041B0C19430181704743
:1020B000838823F070031B041B0C838083889BB2EE
:1020C00019438180704700BF038923F007031B0475
:1020D0001B0C038103899BB219430181704700BF28
:1020E000038923F080031B041B0C038103899BB22B
:1020F00019430181704700BF10B40489E4B2214341
:102100000A4342EA032399B201815DF8044B704708
:1021100070B40689048B058C24F4407424F0030405
:10212000ADB225F0220526F0070624042A43360422
:10213000240C360C44F4807442EA0313314344F017
:1021400001049AB201810483028470BC704700BF0D
:10215000838829B923F080031B041B0C83807047FC
:102160009BB243F080038380704700BFA0F85010FB
:10217000704700BF2DE9F04F664B95B01A780E926C
:102180005A780F9201228240511E9B78624A0C932A
:10219000002300EBC00012930B9311930D9308934F
:1021A000136053600723019113938100062310915C
:1021B0000593089A02F001030993D3000793139B38
:1021C0000693059B063B4FF0060B0A930A9B03936D
:1021D0004FF00009ABF10603CDF808900493039B80
:1021E000049F03EB430A4FEA0A1A0AEB070C4B4819
:1021F000019B50F82C0045F2555603EA000E31467B
:102200004FEA6E0808EA06060EEA0101314443F27D
:1022100033352A468E100D4032402A44111140F6C3
:102220000F7440F60F730B4000941440234400F0E9
:1022300001011C1201EB4002002807F1010754FACA
:1022400083F392B207DB9944344B43F82C2011B14D
:10225000029B013302935F45C7D1039B059A01336B
:102260009A420393BBD1089B072B41DC0D9B029A3A
:1022700013440D9301231193079A0698099C28494A
:102280001346002C18BF03460132013803EB430309
:102290000690079222480E9A109C194402FB09F2FC
:1022A0000BF1060B92FBF4F2C2540F9B0C9ABBF19C
:1022B000360F03FB09F302FB09F993FBF4F399FBD7
:1022C000F4F94B7081F8029080D1059A089B063290
:1022D0000592139A01330832102B089313927FF45E
:1022E00068AF119B5BB9129B6BB915B0BDE8F08F5D
:1022F0000B9B029A13440B9301231293BCE7064BEA
:102300000D9A1A60EFE7044B0B9A5A6015B0BDE8BE
:10231000F08F00BF686200203C000020681A002097
:102320005000002000281EDA10F5B470FCD40029FB
:102330001FDA11F5B471FCD4401A0028B8BF40422E
:10234000B428C8BFC0F5B47064230C4AC0F1B4000F
:1023500003FB00F082FB00230344C017C0EBE31033
:102360007047A0F5B470B0F5B47FFADCDFE7A1F5F3
:10237000B471B1F5B47FFADCDEE700BFB7600BB62D
:10238000094BD96818685A6810B480EAC0201A60EE
:1023900081EAD14242409C685C6082EA10209960E8
:1023A000D8605DF8044B7047240000200028B8BFB7
:1023B00040427047031E16DADA4322F00702083360
:1023C0001344012000FA03F313F083020AD113F03F
:1023D000440F06D113F0380F14BF4FF0FF30002028
:1023E000704710467047072BC8BF03F00703E8E7A4
:1023F0002DE9F04F95B00025044603912F46A846DD
:102400002E4605EB4501C1EB01112046FFF78AFF7F
:102410000CABB042C8BFA84643F8250005F1010542
:10242000C8BF0646082D0744EBD1704B09971B68BF
:1024300002936E4B6E4F5B6804936C4B9B680593E5
:102440006A4BDB6800934FF00009A4F15A030B9329
:10245000CDF82090CDF81890CDF81C90CDF82890AC
:102460000B9BB32B0A9B98BFC3F15F030193019AA7
:102470002F2A1346D4BF002301235E0003F1010A73
:102480000AEB4A0A334402EB420B1E014FEA0A1AD6
:102490004FEA0B1B002502E00135302D55D00BEB28
:1024A000050357F823305A1CF6D0DB07F4D5039BFD
:1024B000002B67D114AB03EB880353F8201CA8F161
:1024C0000300FFF777FF044608F1FF30FFF772FFC4
:1024D000484B01EB4101490083FB01235A18CB17FC
:1024E000C3EBE203002BD7DD019903FB045203FB8E
:1024F000001105E0013BA2EB0402A1EB0001CBD0EF
:102500002F2AF7D8B142F5DB01EB410E514502EB22
:102510000E1EEFDA57F82EC0BCF1FF3FEAD01CF0D8
:10252000010FE7D10BEB0502314B314953F8223053
:1025300023F0010341F8223051F82E30013543F0E9
:102540000103302D41F82E30A9D10A9B0133602BB5
:102550000A9385D1079B13B1244B029A1A60069BFC
:1025600013B1224B049A5A60089B13B11F4B059A72
:102570009A60B9F1000F02D01C4B009ADA6015B0D6
:10258000BDE8F08F029B099983EAC320009B83EA90
:10259000D343434083EA10200BACB0FBF1F300229D
:1025A00001FB130354F8041F5B1A002B17DD0132E3
:1025B000082AF7D1049B029314AB03EB88034FF076
:1025C000010953F8201C059B0493009BCDF8209033
:1025D0000593CDF818900090CDF81C906FE7049B00
:1025E00002934FF001099046EDE700BF2400002060
:1025F000681A0020898888888842A8BF08467047E2
:1026000010B445F2555400EA040104EA60040B19C1
:1026100043F2333103EA010201EAA301531840F601
:102620000F7203EA020002EA23128318181250FA0A
:1026300083F05DF8044B704701EB410102EB42026D
:10264000F0B5490052000F4E02F1060C8F1D4FF0FD
:10265000000E02EB42052D010C462B19013456F8F1
:102660002330B3F1FF3F18BF03F00103984208BFC6
:102670000EF1010EBC42F0D101326245E9D1704643
:10268000F0BD00BF681A00202DE9F04302EB4202C2
:1026900003EB43034FEA420C5B00079A144F03F12C
:1026A00006080CF1060E03EB43063601654602E010
:1026B0000135754517D0741957F82440B4F1FF3F20
:1026C00018BF04F00104A042F2D1013A06EB05095B
:1026D0000CD457F82940013524F001040C44754509
:1026E00047F82940E7D101334345DCD1BDE8F08309
:1026F000681A0020554A136852681A4407EE902A57
:10270000B8EEE77A07EE903AF8EEE77AF0B5D7EE52
:10271000007A002883B0FDEEE77A17EE907A50DA5F
:1027200010F5B470FCD4A0F12E03B3F5867F01D967
:10273000002F4ADB87385A283FD8002F3DDD444917
:102740003026002406EB460000012A23C21801337C
:1027500051F82220551C02D0D20748BF0134302B3B
:10276000F4D10136362EEDD12A26002506EB46009F
:1027700000010023C218013351F82220B2F1FF3FBB
:1027800002D0D20758BF0135062BF3D10136302EC7
:10279000ECD1BC42A8BF3C46A542A8BF25460823B1
:1027A0000722002101200095FFF76EFF002200950F
:1027B000104607230121FFF767FF03B0F0BDA0F526
:1027C000B470B0F5B47FFADAADE721497C422A2033
:1027D000002700EB40052D010023EA18013351F8D2
:1027E0002220561C02D0D20748BF0137062BF4D155
:1027F00001303028EDD1002600EB40052D012A23C1
:10280000EA18013351F82220B2F1FF3F02D0D2077B
:1028100058BF0136302BF3D101303628ECD1A74216
:10282000A8BF2746BE42A8BF3E46002211460096DA
:1028300007230120FFF728FF009608230722012124
:102840000020FFF721FF03B0F0BD00BF3C000020D7
:10285000681A0020431C18BF00F00100704700BF39
:10286000012303FA00F00138704700BF00000000A8
:1028700038B501214FF08040FFF764FB00B938BD47
:1028800001214FF08040FFF769FB554A554C5369D1
:1028900083F4004353612368032B00F28C80DFE84C
:1028A00003F0516E1802A3684E4A312B7EDD4E4D67
:1028B00050686B68013B0230032BD8BF0423B0F58E
:1028C000B47F50606B6026DD002060602060A060F7
:1028D00021E0454D286800F013FA3FA3D3E9002317
:1028E00000F0B0F800F060FA6B68286007EE900A1C
:1028F0000133B7EE007A182BF4EEC77AC8BF18235D
:10290000F1EE10FA6B6038DD03220023606885ED7C
:10291000007A2260A3604FF0FF31FFF769FD95ED6B
:10292000000A6068FFF7E6FE60680021FFF760FDBF
:10293000686800EBD0704010FFF71CFCBDE8384021
:10294000FEF716BB284D286800F0DAF922A3D3E978
:10295000002300F075F800F027FA6B68286007EE96
:10296000900A0133182BF5EEC07AC8BF1823F1EE98
:1029700010FA6B604FF0000328D46068CBE7A368BF
:10298000184A312B12DD184D50686B68013B02303C
:10299000032BD8BF0423B42850606B60BBDDB42088
:1029A0000222002360602260A360B4E701339360D9
:1029B00050680D4DAFE70C4D00204FF07E520223C2
:1029C0002A606B6060602060A060A4E701210022A3
:1029D0002B602160A260D0E77B14AE47E17A743FA0
:1029E000000C0240440000203400002010B5FEF727
:1029F0005FFCFEF7E9FAFEF705FCFEF71FFCFEF7A9
:102A000043FCFEF7F7F90A490A4B28201E2400224E
:102A100008704C708A7003F283100A211A705A7081
:102A2000997003338342F9D1FEF7A2FAFEE700BFA3
:102A3000686200205000002081F0004102E000BFE9
:102A400083F0004330B54FEA41044FEA430594EA6E
:102A5000050F08BF90EA020F1FBF54EA000C55EAA9
:102A6000020C7FEA645C7FEA655C00F0E2804FEA7A
:102A70005454D4EB5555B8BF6D420CDD2C4480EA5C
:102A8000020281EA030382EA000083EA010180EA8C
:102A9000020281EA0303362D88BF30BD11F0004FDA
:102AA0004FEA01314FF4801C4CEA113102D0404210
:102AB00061EB410113F0004F4FEA03334CEA13334B
:102AC00002D0524263EB430394EA050F00F0A78063
:102AD000A4F10104D5F1200E0DDB02FA0EFC22FA5E
:102AE00005F2801841F1000103FA0EF2801843FA52
:102AF00005F359410EE0A5F120050EF1200E012A43
:102B000003FA0EFC28BF4CF0020C43FA05F3C01880
:102B100051EBE37101F0004507D54FF0000EDCF1F9
:102B2000000C7EEB00006EEB0101B1F5801F1BD3A2
:102B3000B1F5001F0CD349085FEA30004FEA3C0CA6
:102B400004F101044FEA445212F5800F80F09A809C
:102B5000BCF1004F08BF5FEA500C50F1000041EBA0
:102B6000045141EA050130BD5FEA4C0C404141EBA4
:102B7000010111F4801FA4F10104E9D191F0000FCB
:102B800004BF01460020B1FA81F308BF2033A3F14E
:102B90000B03B3F120020CDA0C3208DD02F1140C45
:102BA000C2F10C0201FA0CF021FA02F10CE002F180
:102BB0001402D8BFC2F1200C01FA02F120FA0CFC79
:102BC000DCBF41EA0C019040E41AA2BF01EB0451C2
:102BD000294330BD6FEA04041F3C1CDA0C340EDCC0
:102BE00004F11404C4F1200220FA04F001FA02F303
:102BF00040EA030021FA04F345EA030130BDC4F1C1
:102C00000C04C4F1200220FA02F001FA04F340EAB5
:102C10000300294630BD21FA04F0294630BD94F066
:102C2000000F83F4801306BF81F480110134013D4D
:102C30004EE77FEA645C18BF7FEA655C29D094EABE
:102C4000050F08BF90EA020F05D054EA000C04BF3C
:102C50001946104630BD91EA030F1EBF0021002027
:102C600030BD5FEA545C05D14000494128BF41F0C6
:102C7000004130BD14F580043CBF01F5801130BD2A
:102C800001F0004545F0FE4141F470014FF00000B5
:102C900030BD7FEA645C1ABF194610467FEA655C66
:102CA0001CBF0B46024650EA013406BF52EA033508
:102CB00091EA030F41F4002130BD00BF90F0000FF6
:102CC00004BF0021704730B54FF4806404F1320432
:102CD0004FF000054FF0000150E700BF90F0000FEB
:102CE00004BF0021704730B54FF4806404F1320412
:102CF00010F0004548BF40424FF000013EE700BFE2
:102D000042004FEAE2014FEA31014FEA02701FBF71
:102D100012F07F4393F07F4F81F06051704792F043
:102D2000000F14BF93F07F4F704730B54FF46074BD
:102D300001F0004521F0004120E700BF50EA010208
:102D400008BF704730B54FF000050AE050EA0102B5
:102D500008BF704730B511F0004502D5404261EB25
:102D600041014FF4806404F132045FEA915C3FF466
:102D7000DCAE4FF003025FEADC0C18BF03325FEAFF
:102D8000DC0C18BF033202EBDC02C2F1200300FAB4
:102D900003FC20FA02F001FA03FE40EA0E0021FAD9
:102DA00002F11444C1E600BF4FEA4102B2F1E04330
:102DB00024BFB3F5001CDCF1FE5C0DD901F0004C22
:102DC0004FEAC0024CEA5070B2F1004F40EB830072
:102DD00008BF20F00100704711F0804F21D113F19E
:102DE0003872BCBF01F00040704741F480114FEAD7
:102DF0005252C2F11802C2F1200C10FA0CF320FA60
:102E000002F018BF40F001004FEAC1234FEAD3237C
:102E100003FA0CFC40EA0C0023FA02F34FEA4303E6
:102E2000CCE77FEA625307D150EA01331EBF4FF06F
:102E3000FE4040F44000704701F0004040F0FE408A
:082E400040F40000704700BFE0
:102E48000000000001020304010203040607080948
:102E58000000000000000000010203040607080942
:102E6800007A030A1700000038000000590000002B
:0C2E7800580400000000803F0200000031
:0400000508000000EF
:00000001FF
