:020000040800F2
:10000000486A0020ED0A0008E90A0008E90A000829
:10001000E90A0008E90A0008E90A000800000000EF
:10002000000000000000000000000000E90A0008D5
:10003000E90A000800000000E90A0008E90A0008CF
:10004000E90A0008E90A0008E90A0008E90A0008C4
:10005000E90A0008E90A0008E90A0008E90A0008B4
:10006000E90A0008E90A0008E90A0008E90A0008A4
:10007000E90A0008E90A0008E90A0008BD040008C6
:10008000E90A0008E90A0008E90A0008E90A000884
:10009000E90A0008E90A0008E90A0008E90A000874
:1000A000E90A0008E90A0008E90A0008E90A000864
:1000B000A10B0008E90A0008E90A0008E90A00089B
:1000C000E90A0008E90A0008E90A0008E90A000844
:1000D000E90A0008E90A0008E90A0008E90A000834
:1000E000E90A0008E90A0008E90A0008E90A000824
:1000F000E90A0008E90A0008E90A0008E90A000814
:10010000E90A0008E90A0008E90A0008E90A000803
:10011000E90A0008E90A0008E90A0008E90A0008F3
:10012000E90A0008E90A0008E90A0008E90A0008E3
:10013000E90A0008E90A0008E90A0008E90A0008D3
:10014000E90A0008E90A0008E90A0008E90A0008C3
:10015000E90A0008E90A0008E90A0008E90A0008B3
:10016000E90A0008E90A0008E90A0008E90A0008A3
:10017000E90A0008E90A0008E90A0008E90A000893
:10018000E90A0008E90A0008F0B5104C83B0042021
:10019000012100F0CDFD402601232046022500224A
:1001A000694603278DF806208DF8073000968DF8F4
:1001B00004508DF8057000F0B1FE668320462A4693
:1001C000062100F009FF03B0F0BD00BF00080240A7
:1001D00070B5022088B0184D012100F0B5FD4FF434
:1001E0000010012100F0A4FD002468236946284680
:1001F0000193ADF80040ADF80840ADF8024001F0C1
:10020000F9F803A801F0A0F90126602303A9284604
:10021000ADF80C300594ADF81840ADF80E6001F063
:1002200053F92846082101F099F92846314601F092
:100230002FF908B070BD00BF0004004000B50C48A5
:1002400083B04FF40071012201F0AAF900230F21BD
:10025000012201A88DF804108DF805308DF80630C4
:100260008DF8072001F08AF803B05DF804FB00BFA9
:10027000000400402DE9F0431B4CDFF87090DFF8DC
:10028000708091B00021204601F00AF8204600F06D
:1002900037FF4FF02063204601934FF0400C0023BE
:1002A00040F6484E01224FF480674FF400664FF449
:1002B00000554FF4403401A9CDF80890CDF80C80DA
:1002C000CDF810C0CDF814E006930A930C930E936A
:1002D0000F930797089609950B940D9200F0A8FFCD
:1002E00011B0BDE8F08300BF7060024034040040EC
:1002F000B401002038B5094D094B01242846224697
:1003000010211C6000F0D6FF2846214600F0C8FFEF
:1003100021460448BDE8384001F0C8B8706002408A
:10032000B00100200004004070B5154E154C164B6E
:100330000022326023F8022FA342FBD1002313488E
:100340001A4640F28315C118C2540333AB424A70B7
:100350008A70F8D1FFF718FFFFF73AFFFFF76EFF3B
:10036000FFF788FF084B002223F8022F9C42FBD1A5
:1003700033681BB9BDE87040FFF7BCBFFEE700BFA4
:10038000B0010020421A0020B20100202C00002001
:10039000F0B4404B404F00264C211D2240F2831CFC
:1003A000B819BC5D4578807815F0800F0CBF1A80B5
:1003B000198015F0400F0CBF5A80598015F0200F9E
:1003C0000CBF9A80998015F0100F0CBFDA80D9808D
:1003D00015F0080F0CBF1A81198115F0040F0CBF1E
:1003E0005A81598115F0020F0CBF9A819981ED074E
:1003F00054BFDA81D981250654BF1A821982650655
:1004000054BF5A825982A50654BF9A829982E50642
:1004100054BFDA82D982250754BF1A83198365072E
:1004200054BF5A835983A50754BF9A839983E5071C
:1004300054BFDA83D983040654BF1A84198445064D
:1004400054BF5A845984840654BF9A849984C5063B
:1004500054BFDA84D984040754BF1A851985450727
:1004600054BF5A855985840754BF9A8599850336A8
:10047000C00754BFDA85D985664503F130038FD1B3
:10048000064B002103F1600223F8021F9342FBD1C7
:10049000F0BC7047B40100202C000020E2190020BD
:1004A00008B5054B1B682BB9FFF772FFBDE8084084
:1004B000FFF720BFFEE700BFB001002008B50A48E3
:1004C0000A4900F017FF70B10748084900F03CFFE7
:1004D0000748002100F0EAFF0348002100F0E0FE99
:1004E000044B00221A6008BD70600240208000208A
:1004F00000040040B0010020002807DA10F5B470B5
:10050000FCD4B0F5B47F04DDA0F5B470B0F5B47FD1
:10051000FADC002907DA11F5B471FCD4B1F5B47F27
:1005200004DDA1F5B471B1F5B47FFADC411A0029FC
:10053000B8BF4942B429C8BFC1F5B4716423C1F141
:10054000B401054803FB01F180FB01300844C917E1
:10055000C1EBE010704700BFB7600BB6094BDA681B
:100560001968586810B481EAC121186082EAD24043
:1005700048409C685C6080EA11209A60D8605DF811
:10058000044B704700000020002804DAC34323F026
:100590000703083018440728C8BF00F007000122ED
:1005A00002FA00F313F0830009D113F0440F07D1CE
:1005B00013F0380F0CBF00206FF00000704710469A
:1005C000704700BF2DE9F04F8FB0002406468946E2
:1005D000039405AD274621463046FFF78DFF2D34A5
:1005E000B4F5B47F45F8040F0744F4D15A3EB32E56
:1005F000039700F2AF804FF0FF31049105914FF067
:100600005F0BDFF86481BBF12F0FD4BF0023012300
:100610005A0003F1010A0AEB4A0A13444FEA4B025B
:100620001E014FEA0A1A00250292029B5B4405EB69
:10063000031358F82320D10765D5DFF82CC15CF8E7
:1006400023305A1C5FD0FFF789FF03990023B0FBCA
:10065000F1F202FB11009E461A4619464F4607E08A
:10066000001B00285BDD0131082903F1040310D0D1
:100670000DF1180C5CF80340002FF1D17445C8BF90
:100680000A4601F10101C8BFA646082903F1040387
:10069000EED10EA901EB8203B94653F8204CD01ECF
:1006A0000192FFF771FF019A0746501EFFF76CFF9A
:1006B0002C4B83FB0432E417C4EB6202012A22DDD7
:1006C00041427C4202FB075302FB00B000952F2BF6
:1006D00002F1FF3212D8B04210DB00EB4007504568
:1006E00003EB07170ADA58F827C0BCF1000F05D151
:1006F0001D4D55F827C0BCF1FF3F13D1012A2344FB
:100700000844E4D1009D0135302D8ED10499059A1D
:100710008B445A457FF477AF0FB0BDE8F08FB946F0
:100720000A46BCE7029B009DDFF83CC05B4405EB3A
:10073000031301355CF8232022F001024CF823203A
:100740005CF82730302D43F001034CF827307FF45C
:100750006CAFDBE701236025049305954FF0000B98
:100760004FE700BFE9A28B2E481A00202DE9F003C5
:10077000154D01EB410102EB420200274E004FEA0A
:100780004208A946BC4607EB080404EB44042401D4
:10079000002301E0062B10D09A192244013355F8AA
:1007A000221001F001018142F4D159F822200132D6
:1007B00018BF0CF1010C062BEED10137062FE2D148
:1007C0006046BDE8F0037047481A002045F25553D3
:1007D00010B400EA030403EA60031C4443F233301C
:1007E00004EA000100EA9400014440F60F7201EAB5
:1007F000020302EA11121344181250FA83F05DF852
:10080000044B70472DE9F04F594991B0002300285F
:100810000B604B60039308DD0122194602FA03F4D2
:10082000013383422144F9D10391524B50491A7844
:10083000DFF848A15D780D9200EBC00000229B78A4
:1008400009680C9580000A930B9109920690D34693
:100850000792079D05EB4503E9005B000493CA1D61
:1008600005F0010300250E910F9208930595059A56
:10087000002302EB420702937F0099460193029DF9
:10088000049B2B4403EB43034FEA03180025EE19A6
:1008900008EB060401355AF82420002A11DB5BF826
:1008A000240003990840FFF791FF5BF824305BF8C0
:1008B000242002F0010202EB430292B24BF8242002
:1008C000814446445AF82620D30706D55BF82620F3
:1008D000013202D0019A01320192062DD7D1029B3A
:1008E0000133062B0293CAD1079907293ADC0B9AE8
:1008F000019B1A440B920D9A0C9B0A9D02FB09F472
:10090000069A03FB09F009FB05F1089B94FBF2F43E
:1009100090FBF2F091FBF2F1E4B2C0B2C9B2EBB1DC
:100920000F9D059BEA1A059D134B02EB4202013510
:1009300013440595104DAC549970059958700829C9
:1009400095D1079D0135102D079582D1084A0B9945
:10095000099B1160536011B0BDE8F08F059A0E9DA0
:100960002A44E0E7099D01990D440995C3E700BFBA
:1009700018000020441A00202C000020481A0020F3
:100980002DE9F0071F4FDDF81C8002EB420203EB5C
:1009900043034FEA420C4FEA43093E464FF0000A38
:1009A0000AEB090505EB45052D01002301E0062BA7
:1009B0001FD003EB0C022A44013357F8224004F005
:1009C00001048442F3D156F822400134EFD056F8A6
:1009D00022400C4046F8224056F8224008F1FF38E9
:1009E0000C43B8F1000F46F82240E0DCBDE8F00708
:1009F00070470AF1010ABAF1060FD1D1BDE8F0073C
:100A0000704700BF481A0020364B0CCB134406EE4B
:100A1000903AB8EEE67A06EE902AF8EEE67A30B52D
:100A2000D7EE007A002883B0FDEEE77A17EE904A01
:100A300007DA10F5B470FCD4B0F5B47F04DBA0F590
:100A4000B470B0F5B47FFADAA0F12E03B3F5867F67
:100A500001D9002C25DB87385A2820D8002C1EDD30
:100A6000072108220120FFF781FE054600200146EC
:100A70000722FFF77BFE8542B8BF2846A042B8BFD9
:100A8000044600200246012107230094FFF778FF67
:100A900000940120002107220823FFF771FF03B013
:100AA00030BD002107220120FFF760FE0721054627
:100AB00008220020FFF75AFE64428542B8BF28464C
:100AC000A042B8BF04460094002001210722082359
:100AD000FFF756FF002100940A4601200723FFF785
:100AE0004FFFDCE718000020FEE700BF1249134B60
:100AF000994210B40BD2C843184420F00300104CA4
:100B000004300023E258CA5004338342FAD10D481E
:100B10000D494FF000028842B8BF40F8042BFFF6A1
:100B2000FAAFDFF82800016841F4700101605DF858
:100B3000044B00F00DB800BF00000020180000209A
:100B4000C4190008180000204862002088ED00E069
:100B500010B500F05BF900F053FA00F001F900F075
:100B60001BF900F03FF9FFF7DFFB0A490A4B282089
:100B70001E24002208704C708A7003F283100A2130
:100B800003F8012C1A70597003338342F8D1FFF730
:100B900087FCFEE7441A00202D0000200000000022
:100BA00038B54FF08040012100F0EAFC00B938BDB3
:100BB0004FF08040012100F0EFFC594B594C5A692D
:100BC00082F400425A612368032B00F29180DFE82F
:100BD00003F054711B02A268524B312A40F3838008
:100BE000514D58686A68013A012A00F102005860C4
:100BF000D6BF02236A606B60B0F5B47F26DD0020AB
:100C000060602060A06021E0474D286800F036FE5B
:100C100041A3D3E9002300F0D3FC00F083FE6B680E
:100C2000286007EE900A0133B7EE007A182BF4EE35
:100C3000C77AC8BF1823F1EE10FA6B6038DD0322C3
:100C40000023606885ED007A2260A3604FF0FF31D9
:100C5000FFF7B8FC95ED000A6068FFF7D5FE606805
:100C60000021FFF7AFFC686800EBD0704010FFF781
:100C7000C9FDBDE83840FFF713BC2B4D286800F0D4
:100C8000FDFD25A3D3E9002300F098FC00F04AFE07
:100C90006B68286007EE900A0133182BF5EEC07AD6
:100CA000C8BF1823F1EE10FA6B604FF000032AD48E
:100CB0006068CBE7A2681B4B312A14DD1A4D5868D7
:100CC0006A68013A012A00F102005860D6BF022387
:100CD0006A606B60B428B9DDB42002220023606032
:100CE0002260A360B2E701329A6058680E4DADE70A
:100CF0000D4D00204FF07E5202232A606B60606031
:100D00002060A060A2E7012100222B602160A26088
:100D1000CEE700BFAFF30080FCA9F1D24D62603F87
:100D2000000C02402000002010000020AFF30080E3
:100D3000044B1A6B19B922EA00001863704710437C
:100D40001863704700380240044B1A6C19B922EA44
:100D50000000186470471043186470470038024060
:100D600010B5082082B00121FFF7E2FF4FF4704177
:100D7000002302220091012406488DF804406946B0
:100D80008DF806308DF807308DF8052000F0C6F894
:100D900002B010BD000C024010B5012084B0014625
:100DA000FFF7D2FF4FF47A6400234FF4C87201A911
:100DB0004FF08040ADF80630ADF80C308DF80E30B5
:100DC0000292ADF8044000F015FB4FF08040012185
:100DD00000F06CFB01210A464FF0804000F0C6FB9A
:100DE00004B010BD00B583B001231C21002201A86E
:100DF0008DF804108DF805208DF806308DF8073039
:100E000000F0BCFA03B05DF804FB00BF2DE9F00F61
:100E10000024DFF804B186B0204604EB4401090148
:100E20000023CA180133302B4BF82200F9D10134CA
:100E3000602CF2D10C2304934FF0FF350023029372
:100E4000049B12330593029BDDF81480DDF81090AB
:100E50002A330026039308EB48031B0109F1300AEB
:100E600008F130040AEB4A0A04EB440409EB490098
:100E70000193029A039B4FEA0A1A24010001002100
:100E800000EB020CC7184BF82C50DDF804C04BF8EF
:100E900027509C440AEB02074BF82C5001314BF8C9
:100EA000275004EB020CE718B1424BF82C5002F12A
:100EB00006024BF82750A3F10603E1DD0136032EAD
:100EC000A9F1060908F10608C5D1029B0133062BDA
:100ED0000293B8D1049B0133122B0493AED10027A7
:100EE0000D4E3C46012507EB470000010023C218C8
:100EF00001335BF8221029B9B4F54F7FBCBF46F827
:100F000022500134302BF2D10137302FEBD106B013
:100F1000BDE8F00F704700BF481A002000222DE9FD
:100F2000F00713460E6801274FF0030804E0013371
:100F3000102B02F102022CD007FA03F404EA060592
:100F4000A542F4D1D0F8009091F804C008FA02F458
:100F5000E44304EA0909C0F80090D0F800900CFAC4
:100F600002FA0CF1FF3C4AEA0909BCF1010FC0F892
:100F7000009011D9C56891F807C02C40C460C568BD
:100F80000CFA02F401332C43102BC46002F102026C
:100F9000D2D1BDE8F0077047D0F808A091F80590CD
:100FA00091F806C004EA0A0AC0F808A0D0F808A020
:100FB00009FA02F949EA0A09C0F80890D0F8049041
:100FC00029EA0505456045680CFA03FC1FFA8CFC0C
:100FD0004CEA05054560CDE7CB0800EB830001F046
:100FE000070110B48900046A0F238B4024EA03032D
:100FF0000362036A5DF8044B8A401343036270473F
:10100000394A3A4BD2F88810394841F47001C2F895
:1010100088101968002241F0010119609A6019686E
:1010200021F0847121F4803119605860196882B010
:1010300021F480211960DA60009201921A6842F46A
:1010400080321A601A4603E0009BB3F5A06F09D006
:10105000136803F400330193009B01330093019B59
:10106000002BF1D0214B1B6813F4003318BF012370
:101070000193019B012B05D01B4B4FF000629A603E
:1010800002B07047194B1B4A186C1B4940F0805046
:101090001864106840F4804010609A689A609A68FA
:1010A00042F400429A609A6842F4A0529A605960F1
:1010B0001A6842F080721A6019460B680B4A9B014D
:1010C000FBD50E4B40F205611960936823F00303D2
:1010D0009360936843F002039360936803F00C03FA
:1010E000082BFAD1C8E700BF00ED00E0003802404D
:1010F000103000240070004008544007003C0240BB
:1011000010B4374A0468002324F0010421219042DE
:101110000460036043608360C360036141614DD03C
:10112000304B984235D0304B984239D02F4B9842B3
:101130003DD02F4B984247D02E4B984248D02E4B53
:1011400098421DD02D4B98421ED02D4B984243D033
:101150002C4B98421DD02C4B984221D02B4B9842BF
:1011600025D02B4B98422FD02A4B984230D02A4B77
:10117000984205D0294B984206D05DF8044B704741
:10118000274A43F8942CF8E74FF03D5243F8AC2C33
:10119000F3E74FF4746243F8202C5DF8044B70477A
:1011A0004FF4741243F8382C5DF8044B70474FF03D
:1011B000746243F8502C5DF8044B7047194B5DF88E
:1011C000044B3D229A607047174A43F8642CD4E7D9
:1011D000164A43F87C2CD0E73D2243F8082CCCE794
:1011E00010600240286002404060024058600240A7
:1011F0007060024088600240A0600240B860024017
:101200001064024028640240406402405864024076
:101210007064024088640240A0640240B8640240E6
:1012200000003D20006002403D000020400F0020F3
:10123000CA680B68D0F800C02DE9F0074F698E69C5
:10124000CD690C6AD1F83490D1F8388042EA030AAB
:101250004AEA07073E434B6A4F6835432C4344EA4A
:1012600003028B6A0D4ECC6A0D691A4342EA0909E2
:1012700049EA08080CEA060648EA06060B6B896884
:1012800006604269234322F007021343436145602D
:101290008760C160BDE8F007704700BF3F801CF069
:1012A000036819B923F001030360704743F0010399
:1012B000036070470B060CD54369AAB143F0800365
:1012C000802943610FD0036801F01E0119430160BA
:1012D0007047802907D0002AF5D1036801F01E016C
:1012E00023EA01010160704723F0800380294361F4
:1012F000F3D1704770B4114A114D124C21F0F02314
:1013000023F0C316A84288BF224696B1046804F0B1
:101310001E0404EAD12489004CBF5268126823F0ED
:10132000821313EA020002D0201C18BF012070BCF7
:101330007047446904F08004EDE700BF006002409C
:101340000F6402400064024010B4094A094C0A4B81
:10135000A0428CBF1046184611F0005F21F0F0212A
:1013600021F0821114BFC16081605DF8044B7047A9
:10137000006402400F64024000600240C378F0B491
:1013800063B90378194A5909203103F01F0301207A
:1013900000FA03F342F82130F0BC7047144B477851
:1013A000DA68857803781149D243C2F30222C2F188
:1013B00004040F26E4B207FA04F446FA02F2E4B297
:1013C0002A40224303F1604303F561431201D2B284
:1013D00083F800230378012003F01F025B0900FA61
:1013E00002F241F82320F0BC704700BF00E100E0AA
:1013F00000ED00E0234A0388904270B49BB212D003
:1014000002F5806290420ED0B0F1804F0BD0A2F571
:101410008032904207D002F58062904203D002F5FC
:101420008062904203D14A8823F070031343164A26
:1014300090421ED002F5806290421AD00E894D680B
:101440000C8823F4407302F56C429BB23343904204
:101450000380C562048506D00C4B984203D001235B
:10146000838270BC70478B7A03860123838270BCB1
:10147000704703800B884A68C26203850123838218
:1014800070BC7047000001400010004000040140A3
:10149000038829B923F080031B041B0C03807047C9
:1014A0009BB243F080030380704700BF038829B9D3
:1014B00023F001031B041B0C038070479BB243F015
:1014C00001030380704700BFF0B4048CB1F802C080
:1014D0008F890E881B4D24F001042404240C0484FD
:1014E000028C8488038B22F0020223F0730312041F
:1014F0004CEA07071B04120CBFB21B0CA84247EAB8
:101500000202A4B243EA06030AD005F58065A842A8
:1015100006D0896884800383F0BC416302847047ED
:10152000B1F80EC04F8A0D8A8E8822F0080242EA76
:101530000C023D4324F4407422F00402ADB2324365
:101540002C43E6E7000001400023038043808380B2
:1015500083608381C381038243827047038B23F0BE
:1015600008031B041B0C19430183704783899BB23A
:101570001AB923EA010181817047194381817047BB
:10158000038A828911EA030092B203D011420CBF90
:1015900000200120704700BFC94389B20182704713
:1015A00083899BB21AB923EA0101818170471943EB
:1015B0008181704781F0004102E000BF83F0004369
:1015C00030B54FEA41044FEA430594EA050F08BFDE
:1015D00090EA020F1FBF54EA000C55EA020C7FEAA2
:1015E000645C7FEA655C00F0E2804FEA5454D4EB1F
:1015F0005555B8BF6D420CDD2C4480EA020281EAE9
:10160000030382EA000083EA010180EA020281EA20
:101610000303362D88BF30BD11F0004F4FEA013172
:101620004FF4801C4CEA113102D0404261EB410181
:1016300013F0004F4FEA03334CEA133302D0524207
:1016400063EB430394EA050F00F0A780A4F10104C3
:10165000D5F1200E0DDB02FA0EFC22FA05F28018FD
:1016600041F1000103FA0EF2801843FA05F35941E3
:101670000EE0A5F120050EF1200E012A03FA0EFC62
:1016800028BF4CF0020C43FA05F3C01851EBE3718C
:1016900001F0004507D54FF0000EDCF1000C7EEBA9
:1016A00000006EEB0101B1F5801F1BD3B1F5001FE7
:1016B0000CD349085FEA30004FEA3C0C04F1010406
:1016C0004FEA445212F5800F80F09A80BCF1004F2F
:1016D00008BF5FEA500C50F1000041EB045141EAB1
:1016E000050130BD5FEA4C0C404141EB010111F4B2
:1016F000801FA4F10104E9D191F0000F04BF01465D
:101700000020B1FA81F308BF2033A3F10B03B3F13A
:1017100020020CDA0C3208DD02F1140CC2F10C02CA
:1017200001FA0CF021FA02F10CE002F11402D8BF28
:10173000C2F1200C01FA02F120FA0CFCDCBF41EAF4
:101740000C019040E41AA2BF01EB0451294330BDC3
:101750006FEA04041F3C1CDA0C340EDC04F11404A0
:10176000C4F1200220FA04F001FA02F340EA030077
:1017700021FA04F345EA030130BDC4F10C04C4F1BD
:10178000200220FA02F001FA04F340EA030029469D
:1017900030BD21FA04F0294630BD94F0000F83F4E7
:1017A000801306BF81F480110134013D4EE77FEACA
:1017B000645C18BF7FEA655C29D094EA050F08BF16
:1017C00090EA020F05D054EA000C04BF19461046F7
:1017D00030BD91EA030F1EBF0021002030BD5FEA3B
:1017E000545C05D14000494128BF41F0004130BD63
:1017F00014F580043CBF01F5801130BD01F00045B7
:1018000045F0FE4141F470014FF0000030BD7FEA29
:10181000645C1ABF194610467FEA655C1CBF0B4624
:10182000024650EA013406BF52EA033591EA030F3B
:1018300041F4002130BD00BF90F0000F04BF002133
:10184000704730B54FF4806404F132044FF0000566
:101850004FF0000150E700BF90F0000F04BF0021DF
:10186000704730B54FF4806404F1320410F0004545
:1018700048BF40424FF000013EE700BF42004FEA40
:10188000E2014FEA31014FEA02701FBF12F07F43BD
:1018900093F07F4F81F06051704792F0000F14BFBA
:1018A00093F07F4F704730B54FF4607401F00045FE
:1018B00021F0004120E700BF50EA010208BF704755
:1018C00030B54FF000050AE050EA010208BF70474A
:1018D00030B511F0004502D5404261EB41014FF4B3
:1018E000806404F132045FEA915C3FF4DCAE4FF0B7
:1018F00003025FEADC0C18BF03325FEADC0C18BF9E
:10190000033202EBDC02C2F1200300FA03FC20FAEE
:1019100002F001FA03FE40EA0E0021FA02F114443B
:10192000C1E600BF4FEA4102B2F1E04324BFB3F584
:10193000001CDCF1FE5C0DD901F0004C4FEAC00246
:101940004CEA5070B2F1004F40EB830008BF20F02A
:101950000100704711F0804F21D113F13872BCBFE4
:1019600001F00040704741F480114FEA5252C2F139
:101970001802C2F1200C10FA0CF320FA02F018BF82
:1019800040F001004FEAC1234FEAD32303FA0CFCD5
:1019900040EA0C0023FA02F34FEA4303CCE77FEA64
:1019A000625307D150EA01331EBF4FF0FE4040F4AE
:1019B0004000704701F0004040F0FE4040F400005D
:0419C000704700BFAD
:1019C400170000003800000059000000580400000F
:0819D4000000803F020000004A
:0400000508000000EF
:00000001FF
